{
	"contracts/shop.sol": {
		"Shop": {
			"abi": [
				{
					"inputs": [
						{
							"internalType": "string",
							"name": "category",
							"type": "string"
						}
					],
					"name": "addCategory",
					"outputs": [],
					"stateMutability": "nonpayable",
					"type": "function"
				},
				{
					"inputs": [
						{
							"internalType": "string",
							"name": "name",
							"type": "string"
						},
						{
							"internalType": "uint256",
							"name": "price",
							"type": "uint256"
						},
						{
							"internalType": "uint256",
							"name": "quantity",
							"type": "uint256"
						},
						{
							"internalType": "uint256",
							"name": "category",
							"type": "uint256"
						}
					],
					"name": "addProduct",
					"outputs": [],
					"stateMutability": "nonpayable",
					"type": "function"
				},
				{
					"inputs": [
						{
							"internalType": "string",
							"name": "name",
							"type": "string"
						},
						{
							"internalType": "uint256",
							"name": "price",
							"type": "uint256"
						},
						{
							"internalType": "uint256",
							"name": "quantity",
							"type": "uint256"
						},
						{
							"internalType": "string",
							"name": "category",
							"type": "string"
						}
					],
					"name": "addProduct",
					"outputs": [],
					"stateMutability": "nonpayable",
					"type": "function"
				},
				{
					"inputs": [],
					"name": "getCategory",
					"outputs": [
						{
							"internalType": "string[]",
							"name": "",
							"type": "string[]"
						}
					],
					"stateMutability": "view",
					"type": "function"
				},
				{
					"inputs": [
						{
							"internalType": "string",
							"name": "category",
							"type": "string"
						}
					],
					"name": "getProducts",
					"outputs": [
						{
							"components": [
								{
									"internalType": "uint256",
									"name": "primaryKey",
									"type": "uint256"
								},
								{
									"internalType": "string",
									"name": "name",
									"type": "string"
								},
								{
									"internalType": "uint256",
									"name": "price",
									"type": "uint256"
								},
								{
									"internalType": "uint256",
									"name": "quantity",
									"type": "uint256"
								},
								{
									"internalType": "uint256",
									"name": "category",
									"type": "uint256"
								}
							],
							"internalType": "struct Shop.Product[]",
							"name": "",
							"type": "tuple[]"
						}
					],
					"stateMutability": "view",
					"type": "function"
				},
				{
					"inputs": [],
					"name": "getProducts",
					"outputs": [
						{
							"components": [
								{
									"internalType": "uint256",
									"name": "primaryKey",
									"type": "uint256"
								},
								{
									"internalType": "string",
									"name": "name",
									"type": "string"
								},
								{
									"internalType": "uint256",
									"name": "price",
									"type": "uint256"
								},
								{
									"internalType": "uint256",
									"name": "quantity",
									"type": "uint256"
								},
								{
									"internalType": "uint256",
									"name": "category",
									"type": "uint256"
								}
							],
							"internalType": "struct Shop.Product[]",
							"name": "",
							"type": "tuple[]"
						}
					],
					"stateMutability": "view",
					"type": "function"
				}
			],
			"devdoc": {
				"kind": "dev",
				"methods": {},
				"version": 1
			},
			"evm": {
				"assembly": "    /* \"contracts/shop.sol\":64:2989  contract Shop{... */\n  mstore(0x40, 0x80)\n    /* \"contracts/shop.sol\":235:307  string[] productCategory = [\"Smarphone\", \"Game\", \"Laptop\", \"Television\"] */\n  mload(0x40)\n  dup1\n  0x80\n  add\n  0x40\n  mstore\n  dup1\n  mload(0x40)\n  dup1\n  0x40\n  add\n  0x40\n  mstore\n  dup1\n  0x09\n  dup2\n  mstore\n  0x20\n  add\n  0x536d617270686f6e650000000000000000000000000000000000000000000000\n  dup2\n  mstore\n  pop\n  dup2\n  mstore\n  0x20\n  add\n  mload(0x40)\n  dup1\n  0x40\n  add\n  0x40\n  mstore\n  dup1\n  0x04\n  dup2\n  mstore\n  0x20\n  add\n  0x47616d6500000000000000000000000000000000000000000000000000000000\n  dup2\n  mstore\n  pop\n  dup2\n  mstore\n  0x20\n  add\n  mload(0x40)\n  dup1\n  0x40\n  add\n  0x40\n  mstore\n  dup1\n  0x06\n  dup2\n  mstore\n  0x20\n  add\n  0x4c6170746f700000000000000000000000000000000000000000000000000000\n  dup2\n  mstore\n  pop\n  dup2\n  mstore\n  0x20\n  add\n  mload(0x40)\n  dup1\n  0x40\n  add\n  0x40\n  mstore\n  dup1\n  0x0a\n  dup2\n  mstore\n  0x20\n  add\n  0x54656c65766973696f6e00000000000000000000000000000000000000000000\n  dup2\n  mstore\n  pop\n  dup2\n  mstore\n  pop\n  0x00\n  swap1\n  0x04\n  tag_1\n  swap3\n  swap2\n  swap1\n  tag_2\n  jump\t// in\ntag_1:\n  pop\n    /* \"contracts/shop.sol\":64:2989  contract Shop{... */\n  callvalue\n  dup1\n  iszero\n  tag_3\n  jumpi\n  0x00\n  dup1\n  revert\ntag_3:\n  pop\n  jump(tag_4)\ntag_2:\n  dup3\n  dup1\n  sload\n  dup3\n  dup3\n  sstore\n  swap1\n  0x00\n  mstore\n  keccak256(0x00, 0x20)\n  swap1\n  dup2\n  add\n  swap3\n  dup3\n  iszero\n  tag_5\n  jumpi\n  swap2\n  0x20\n  mul\n  dup3\n  add\ntag_6:\n  dup3\n  dup2\n  gt\n  iszero\n  tag_7\n  jumpi\n  dup3\n  mload\n  dup3\n  swap1\n  dup2\n  tag_8\n  swap2\n  swap1\n  tag_9\n  jump\t// in\ntag_8:\n  pop\n  swap2\n  0x20\n  add\n  swap2\n  swap1\n  0x01\n  add\n  swap1\n  jump(tag_6)\ntag_7:\ntag_5:\n  pop\n  swap1\n  pop\n  tag_10\n  swap2\n  swap1\n  tag_11\n  jump\t// in\ntag_10:\n  pop\n  swap1\n  jump\t// out\ntag_11:\ntag_12:\n  dup1\n  dup3\n  gt\n  iszero\n  tag_13\n  jumpi\n  0x00\n  dup2\n  dup2\n  tag_14\n  swap2\n  swap1\n  tag_15\n  jump\t// in\ntag_14:\n  pop\n  0x01\n  add\n  jump(tag_12)\ntag_13:\n  pop\n  swap1\n  jump\t// out\ntag_15:\n  pop\n  dup1\n  sload\n  tag_16\n  swap1\n  tag_17\n  jump\t// in\ntag_16:\n  0x00\n  dup3\n  sstore\n  dup1\n  0x1f\n  lt\n  tag_19\n  jumpi\n  pop\n  jump(tag_18)\ntag_19:\n  0x1f\n  add\n  0x20\n  swap1\n  div\n  swap1\n  0x00\n  mstore\n  keccak256(0x00, 0x20)\n  swap1\n  dup2\n  add\n  swap1\n  tag_20\n  swap2\n  swap1\n  tag_21\n  jump\t// in\ntag_20:\ntag_18:\n  pop\n  jump\t// out\ntag_21:\ntag_22:\n  dup1\n  dup3\n  gt\n  iszero\n  tag_23\n  jumpi\n  0x00\n  dup2\n  0x00\n  swap1\n  sstore\n  pop\n  0x01\n  add\n  jump(tag_22)\ntag_23:\n  pop\n  swap1\n  jump\t// out\n    /* \"#utility.yul\":7:106   */\ntag_24:\n    /* \"#utility.yul\":59:65   */\n  0x00\n    /* \"#utility.yul\":93:98   */\n  dup2\n    /* \"#utility.yul\":87:99   */\n  mload\n    /* \"#utility.yul\":77:99   */\n  swap1\n  pop\n    /* \"#utility.yul\":7:106   */\n  swap2\n  swap1\n  pop\n  jump\t// out\n    /* \"#utility.yul\":112:292   */\ntag_25:\n    /* \"#utility.yul\":160:237   */\n  0x4e487b7100000000000000000000000000000000000000000000000000000000\n    /* \"#utility.yul\":157:158   */\n  0x00\n    /* \"#utility.yul\":150:238   */\n  mstore\n    /* \"#utility.yul\":257:261   */\n  0x41\n    /* \"#utility.yul\":254:255   */\n  0x04\n    /* \"#utility.yul\":247:262   */\n  mstore\n    /* \"#utility.yul\":281:285   */\n  0x24\n    /* \"#utility.yul\":278:279   */\n  0x00\n    /* \"#utility.yul\":271:286   */\n  revert\n    /* \"#utility.yul\":298:478   */\ntag_26:\n    /* \"#utility.yul\":346:423   */\n  0x4e487b7100000000000000000000000000000000000000000000000000000000\n    /* \"#utility.yul\":343:344   */\n  0x00\n    /* \"#utility.yul\":336:424   */\n  mstore\n    /* \"#utility.yul\":443:447   */\n  0x22\n    /* \"#utility.yul\":440:441   */\n  0x04\n    /* \"#utility.yul\":433:448   */\n  mstore\n    /* \"#utility.yul\":467:471   */\n  0x24\n    /* \"#utility.yul\":464:465   */\n  0x00\n    /* \"#utility.yul\":457:472   */\n  revert\n    /* \"#utility.yul\":484:804   */\ntag_17:\n    /* \"#utility.yul\":528:534   */\n  0x00\n    /* \"#utility.yul\":565:566   */\n  0x02\n    /* \"#utility.yul\":559:563   */\n  dup3\n    /* \"#utility.yul\":555:567   */\n  div\n    /* \"#utility.yul\":545:567   */\n  swap1\n  pop\n    /* \"#utility.yul\":612:613   */\n  0x01\n    /* \"#utility.yul\":606:610   */\n  dup3\n    /* \"#utility.yul\":602:614   */\n  and\n    /* \"#utility.yul\":633:651   */\n  dup1\n    /* \"#utility.yul\":623:704   */\n  tag_48\n  jumpi\n    /* \"#utility.yul\":689:693   */\n  0x7f\n    /* \"#utility.yul\":681:687   */\n  dup3\n    /* \"#utility.yul\":677:694   */\n  and\n    /* \"#utility.yul\":667:694   */\n  swap2\n  pop\n    /* \"#utility.yul\":623:704   */\ntag_48:\n    /* \"#utility.yul\":751:753   */\n  0x20\n    /* \"#utility.yul\":743:749   */\n  dup3\n    /* \"#utility.yul\":740:754   */\n  lt\n    /* \"#utility.yul\":720:738   */\n  dup2\n    /* \"#utility.yul\":717:755   */\n  sub\n    /* \"#utility.yul\":714:798   */\n  tag_49\n  jumpi\n    /* \"#utility.yul\":770:788   */\n  tag_50\n  tag_26\n  jump\t// in\ntag_50:\n    /* \"#utility.yul\":714:798   */\ntag_49:\n    /* \"#utility.yul\":535:804   */\n  pop\n    /* \"#utility.yul\":484:804   */\n  swap2\n  swap1\n  pop\n  jump\t// out\n    /* \"#utility.yul\":810:951   */\ntag_27:\n    /* \"#utility.yul\":859:863   */\n  0x00\n    /* \"#utility.yul\":882:885   */\n  dup2\n    /* \"#utility.yul\":874:885   */\n  swap1\n  pop\n    /* \"#utility.yul\":905:908   */\n  dup2\n    /* \"#utility.yul\":902:903   */\n  0x00\n    /* \"#utility.yul\":895:909   */\n  mstore\n    /* \"#utility.yul\":939:943   */\n  0x20\n    /* \"#utility.yul\":936:937   */\n  0x00\n    /* \"#utility.yul\":926:944   */\n  keccak256\n    /* \"#utility.yul\":918:944   */\n  swap1\n  pop\n    /* \"#utility.yul\":810:951   */\n  swap2\n  swap1\n  pop\n  jump\t// out\n    /* \"#utility.yul\":957:1050   */\ntag_28:\n    /* \"#utility.yul\":994:1000   */\n  0x00\n    /* \"#utility.yul\":1041:1043   */\n  0x20\n    /* \"#utility.yul\":1036:1038   */\n  0x1f\n    /* \"#utility.yul\":1029:1034   */\n  dup4\n    /* \"#utility.yul\":1025:1039   */\n  add\n    /* \"#utility.yul\":1021:1044   */\n  div\n    /* \"#utility.yul\":1011:1044   */\n  swap1\n  pop\n    /* \"#utility.yul\":957:1050   */\n  swap2\n  swap1\n  pop\n  jump\t// out\n    /* \"#utility.yul\":1056:1163   */\ntag_29:\n    /* \"#utility.yul\":1100:1108   */\n  0x00\n    /* \"#utility.yul\":1150:1155   */\n  dup3\n    /* \"#utility.yul\":1144:1148   */\n  dup3\n    /* \"#utility.yul\":1140:1156   */\n  shl\n    /* \"#utility.yul\":1119:1156   */\n  swap1\n  pop\n    /* \"#utility.yul\":1056:1163   */\n  swap3\n  swap2\n  pop\n  pop\n  jump\t// out\n    /* \"#utility.yul\":1169:1562   */\ntag_30:\n    /* \"#utility.yul\":1238:1244   */\n  0x00\n    /* \"#utility.yul\":1288:1289   */\n  0x08\n    /* \"#utility.yul\":1276:1286   */\n  dup4\n    /* \"#utility.yul\":1272:1290   */\n  mul\n    /* \"#utility.yul\":1311:1408   */\n  tag_55\n    /* \"#utility.yul\":1341:1407   */\n  0xffffffffffffffffffffffffffffffffffffffffffffffffffffffffffffffff\n    /* \"#utility.yul\":1330:1339   */\n  dup3\n    /* \"#utility.yul\":1311:1408   */\n  tag_29\n  jump\t// in\ntag_55:\n    /* \"#utility.yul\":1429:1468   */\n  tag_56\n    /* \"#utility.yul\":1459:1467   */\n  dup7\n    /* \"#utility.yul\":1448:1457   */\n  dup4\n    /* \"#utility.yul\":1429:1468   */\n  tag_29\n  jump\t// in\ntag_56:\n    /* \"#utility.yul\":1417:1468   */\n  swap6\n  pop\n    /* \"#utility.yul\":1501:1505   */\n  dup1\n    /* \"#utility.yul\":1497:1506   */\n  not\n    /* \"#utility.yul\":1490:1495   */\n  dup5\n    /* \"#utility.yul\":1486:1507   */\n  and\n    /* \"#utility.yul\":1477:1507   */\n  swap4\n  pop\n    /* \"#utility.yul\":1550:1554   */\n  dup1\n    /* \"#utility.yul\":1540:1548   */\n  dup7\n    /* \"#utility.yul\":1536:1555   */\n  and\n    /* \"#utility.yul\":1529:1534   */\n  dup5\n    /* \"#utility.yul\":1526:1556   */\n  or\n    /* \"#utility.yul\":1516:1556   */\n  swap3\n  pop\n    /* \"#utility.yul\":1245:1562   */\n  pop\n  pop\n    /* \"#utility.yul\":1169:1562   */\n  swap4\n  swap3\n  pop\n  pop\n  pop\n  jump\t// out\n    /* \"#utility.yul\":1568:1645   */\ntag_31:\n    /* \"#utility.yul\":1605:1612   */\n  0x00\n    /* \"#utility.yul\":1634:1639   */\n  dup2\n    /* \"#utility.yul\":1623:1639   */\n  swap1\n  pop\n    /* \"#utility.yul\":1568:1645   */\n  swap2\n  swap1\n  pop\n  jump\t// out\n    /* \"#utility.yul\":1651:1711   */\ntag_32:\n    /* \"#utility.yul\":1679:1682   */\n  0x00\n    /* \"#utility.yul\":1700:1705   */\n  dup2\n    /* \"#utility.yul\":1693:1705   */\n  swap1\n  pop\n    /* \"#utility.yul\":1651:1711   */\n  swap2\n  swap1\n  pop\n  jump\t// out\n    /* \"#utility.yul\":1717:1859   */\ntag_33:\n    /* \"#utility.yul\":1767:1776   */\n  0x00\n    /* \"#utility.yul\":1800:1853   */\n  tag_60\n    /* \"#utility.yul\":1818:1852   */\n  tag_61\n    /* \"#utility.yul\":1827:1851   */\n  tag_62\n    /* \"#utility.yul\":1845:1850   */\n  dup5\n    /* \"#utility.yul\":1827:1851   */\n  tag_31\n  jump\t// in\ntag_62:\n    /* \"#utility.yul\":1818:1852   */\n  tag_32\n  jump\t// in\ntag_61:\n    /* \"#utility.yul\":1800:1853   */\n  tag_31\n  jump\t// in\ntag_60:\n    /* \"#utility.yul\":1787:1853   */\n  swap1\n  pop\n    /* \"#utility.yul\":1717:1859   */\n  swap2\n  swap1\n  pop\n  jump\t// out\n    /* \"#utility.yul\":1865:1940   */\ntag_34:\n    /* \"#utility.yul\":1908:1911   */\n  0x00\n    /* \"#utility.yul\":1929:1934   */\n  dup2\n    /* \"#utility.yul\":1922:1934   */\n  swap1\n  pop\n    /* \"#utility.yul\":1865:1940   */\n  swap2\n  swap1\n  pop\n  jump\t// out\n    /* \"#utility.yul\":1946:2215   */\ntag_35:\n    /* \"#utility.yul\":2056:2095   */\n  tag_65\n    /* \"#utility.yul\":2087:2094   */\n  dup4\n    /* \"#utility.yul\":2056:2095   */\n  tag_33\n  jump\t// in\ntag_65:\n    /* \"#utility.yul\":2117:2208   */\n  tag_66\n    /* \"#utility.yul\":2166:2207   */\n  tag_67\n    /* \"#utility.yul\":2190:2206   */\n  dup3\n    /* \"#utility.yul\":2166:2207   */\n  tag_34\n  jump\t// in\ntag_67:\n    /* \"#utility.yul\":2158:2164   */\n  dup5\n    /* \"#utility.yul\":2151:2155   */\n  dup5\n    /* \"#utility.yul\":2145:2156   */\n  sload\n    /* \"#utility.yul\":2117:2208   */\n  tag_30\n  jump\t// in\ntag_66:\n    /* \"#utility.yul\":2111:2115   */\n  dup3\n    /* \"#utility.yul\":2104:2209   */\n  sstore\n    /* \"#utility.yul\":2022:2215   */\n  pop\n    /* \"#utility.yul\":1946:2215   */\n  pop\n  pop\n  pop\n  jump\t// out\n    /* \"#utility.yul\":2221:2294   */\ntag_36:\n    /* \"#utility.yul\":2266:2269   */\n  0x00\n    /* \"#utility.yul\":2221:2294   */\n  swap1\n  jump\t// out\n    /* \"#utility.yul\":2300:2489   */\ntag_37:\n    /* \"#utility.yul\":2377:2409   */\n  tag_70\n  tag_36\n  jump\t// in\ntag_70:\n    /* \"#utility.yul\":2418:2483   */\n  tag_71\n    /* \"#utility.yul\":2476:2482   */\n  dup2\n    /* \"#utility.yul\":2468:2474   */\n  dup5\n    /* \"#utility.yul\":2462:2466   */\n  dup5\n    /* \"#utility.yul\":2418:2483   */\n  tag_35\n  jump\t// in\ntag_71:\n    /* \"#utility.yul\":2353:2489   */\n  pop\n    /* \"#utility.yul\":2300:2489   */\n  pop\n  pop\n  jump\t// out\n    /* \"#utility.yul\":2495:2681   */\ntag_38:\n    /* \"#utility.yul\":2555:2675   */\ntag_73:\n    /* \"#utility.yul\":2572:2575   */\n  dup2\n    /* \"#utility.yul\":2565:2570   */\n  dup2\n    /* \"#utility.yul\":2562:2576   */\n  lt\n    /* \"#utility.yul\":2555:2675   */\n  iszero\n  tag_75\n  jumpi\n    /* \"#utility.yul\":2626:2665   */\n  tag_76\n    /* \"#utility.yul\":2663:2664   */\n  0x00\n    /* \"#utility.yul\":2656:2661   */\n  dup3\n    /* \"#utility.yul\":2626:2665   */\n  tag_37\n  jump\t// in\ntag_76:\n    /* \"#utility.yul\":2599:2600   */\n  0x01\n    /* \"#utility.yul\":2592:2597   */\n  dup2\n    /* \"#utility.yul\":2588:2601   */\n  add\n    /* \"#utility.yul\":2579:2601   */\n  swap1\n  pop\n    /* \"#utility.yul\":2555:2675   */\n  jump(tag_73)\ntag_75:\n    /* \"#utility.yul\":2495:2681   */\n  pop\n  pop\n  jump\t// out\n    /* \"#utility.yul\":2687:3230   */\ntag_39:\n    /* \"#utility.yul\":2788:2790   */\n  0x1f\n    /* \"#utility.yul\":2783:2786   */\n  dup3\n    /* \"#utility.yul\":2780:2791   */\n  gt\n    /* \"#utility.yul\":2777:3223   */\n  iszero\n  tag_78\n  jumpi\n    /* \"#utility.yul\":2822:2860   */\n  tag_79\n    /* \"#utility.yul\":2854:2859   */\n  dup2\n    /* \"#utility.yul\":2822:2860   */\n  tag_27\n  jump\t// in\ntag_79:\n    /* \"#utility.yul\":2906:2935   */\n  tag_80\n    /* \"#utility.yul\":2924:2934   */\n  dup5\n    /* \"#utility.yul\":2906:2935   */\n  tag_28\n  jump\t// in\ntag_80:\n    /* \"#utility.yul\":2896:2904   */\n  dup2\n    /* \"#utility.yul\":2892:2936   */\n  add\n    /* \"#utility.yul\":3089:3091   */\n  0x20\n    /* \"#utility.yul\":3077:3087   */\n  dup6\n    /* \"#utility.yul\":3074:3092   */\n  lt\n    /* \"#utility.yul\":3071:3120   */\n  iszero\n  tag_81\n  jumpi\n    /* \"#utility.yul\":3110:3118   */\n  dup2\n    /* \"#utility.yul\":3095:3118   */\n  swap1\n  pop\n    /* \"#utility.yul\":3071:3120   */\ntag_81:\n    /* \"#utility.yul\":3133:3213   */\n  tag_82\n    /* \"#utility.yul\":3189:3211   */\n  tag_83\n    /* \"#utility.yul\":3207:3210   */\n  dup6\n    /* \"#utility.yul\":3189:3211   */\n  tag_28\n  jump\t// in\ntag_83:\n    /* \"#utility.yul\":3179:3187   */\n  dup4\n    /* \"#utility.yul\":3175:3212   */\n  add\n    /* \"#utility.yul\":3162:3173   */\n  dup3\n    /* \"#utility.yul\":3133:3213   */\n  tag_38\n  jump\t// in\ntag_82:\n    /* \"#utility.yul\":2792:3223   */\n  pop\n  pop\n    /* \"#utility.yul\":2777:3223   */\ntag_78:\n    /* \"#utility.yul\":2687:3230   */\n  pop\n  pop\n  pop\n  jump\t// out\n    /* \"#utility.yul\":3236:3353   */\ntag_40:\n    /* \"#utility.yul\":3290:3298   */\n  0x00\n    /* \"#utility.yul\":3340:3345   */\n  dup3\n    /* \"#utility.yul\":3334:3338   */\n  dup3\n    /* \"#utility.yul\":3330:3346   */\n  shr\n    /* \"#utility.yul\":3309:3346   */\n  swap1\n  pop\n    /* \"#utility.yul\":3236:3353   */\n  swap3\n  swap2\n  pop\n  pop\n  jump\t// out\n    /* \"#utility.yul\":3359:3528   */\ntag_41:\n    /* \"#utility.yul\":3403:3409   */\n  0x00\n    /* \"#utility.yul\":3436:3487   */\n  tag_86\n    /* \"#utility.yul\":3484:3485   */\n  0x00\n    /* \"#utility.yul\":3480:3486   */\n  not\n    /* \"#utility.yul\":3472:3477   */\n  dup5\n    /* \"#utility.yul\":3469:3470   */\n  0x08\n    /* \"#utility.yul\":3465:3478   */\n  mul\n    /* \"#utility.yul\":3436:3487   */\n  tag_40\n  jump\t// in\ntag_86:\n    /* \"#utility.yul\":3432:3488   */\n  not\n    /* \"#utility.yul\":3517:3521   */\n  dup1\n    /* \"#utility.yul\":3511:3515   */\n  dup4\n    /* \"#utility.yul\":3507:3522   */\n  and\n    /* \"#utility.yul\":3497:3522   */\n  swap2\n  pop\n    /* \"#utility.yul\":3410:3528   */\n  pop\n    /* \"#utility.yul\":3359:3528   */\n  swap3\n  swap2\n  pop\n  pop\n  jump\t// out\n    /* \"#utility.yul\":3533:3828   */\ntag_42:\n    /* \"#utility.yul\":3609:3613   */\n  0x00\n    /* \"#utility.yul\":3755:3784   */\n  tag_88\n    /* \"#utility.yul\":3780:3783   */\n  dup4\n    /* \"#utility.yul\":3774:3778   */\n  dup4\n    /* \"#utility.yul\":3755:3784   */\n  tag_41\n  jump\t// in\ntag_88:\n    /* \"#utility.yul\":3747:3784   */\n  swap2\n  pop\n    /* \"#utility.yul\":3817:3820   */\n  dup3\n    /* \"#utility.yul\":3814:3815   */\n  0x02\n    /* \"#utility.yul\":3810:3821   */\n  mul\n    /* \"#utility.yul\":3804:3808   */\n  dup3\n    /* \"#utility.yul\":3801:3822   */\n  or\n    /* \"#utility.yul\":3793:3822   */\n  swap1\n  pop\n    /* \"#utility.yul\":3533:3828   */\n  swap3\n  swap2\n  pop\n  pop\n  jump\t// out\n    /* \"#utility.yul\":3833:5228   */\ntag_9:\n    /* \"#utility.yul\":3950:3987   */\n  tag_90\n    /* \"#utility.yul\":3983:3986   */\n  dup3\n    /* \"#utility.yul\":3950:3987   */\n  tag_24\n  jump\t// in\ntag_90:\n    /* \"#utility.yul\":4052:4070   */\n  0xffffffffffffffff\n    /* \"#utility.yul\":4044:4050   */\n  dup2\n    /* \"#utility.yul\":4041:4071   */\n  gt\n    /* \"#utility.yul\":4038:4094   */\n  iszero\n  tag_91\n  jumpi\n    /* \"#utility.yul\":4074:4092   */\n  tag_92\n  tag_25\n  jump\t// in\ntag_92:\n    /* \"#utility.yul\":4038:4094   */\ntag_91:\n    /* \"#utility.yul\":4118:4156   */\n  tag_93\n    /* \"#utility.yul\":4150:4154   */\n  dup3\n    /* \"#utility.yul\":4144:4155   */\n  sload\n    /* \"#utility.yul\":4118:4156   */\n  tag_17\n  jump\t// in\ntag_93:\n    /* \"#utility.yul\":4203:4270   */\n  tag_94\n    /* \"#utility.yul\":4263:4269   */\n  dup3\n    /* \"#utility.yul\":4255:4261   */\n  dup3\n    /* \"#utility.yul\":4249:4253   */\n  dup6\n    /* \"#utility.yul\":4203:4270   */\n  tag_39\n  jump\t// in\ntag_94:\n    /* \"#utility.yul\":4297:4298   */\n  0x00\n    /* \"#utility.yul\":4321:4325   */\n  0x20\n    /* \"#utility.yul\":4308:4325   */\n  swap1\n  pop\n    /* \"#utility.yul\":4353:4355   */\n  0x1f\n    /* \"#utility.yul\":4345:4351   */\n  dup4\n    /* \"#utility.yul\":4342:4356   */\n  gt\n    /* \"#utility.yul\":4370:4371   */\n  0x01\n    /* \"#utility.yul\":4365:4983   */\n  dup2\n  eq\n  tag_96\n  jumpi\n    /* \"#utility.yul\":5027:5028   */\n  0x00\n    /* \"#utility.yul\":5044:5050   */\n  dup5\n    /* \"#utility.yul\":5041:5118   */\n  iszero\n  tag_97\n  jumpi\n    /* \"#utility.yul\":5093:5102   */\n  dup3\n    /* \"#utility.yul\":5088:5091   */\n  dup8\n    /* \"#utility.yul\":5084:5103   */\n  add\n    /* \"#utility.yul\":5078:5104   */\n  mload\n    /* \"#utility.yul\":5069:5104   */\n  swap1\n  pop\n    /* \"#utility.yul\":5041:5118   */\ntag_97:\n    /* \"#utility.yul\":5144:5211   */\n  tag_98\n    /* \"#utility.yul\":5204:5210   */\n  dup6\n    /* \"#utility.yul\":5197:5202   */\n  dup3\n    /* \"#utility.yul\":5144:5211   */\n  tag_42\n  jump\t// in\ntag_98:\n    /* \"#utility.yul\":5138:5142   */\n  dup7\n    /* \"#utility.yul\":5131:5212   */\n  sstore\n    /* \"#utility.yul\":5000:5222   */\n  pop\n    /* \"#utility.yul\":4335:5222   */\n  jump(tag_95)\n    /* \"#utility.yul\":4365:4983   */\ntag_96:\n    /* \"#utility.yul\":4417:4421   */\n  0x1f\n    /* \"#utility.yul\":4413:4422   */\n  not\n    /* \"#utility.yul\":4405:4411   */\n  dup5\n    /* \"#utility.yul\":4401:4423   */\n  and\n    /* \"#utility.yul\":4451:4488   */\n  tag_99\n    /* \"#utility.yul\":4483:4487   */\n  dup7\n    /* \"#utility.yul\":4451:4488   */\n  tag_27\n  jump\t// in\ntag_99:\n    /* \"#utility.yul\":4510:4511   */\n  0x00\n    /* \"#utility.yul\":4524:4732   */\ntag_100:\n    /* \"#utility.yul\":4538:4545   */\n  dup3\n    /* \"#utility.yul\":4535:4536   */\n  dup2\n    /* \"#utility.yul\":4532:4546   */\n  lt\n    /* \"#utility.yul\":4524:4732   */\n  iszero\n  tag_102\n  jumpi\n    /* \"#utility.yul\":4617:4626   */\n  dup5\n    /* \"#utility.yul\":4612:4615   */\n  dup10\n    /* \"#utility.yul\":4608:4627   */\n  add\n    /* \"#utility.yul\":4602:4628   */\n  mload\n    /* \"#utility.yul\":4594:4600   */\n  dup3\n    /* \"#utility.yul\":4587:4629   */\n  sstore\n    /* \"#utility.yul\":4668:4669   */\n  0x01\n    /* \"#utility.yul\":4660:4666   */\n  dup3\n    /* \"#utility.yul\":4656:4670   */\n  add\n    /* \"#utility.yul\":4646:4670   */\n  swap2\n  pop\n    /* \"#utility.yul\":4715:4717   */\n  0x20\n    /* \"#utility.yul\":4704:4713   */\n  dup6\n    /* \"#utility.yul\":4700:4718   */\n  add\n    /* \"#utility.yul\":4687:4718   */\n  swap5\n  pop\n    /* \"#utility.yul\":4561:4565   */\n  0x20\n    /* \"#utility.yul\":4558:4559   */\n  dup2\n    /* \"#utility.yul\":4554:4566   */\n  add\n    /* \"#utility.yul\":4549:4566   */\n  swap1\n  pop\n    /* \"#utility.yul\":4524:4732   */\n  jump(tag_100)\ntag_102:\n    /* \"#utility.yul\":4760:4766   */\n  dup7\n    /* \"#utility.yul\":4751:4758   */\n  dup4\n    /* \"#utility.yul\":4748:4767   */\n  lt\n    /* \"#utility.yul\":4745:4924   */\n  iszero\n  tag_103\n  jumpi\n    /* \"#utility.yul\":4818:4827   */\n  dup5\n    /* \"#utility.yul\":4813:4816   */\n  dup10\n    /* \"#utility.yul\":4809:4828   */\n  add\n    /* \"#utility.yul\":4803:4829   */\n  mload\n    /* \"#utility.yul\":4861:4909   */\n  tag_104\n    /* \"#utility.yul\":4903:4907   */\n  0x1f\n    /* \"#utility.yul\":4895:4901   */\n  dup10\n    /* \"#utility.yul\":4891:4908   */\n  and\n    /* \"#utility.yul\":4880:4889   */\n  dup3\n    /* \"#utility.yul\":4861:4909   */\n  tag_41\n  jump\t// in\ntag_104:\n    /* \"#utility.yul\":4853:4859   */\n  dup4\n    /* \"#utility.yul\":4846:4910   */\n  sstore\n    /* \"#utility.yul\":4768:4924   */\n  pop\n    /* \"#utility.yul\":4745:4924   */\ntag_103:\n    /* \"#utility.yul\":4970:4971   */\n  0x01\n    /* \"#utility.yul\":4966:4967   */\n  0x02\n    /* \"#utility.yul\":4958:4964   */\n  dup9\n    /* \"#utility.yul\":4954:4968   */\n  mul\n    /* \"#utility.yul\":4950:4972   */\n  add\n    /* \"#utility.yul\":4944:4948   */\n  dup9\n    /* \"#utility.yul\":4937:4973   */\n  sstore\n    /* \"#utility.yul\":4372:4983   */\n  pop\n  pop\n  pop\n    /* \"#utility.yul\":4335:5222   */\ntag_95:\n  pop\n    /* \"#utility.yul\":3925:5228   */\n  pop\n  pop\n  pop\n    /* \"#utility.yul\":3833:5228   */\n  pop\n  pop\n  jump\t// out\n    /* \"contracts/shop.sol\":64:2989  contract Shop{... */\ntag_4:\n  dataSize(sub_0)\n  dup1\n  dataOffset(sub_0)\n  0x00\n  codecopy\n  0x00\n  return\nstop\n\nsub_0: assembly {\n        /* \"contracts/shop.sol\":64:2989  contract Shop{... */\n      mstore(0x40, 0x80)\n      callvalue\n      dup1\n      iszero\n      tag_1\n      jumpi\n      0x00\n      dup1\n      revert\n    tag_1:\n      pop\n      jumpi(tag_2, lt(calldatasize, 0x04))\n      shr(0xe0, calldataload(0x00))\n      dup1\n      0x094455c4\n      eq\n      tag_3\n      jumpi\n      dup1\n      0x2e0dcbf7\n      eq\n      tag_4\n      jumpi\n      dup1\n      0x38789d3a\n      eq\n      tag_5\n      jumpi\n      dup1\n      0x80258e47\n      eq\n      tag_6\n      jumpi\n      dup1\n      0xc2657513\n      eq\n      tag_7\n      jumpi\n      dup1\n      0xc29b2f20\n      eq\n      tag_8\n      jumpi\n    tag_2:\n      0x00\n      dup1\n      revert\n        /* \"contracts/shop.sol\":900:1098  function addProduct(string memory name, uint price, uint quantity, uint category) external {... */\n    tag_3:\n      tag_9\n      0x04\n      dup1\n      calldatasize\n      sub\n      dup2\n      add\n      swap1\n      tag_10\n      swap2\n      swap1\n      tag_11\n      jump\t// in\n    tag_10:\n      tag_12\n      jump\t// in\n    tag_9:\n      stop\n        /* \"contracts/shop.sol\":702:853  function addCategory(string memory category) external {... */\n    tag_4:\n      tag_13\n      0x04\n      dup1\n      calldatasize\n      sub\n      dup2\n      add\n      swap1\n      tag_14\n      swap2\n      swap1\n      tag_15\n      jump\t// in\n    tag_14:\n      tag_16\n      jump\t// in\n    tag_13:\n      stop\n        /* \"contracts/shop.sol\":1125:1707  function addProduct(string memory name, uint price, uint quantity, string memory category) external{... */\n    tag_5:\n      tag_17\n      0x04\n      dup1\n      calldatasize\n      sub\n      dup2\n      add\n      swap1\n      tag_18\n      swap2\n      swap1\n      tag_19\n      jump\t// in\n    tag_18:\n      tag_20\n      jump\t// in\n    tag_17:\n      stop\n        /* \"contracts/shop.sol\":552:654  function getCategory() external view returns(string[] memory){... */\n    tag_6:\n      tag_21\n      tag_22\n      jump\t// in\n    tag_21:\n      mload(0x40)\n      tag_23\n      swap2\n      swap1\n      tag_24\n      jump\t// in\n    tag_23:\n      mload(0x40)\n      dup1\n      swap2\n      sub\n      swap1\n      return\n        /* \"contracts/shop.sol\":2048:2984  function getProducts(string memory category) external view returns(Product[] memory){... */\n    tag_7:\n      tag_25\n      0x04\n      dup1\n      calldatasize\n      sub\n      dup2\n      add\n      swap1\n      tag_26\n      swap2\n      swap1\n      tag_15\n      jump\t// in\n    tag_26:\n      tag_27\n      jump\t// in\n    tag_25:\n      mload(0x40)\n      tag_28\n      swap2\n      swap1\n      tag_29\n      jump\t// in\n    tag_28:\n      mload(0x40)\n      dup1\n      swap2\n      sub\n      swap1\n      return\n        /* \"contracts/shop.sol\":1865:1961  function getProducts() external view returns(Product[] memory){... */\n    tag_8:\n      tag_30\n      tag_31\n      jump\t// in\n    tag_30:\n      mload(0x40)\n      tag_32\n      swap2\n      swap1\n      tag_29\n      jump\t// in\n    tag_32:\n      mload(0x40)\n      dup1\n      swap2\n      sub\n      swap1\n      return\n        /* \"contracts/shop.sol\":900:1098  function addProduct(string memory name, uint price, uint quantity, uint category) external {... */\n    tag_12:\n        /* \"contracts/shop.sol\":1004:1012  products */\n      0x01\n        /* \"contracts/shop.sol\":1018:1079  Product((products.length+1), name, price, quantity, category) */\n      mload(0x40)\n      dup1\n      0xa0\n      add\n      0x40\n      mstore\n      dup1\n        /* \"contracts/shop.sol\":1043:1044  1 */\n      0x01\n        /* \"contracts/shop.sol\":1027:1035  products */\n      dup1\n        /* \"contracts/shop.sol\":1027:1042  products.length */\n      dup1\n      sload\n      swap1\n      pop\n        /* \"contracts/shop.sol\":1027:1044  products.length+1 */\n      tag_34\n      swap2\n      swap1\n      tag_35\n      jump\t// in\n    tag_34:\n        /* \"contracts/shop.sol\":1018:1079  Product((products.length+1), name, price, quantity, category) */\n      dup2\n      mstore\n      0x20\n      add\n        /* \"contracts/shop.sol\":1047:1051  name */\n      dup7\n        /* \"contracts/shop.sol\":1018:1079  Product((products.length+1), name, price, quantity, category) */\n      dup2\n      mstore\n      0x20\n      add\n        /* \"contracts/shop.sol\":1053:1058  price */\n      dup6\n        /* \"contracts/shop.sol\":1018:1079  Product((products.length+1), name, price, quantity, category) */\n      dup2\n      mstore\n      0x20\n      add\n        /* \"contracts/shop.sol\":1060:1068  quantity */\n      dup5\n        /* \"contracts/shop.sol\":1018:1079  Product((products.length+1), name, price, quantity, category) */\n      dup2\n      mstore\n      0x20\n      add\n        /* \"contracts/shop.sol\":1070:1078  category */\n      dup4\n        /* \"contracts/shop.sol\":1018:1079  Product((products.length+1), name, price, quantity, category) */\n      dup2\n      mstore\n      pop\n        /* \"contracts/shop.sol\":1004:1080  products.push(Product((products.length+1), name, price, quantity, category)) */\n      swap1\n      dup1\n      0x01\n      dup2\n      sload\n      add\n      dup1\n      dup3\n      sstore\n      dup1\n      swap2\n      pop\n      pop\n      0x01\n      swap1\n      sub\n      swap1\n      0x00\n      mstore\n      keccak256(0x00, 0x20)\n      swap1\n      0x05\n      mul\n      add\n      0x00\n      swap1\n      swap2\n      swap1\n      swap2\n      swap1\n      swap2\n      pop\n      0x00\n      dup3\n      add\n      mload\n      dup2\n      0x00\n      add\n      sstore\n      0x20\n      dup3\n      add\n      mload\n      dup2\n      0x01\n      add\n      swap1\n      dup2\n      tag_37\n      swap2\n      swap1\n      tag_38\n      jump\t// in\n    tag_37:\n      pop\n      0x40\n      dup3\n      add\n      mload\n      dup2\n      0x02\n      add\n      sstore\n      0x60\n      dup3\n      add\n      mload\n      dup2\n      0x03\n      add\n      sstore\n      0x80\n      dup3\n      add\n      mload\n      dup2\n      0x04\n      add\n      sstore\n      pop\n      pop\n        /* \"contracts/shop.sol\":900:1098  function addProduct(string memory name, uint price, uint quantity, uint category) external {... */\n      pop\n      pop\n      pop\n      pop\n      jump\t// out\n        /* \"contracts/shop.sol\":702:853  function addCategory(string memory category) external {... */\n    tag_16:\n        /* \"contracts/shop.sol\":815:830  productCategory */\n      0x00\n        /* \"contracts/shop.sol\":836:844  category */\n      dup2\n        /* \"contracts/shop.sol\":815:845  productCategory.push(category) */\n      swap1\n      dup1\n      0x01\n      dup2\n      sload\n      add\n      dup1\n      dup3\n      sstore\n      dup1\n      swap2\n      pop\n      pop\n      0x01\n      swap1\n      sub\n      swap1\n      0x00\n      mstore\n      keccak256(0x00, 0x20)\n      add\n      0x00\n      swap1\n      swap2\n      swap1\n      swap2\n      swap1\n      swap2\n      pop\n      swap1\n      dup2\n      tag_41\n      swap2\n      swap1\n      tag_38\n      jump\t// in\n    tag_41:\n      pop\n        /* \"contracts/shop.sol\":702:853  function addCategory(string memory category) external {... */\n      pop\n      jump\t// out\n        /* \"contracts/shop.sol\":1125:1707  function addProduct(string memory name, uint price, uint quantity, string memory category) external{... */\n    tag_20:\n        /* \"contracts/shop.sol\":1278:1292  int idCategory */\n      0x00\n        /* \"contracts/shop.sol\":1295:1297  -1 */\n      0xffffffffffffffffffffffffffffffffffffffffffffffffffffffffffffffff\n        /* \"contracts/shop.sol\":1278:1297  int idCategory = -1 */\n      swap1\n      pop\n        /* \"contracts/shop.sol\":1312:1318  uint i */\n      0x00\n        /* \"contracts/shop.sol\":1308:1552  for(uint i = 0; i < productCategory.length; i++){... */\n    tag_43:\n        /* \"contracts/shop.sol\":1328:1343  productCategory */\n      0x00\n        /* \"contracts/shop.sol\":1328:1350  productCategory.length */\n      dup1\n      sload\n      swap1\n      pop\n        /* \"contracts/shop.sol\":1324:1325  i */\n      dup2\n        /* \"contracts/shop.sol\":1324:1350  i < productCategory.length */\n      lt\n        /* \"contracts/shop.sol\":1308:1552  for(uint i = 0; i < productCategory.length; i++){... */\n      iszero\n      tag_44\n      jumpi\n        /* \"contracts/shop.sol\":1452:1460  category */\n      dup3\n        /* \"contracts/shop.sol\":1435:1461  abi.encodePacked(category) */\n      add(0x20, mload(0x40))\n      tag_46\n      swap2\n      swap1\n      tag_47\n      jump\t// in\n    tag_46:\n      mload(0x40)\n      0x20\n      dup2\n      dup4\n      sub\n      sub\n      dup2\n      mstore\n      swap1\n      0x40\n      mstore\n        /* \"contracts/shop.sol\":1425:1462  keccak256(abi.encodePacked(category)) */\n      dup1\n      mload\n      swap1\n      0x20\n      add\n      keccak256\n        /* \"contracts/shop.sol\":1401:1416  productCategory */\n      0x00\n        /* \"contracts/shop.sol\":1417:1418  i */\n      dup3\n        /* \"contracts/shop.sol\":1401:1419  productCategory[i] */\n      dup2\n      sload\n      dup2\n      lt\n      tag_48\n      jumpi\n      tag_49\n      tag_50\n      jump\t// in\n    tag_49:\n    tag_48:\n      swap1\n      0x00\n      mstore\n      keccak256(0x00, 0x20)\n      add\n        /* \"contracts/shop.sol\":1384:1420  abi.encodePacked(productCategory[i]) */\n      add(0x20, mload(0x40))\n      tag_52\n      swap2\n      swap1\n      tag_53\n      jump\t// in\n    tag_52:\n      mload(0x40)\n      0x20\n      dup2\n      dup4\n      sub\n      sub\n      dup2\n      mstore\n      swap1\n      0x40\n      mstore\n        /* \"contracts/shop.sol\":1374:1421  keccak256(abi.encodePacked(productCategory[i])) */\n      dup1\n      mload\n      swap1\n      0x20\n      add\n      keccak256\n        /* \"contracts/shop.sol\":1374:1462  keccak256(abi.encodePacked(productCategory[i])) == keccak256(abi.encodePacked(category)) */\n      sub\n        /* \"contracts/shop.sol\":1371:1541  if(keccak256(abi.encodePacked(productCategory[i])) == keccak256(abi.encodePacked(category))){... */\n      tag_54\n      jumpi\n        /* \"contracts/shop.sol\":1499:1500  i */\n      dup1\n        /* \"contracts/shop.sol\":1482:1501  idCategory = int(i) */\n      swap2\n      pop\n        /* \"contracts/shop.sol\":1520:1525  break */\n      jump(tag_44)\n        /* \"contracts/shop.sol\":1371:1541  if(keccak256(abi.encodePacked(productCategory[i])) == keccak256(abi.encodePacked(category))){... */\n    tag_54:\n        /* \"contracts/shop.sol\":1352:1355  i++ */\n      dup1\n      dup1\n      tag_55\n      swap1\n      tag_56\n      jump\t// in\n    tag_55:\n      swap2\n      pop\n      pop\n        /* \"contracts/shop.sol\":1308:1552  for(uint i = 0; i < productCategory.length; i++){... */\n      jump(tag_43)\n    tag_44:\n      pop\n        /* \"contracts/shop.sol\":1578:1579  1 */\n      0x01\n        /* \"contracts/shop.sol\":1565:1575  idCategory */\n      dup2\n        /* \"contracts/shop.sol\":1565:1579  idCategory !=1 */\n      eq\n        /* \"contracts/shop.sol\":1562:1690  if(idCategory !=1){... */\n      tag_57\n      jumpi\n        /* \"contracts/shop.sol\":1595:1603  products */\n      0x01\n        /* \"contracts/shop.sol\":1609:1677  Product((products.length +1), name,price,quantity, uint(idCategory)) */\n      mload(0x40)\n      dup1\n      0xa0\n      add\n      0x40\n      mstore\n      dup1\n        /* \"contracts/shop.sol\":1635:1636  1 */\n      0x01\n        /* \"contracts/shop.sol\":1618:1626  products */\n      dup1\n        /* \"contracts/shop.sol\":1618:1633  products.length */\n      dup1\n      sload\n      swap1\n      pop\n        /* \"contracts/shop.sol\":1618:1636  products.length +1 */\n      tag_58\n      swap2\n      swap1\n      tag_35\n      jump\t// in\n    tag_58:\n        /* \"contracts/shop.sol\":1609:1677  Product((products.length +1), name,price,quantity, uint(idCategory)) */\n      dup2\n      mstore\n      0x20\n      add\n        /* \"contracts/shop.sol\":1639:1643  name */\n      dup8\n        /* \"contracts/shop.sol\":1609:1677  Product((products.length +1), name,price,quantity, uint(idCategory)) */\n      dup2\n      mstore\n      0x20\n      add\n        /* \"contracts/shop.sol\":1644:1649  price */\n      dup7\n        /* \"contracts/shop.sol\":1609:1677  Product((products.length +1), name,price,quantity, uint(idCategory)) */\n      dup2\n      mstore\n      0x20\n      add\n        /* \"contracts/shop.sol\":1650:1658  quantity */\n      dup6\n        /* \"contracts/shop.sol\":1609:1677  Product((products.length +1), name,price,quantity, uint(idCategory)) */\n      dup2\n      mstore\n      0x20\n      add\n        /* \"contracts/shop.sol\":1665:1675  idCategory */\n      dup4\n        /* \"contracts/shop.sol\":1609:1677  Product((products.length +1), name,price,quantity, uint(idCategory)) */\n      dup2\n      mstore\n      pop\n        /* \"contracts/shop.sol\":1595:1678  products.push(Product((products.length +1), name,price,quantity, uint(idCategory))) */\n      swap1\n      dup1\n      0x01\n      dup2\n      sload\n      add\n      dup1\n      dup3\n      sstore\n      dup1\n      swap2\n      pop\n      pop\n      0x01\n      swap1\n      sub\n      swap1\n      0x00\n      mstore\n      keccak256(0x00, 0x20)\n      swap1\n      0x05\n      mul\n      add\n      0x00\n      swap1\n      swap2\n      swap1\n      swap2\n      swap1\n      swap2\n      pop\n      0x00\n      dup3\n      add\n      mload\n      dup2\n      0x00\n      add\n      sstore\n      0x20\n      dup3\n      add\n      mload\n      dup2\n      0x01\n      add\n      swap1\n      dup2\n      tag_60\n      swap2\n      swap1\n      tag_38\n      jump\t// in\n    tag_60:\n      pop\n      0x40\n      dup3\n      add\n      mload\n      dup2\n      0x02\n      add\n      sstore\n      0x60\n      dup3\n      add\n      mload\n      dup2\n      0x03\n      add\n      sstore\n      0x80\n      dup3\n      add\n      mload\n      dup2\n      0x04\n      add\n      sstore\n      pop\n      pop\n        /* \"contracts/shop.sol\":1562:1690  if(idCategory !=1){... */\n    tag_57:\n        /* \"contracts/shop.sol\":1224:1707  {... */\n      pop\n        /* \"contracts/shop.sol\":1125:1707  function addProduct(string memory name, uint price, uint quantity, string memory category) external{... */\n      pop\n      pop\n      pop\n      pop\n      jump\t// out\n        /* \"contracts/shop.sol\":552:654  function getCategory() external view returns(string[] memory){... */\n    tag_22:\n        /* \"contracts/shop.sol\":597:612  string[] memory */\n      0x60\n        /* \"contracts/shop.sol\":631:646  productCategory */\n      0x00\n        /* \"contracts/shop.sol\":624:646  return productCategory */\n      dup1\n      sload\n      dup1\n      0x20\n      mul\n      0x20\n      add\n      mload(0x40)\n      swap1\n      dup2\n      add\n      0x40\n      mstore\n      dup1\n      swap3\n      swap2\n      swap1\n      dup2\n      dup2\n      mstore\n      0x20\n      add\n      0x00\n      swap1\n    tag_62:\n      dup3\n      dup3\n      lt\n      iszero\n      tag_63\n      jumpi\n      dup4\n      dup3\n      swap1\n      0x00\n      mstore\n      keccak256(0x00, 0x20)\n      add\n      dup1\n      sload\n      tag_65\n      swap1\n      tag_66\n      jump\t// in\n    tag_65:\n      dup1\n      0x1f\n      add\n      0x20\n      dup1\n      swap2\n      div\n      mul\n      0x20\n      add\n      mload(0x40)\n      swap1\n      dup2\n      add\n      0x40\n      mstore\n      dup1\n      swap3\n      swap2\n      swap1\n      dup2\n      dup2\n      mstore\n      0x20\n      add\n      dup3\n      dup1\n      sload\n      tag_67\n      swap1\n      tag_66\n      jump\t// in\n    tag_67:\n      dup1\n      iszero\n      tag_68\n      jumpi\n      dup1\n      0x1f\n      lt\n      tag_69\n      jumpi\n      0x0100\n      dup1\n      dup4\n      sload\n      div\n      mul\n      dup4\n      mstore\n      swap2\n      0x20\n      add\n      swap2\n      jump(tag_68)\n    tag_69:\n      dup3\n      add\n      swap2\n      swap1\n      0x00\n      mstore\n      keccak256(0x00, 0x20)\n      swap1\n    tag_70:\n      dup2\n      sload\n      dup2\n      mstore\n      swap1\n      0x01\n      add\n      swap1\n      0x20\n      add\n      dup1\n      dup4\n      gt\n      tag_70\n      jumpi\n      dup3\n      swap1\n      sub\n      0x1f\n      and\n      dup3\n      add\n      swap2\n    tag_68:\n      pop\n      pop\n      pop\n      pop\n      pop\n      dup2\n      mstore\n      0x20\n      add\n      swap1\n      0x01\n      add\n      swap1\n      jump(tag_62)\n    tag_63:\n      pop\n      pop\n      pop\n      pop\n      swap1\n      pop\n        /* \"contracts/shop.sol\":552:654  function getCategory() external view returns(string[] memory){... */\n      swap1\n      jump\t// out\n        /* \"contracts/shop.sol\":2048:2984  function getProducts(string memory category) external view returns(Product[] memory){... */\n    tag_27:\n        /* \"contracts/shop.sol\":2115:2131  Product[] memory */\n      0x60\n        /* \"contracts/shop.sol\":2197:2217  abi.encodePacked(\"\") */\n      add(0x20, mload(0x40))\n      tag_72\n      swap1\n      tag_73\n      jump\t// in\n    tag_72:\n      mload(0x40)\n      0x20\n      dup2\n      dup4\n      sub\n      sub\n      dup2\n      mstore\n      swap1\n      0x40\n      mstore\n        /* \"contracts/shop.sol\":2187:2218  keccak256(abi.encodePacked(\"\")) */\n      dup1\n      mload\n      swap1\n      0x20\n      add\n      keccak256\n        /* \"contracts/shop.sol\":2173:2181  category */\n      dup3\n        /* \"contracts/shop.sol\":2156:2182  abi.encodePacked(category) */\n      add(0x20, mload(0x40))\n      tag_74\n      swap2\n      swap1\n      tag_47\n      jump\t// in\n    tag_74:\n      mload(0x40)\n      0x20\n      dup2\n      dup4\n      sub\n      sub\n      dup2\n      mstore\n      swap1\n      0x40\n      mstore\n        /* \"contracts/shop.sol\":2146:2183  keccak256(abi.encodePacked(category)) */\n      dup1\n      mload\n      swap1\n      0x20\n      add\n      keccak256\n        /* \"contracts/shop.sol\":2146:2218  keccak256(abi.encodePacked(category)) == keccak256(abi.encodePacked(\"\")) */\n      sub\n        /* \"contracts/shop.sol\":2143:2261  if(keccak256(abi.encodePacked(category)) == keccak256(abi.encodePacked(\"\"))){... */\n      tag_75\n      jumpi\n        /* \"contracts/shop.sol\":2241:2249  products */\n      0x01\n        /* \"contracts/shop.sol\":2234:2249  return products */\n      dup1\n      sload\n      dup1\n      0x20\n      mul\n      0x20\n      add\n      mload(0x40)\n      swap1\n      dup2\n      add\n      0x40\n      mstore\n      dup1\n      swap3\n      swap2\n      swap1\n      dup2\n      dup2\n      mstore\n      0x20\n      add\n      0x00\n      swap1\n    tag_76:\n      dup3\n      dup3\n      lt\n      iszero\n      tag_77\n      jumpi\n      dup4\n      dup3\n      swap1\n      0x00\n      mstore\n      keccak256(0x00, 0x20)\n      swap1\n      0x05\n      mul\n      add\n      mload(0x40)\n      dup1\n      0xa0\n      add\n      0x40\n      mstore\n      swap1\n      dup2\n      0x00\n      dup3\n      add\n      sload\n      dup2\n      mstore\n      0x20\n      add\n      0x01\n      dup3\n      add\n      dup1\n      sload\n      tag_79\n      swap1\n      tag_66\n      jump\t// in\n    tag_79:\n      dup1\n      0x1f\n      add\n      0x20\n      dup1\n      swap2\n      div\n      mul\n      0x20\n      add\n      mload(0x40)\n      swap1\n      dup2\n      add\n      0x40\n      mstore\n      dup1\n      swap3\n      swap2\n      swap1\n      dup2\n      dup2\n      mstore\n      0x20\n      add\n      dup3\n      dup1\n      sload\n      tag_80\n      swap1\n      tag_66\n      jump\t// in\n    tag_80:\n      dup1\n      iszero\n      tag_81\n      jumpi\n      dup1\n      0x1f\n      lt\n      tag_82\n      jumpi\n      0x0100\n      dup1\n      dup4\n      sload\n      div\n      mul\n      dup4\n      mstore\n      swap2\n      0x20\n      add\n      swap2\n      jump(tag_81)\n    tag_82:\n      dup3\n      add\n      swap2\n      swap1\n      0x00\n      mstore\n      keccak256(0x00, 0x20)\n      swap1\n    tag_83:\n      dup2\n      sload\n      dup2\n      mstore\n      swap1\n      0x01\n      add\n      swap1\n      0x20\n      add\n      dup1\n      dup4\n      gt\n      tag_83\n      jumpi\n      dup3\n      swap1\n      sub\n      0x1f\n      and\n      dup3\n      add\n      swap2\n    tag_81:\n      pop\n      pop\n      pop\n      pop\n      pop\n      dup2\n      mstore\n      0x20\n      add\n      0x02\n      dup3\n      add\n      sload\n      dup2\n      mstore\n      0x20\n      add\n      0x03\n      dup3\n      add\n      sload\n      dup2\n      mstore\n      0x20\n      add\n      0x04\n      dup3\n      add\n      sload\n      dup2\n      mstore\n      pop\n      pop\n      dup2\n      mstore\n      0x20\n      add\n      swap1\n      0x01\n      add\n      swap1\n      jump(tag_76)\n    tag_77:\n      pop\n      pop\n      pop\n      pop\n      swap1\n      pop\n      jump(tag_71)\n        /* \"contracts/shop.sol\":2143:2261  if(keccak256(abi.encodePacked(category)) == keccak256(abi.encodePacked(\"\"))){... */\n    tag_75:\n        /* \"contracts/shop.sol\":2273:2296  Product[] memory result */\n      0x00\n        /* \"contracts/shop.sol\":2313:2321  products */\n      0x01\n        /* \"contracts/shop.sol\":2313:2328  products.length */\n      dup1\n      sload\n      swap1\n      pop\n        /* \"contracts/shop.sol\":2299:2329  new Product[](products.length) */\n      0xffffffffffffffff\n      dup2\n      gt\n      iszero\n      tag_84\n      jumpi\n      tag_85\n      tag_86\n      jump\t// in\n    tag_85:\n    tag_84:\n      mload(0x40)\n      swap1\n      dup1\n      dup3\n      mstore\n      dup1\n      0x20\n      mul\n      0x20\n      add\n      dup3\n      add\n      0x40\n      mstore\n      dup1\n      iszero\n      tag_87\n      jumpi\n      dup2\n      0x20\n      add\n    tag_88:\n      tag_89\n      tag_90\n      jump\t// in\n    tag_89:\n      dup2\n      mstore\n      0x20\n      add\n      swap1\n      0x01\n      swap1\n      sub\n      swap1\n      dup2\n      tag_88\n      jumpi\n      swap1\n      pop\n    tag_87:\n      pop\n        /* \"contracts/shop.sol\":2273:2329  Product[] memory result = new Product[](products.length) */\n      swap1\n      pop\n        /* \"contracts/shop.sol\":2375:2389  int idCategory */\n      0x00\n        /* \"contracts/shop.sol\":2392:2394  -1 */\n      0xffffffffffffffffffffffffffffffffffffffffffffffffffffffffffffffff\n        /* \"contracts/shop.sol\":2375:2394  int idCategory = -1 */\n      swap1\n      pop\n        /* \"contracts/shop.sol\":2409:2415  uint i */\n      0x00\n        /* \"contracts/shop.sol\":2405:2649  for(uint i = 0; i < productCategory.length; i++){... */\n    tag_91:\n        /* \"contracts/shop.sol\":2425:2440  productCategory */\n      0x00\n        /* \"contracts/shop.sol\":2425:2447  productCategory.length */\n      dup1\n      sload\n      swap1\n      pop\n        /* \"contracts/shop.sol\":2421:2422  i */\n      dup2\n        /* \"contracts/shop.sol\":2421:2447  i < productCategory.length */\n      lt\n        /* \"contracts/shop.sol\":2405:2649  for(uint i = 0; i < productCategory.length; i++){... */\n      iszero\n      tag_92\n      jumpi\n        /* \"contracts/shop.sol\":2549:2557  category */\n      dup5\n        /* \"contracts/shop.sol\":2532:2558  abi.encodePacked(category) */\n      add(0x20, mload(0x40))\n      tag_94\n      swap2\n      swap1\n      tag_47\n      jump\t// in\n    tag_94:\n      mload(0x40)\n      0x20\n      dup2\n      dup4\n      sub\n      sub\n      dup2\n      mstore\n      swap1\n      0x40\n      mstore\n        /* \"contracts/shop.sol\":2522:2559  keccak256(abi.encodePacked(category)) */\n      dup1\n      mload\n      swap1\n      0x20\n      add\n      keccak256\n        /* \"contracts/shop.sol\":2498:2513  productCategory */\n      0x00\n        /* \"contracts/shop.sol\":2514:2515  i */\n      dup3\n        /* \"contracts/shop.sol\":2498:2516  productCategory[i] */\n      dup2\n      sload\n      dup2\n      lt\n      tag_95\n      jumpi\n      tag_96\n      tag_50\n      jump\t// in\n    tag_96:\n    tag_95:\n      swap1\n      0x00\n      mstore\n      keccak256(0x00, 0x20)\n      add\n        /* \"contracts/shop.sol\":2481:2517  abi.encodePacked(productCategory[i]) */\n      add(0x20, mload(0x40))\n      tag_98\n      swap2\n      swap1\n      tag_53\n      jump\t// in\n    tag_98:\n      mload(0x40)\n      0x20\n      dup2\n      dup4\n      sub\n      sub\n      dup2\n      mstore\n      swap1\n      0x40\n      mstore\n        /* \"contracts/shop.sol\":2471:2518  keccak256(abi.encodePacked(productCategory[i])) */\n      dup1\n      mload\n      swap1\n      0x20\n      add\n      keccak256\n        /* \"contracts/shop.sol\":2471:2559  keccak256(abi.encodePacked(productCategory[i])) == keccak256(abi.encodePacked(category)) */\n      sub\n        /* \"contracts/shop.sol\":2468:2638  if(keccak256(abi.encodePacked(productCategory[i])) == keccak256(abi.encodePacked(category))){... */\n      tag_99\n      jumpi\n        /* \"contracts/shop.sol\":2596:2597  i */\n      dup1\n        /* \"contracts/shop.sol\":2579:2598  idCategory = int(i) */\n      swap2\n      pop\n        /* \"contracts/shop.sol\":2617:2622  break */\n      jump(tag_92)\n        /* \"contracts/shop.sol\":2468:2638  if(keccak256(abi.encodePacked(productCategory[i])) == keccak256(abi.encodePacked(category))){... */\n    tag_99:\n        /* \"contracts/shop.sol\":2449:2452  i++ */\n      dup1\n      dup1\n      tag_100\n      swap1\n      tag_56\n      jump\t// in\n    tag_100:\n      swap2\n      pop\n      pop\n        /* \"contracts/shop.sol\":2405:2649  for(uint i = 0; i < productCategory.length; i++){... */\n      jump(tag_91)\n    tag_92:\n      pop\n        /* \"contracts/shop.sol\":2676:2678  -1 */\n      0xffffffffffffffffffffffffffffffffffffffffffffffffffffffffffffffff\n        /* \"contracts/shop.sol\":2662:2672  idCategory */\n      dup2\n        /* \"contracts/shop.sol\":2662:2678  idCategory == -1 */\n      sub\n        /* \"contracts/shop.sol\":2659:2706  if(idCategory == -1)... */\n      tag_101\n      jumpi\n        /* \"contracts/shop.sol\":2700:2706  result */\n      dup2\n        /* \"contracts/shop.sol\":2693:2706  return result */\n      swap3\n      pop\n      pop\n      pop\n      jump(tag_71)\n        /* \"contracts/shop.sol\":2659:2706  if(idCategory == -1)... */\n    tag_101:\n        /* \"contracts/shop.sol\":2727:2737  uint index */\n      0x00\n        /* \"contracts/shop.sol\":2756:2762  uint i */\n      dup1\n        /* \"contracts/shop.sol\":2752:2953  for(uint i = 0; i < products.length; i++){... */\n    tag_102:\n        /* \"contracts/shop.sol\":2772:2780  products */\n      0x01\n        /* \"contracts/shop.sol\":2772:2787  products.length */\n      dup1\n      sload\n      swap1\n      pop\n        /* \"contracts/shop.sol\":2768:2769  i */\n      dup2\n        /* \"contracts/shop.sol\":2768:2787  i < products.length */\n      lt\n        /* \"contracts/shop.sol\":2752:2953  for(uint i = 0; i < products.length; i++){... */\n      iszero\n      tag_103\n      jumpi\n        /* \"contracts/shop.sol\":2840:2850  idCategory */\n      dup3\n        /* \"contracts/shop.sol\":2811:2819  products */\n      0x01\n        /* \"contracts/shop.sol\":2820:2821  i */\n      dup3\n        /* \"contracts/shop.sol\":2811:2822  products[i] */\n      dup2\n      sload\n      dup2\n      lt\n      tag_105\n      jumpi\n      tag_106\n      tag_50\n      jump\t// in\n    tag_106:\n    tag_105:\n      swap1\n      0x00\n      mstore\n      keccak256(0x00, 0x20)\n      swap1\n      0x05\n      mul\n      add\n        /* \"contracts/shop.sol\":2811:2831  products[i].category */\n      0x04\n      add\n      sload\n        /* \"contracts/shop.sol\":2811:2851  products[i].category == uint(idCategory) */\n      sub\n        /* \"contracts/shop.sol\":2808:2942  if(products[i].category == uint(idCategory)){... */\n      tag_108\n      jumpi\n        /* \"contracts/shop.sol\":2889:2897  products */\n      0x01\n        /* \"contracts/shop.sol\":2898:2899  i */\n      dup2\n        /* \"contracts/shop.sol\":2889:2900  products[i] */\n      dup2\n      sload\n      dup2\n      lt\n      tag_109\n      jumpi\n      tag_110\n      tag_50\n      jump\t// in\n    tag_110:\n    tag_109:\n      swap1\n      0x00\n      mstore\n      keccak256(0x00, 0x20)\n      swap1\n      0x05\n      mul\n      add\n        /* \"contracts/shop.sol\":2873:2900  result[index] = products[i] */\n      mload(0x40)\n      dup1\n      0xa0\n      add\n      0x40\n      mstore\n      swap1\n      dup2\n      0x00\n      dup3\n      add\n      sload\n      dup2\n      mstore\n      0x20\n      add\n      0x01\n      dup3\n      add\n      dup1\n      sload\n      tag_112\n      swap1\n      tag_66\n      jump\t// in\n    tag_112:\n      dup1\n      0x1f\n      add\n      0x20\n      dup1\n      swap2\n      div\n      mul\n      0x20\n      add\n      mload(0x40)\n      swap1\n      dup2\n      add\n      0x40\n      mstore\n      dup1\n      swap3\n      swap2\n      swap1\n      dup2\n      dup2\n      mstore\n      0x20\n      add\n      dup3\n      dup1\n      sload\n      tag_113\n      swap1\n      tag_66\n      jump\t// in\n    tag_113:\n      dup1\n      iszero\n      tag_114\n      jumpi\n      dup1\n      0x1f\n      lt\n      tag_115\n      jumpi\n      0x0100\n      dup1\n      dup4\n      sload\n      div\n      mul\n      dup4\n      mstore\n      swap2\n      0x20\n      add\n      swap2\n      jump(tag_114)\n    tag_115:\n      dup3\n      add\n      swap2\n      swap1\n      0x00\n      mstore\n      keccak256(0x00, 0x20)\n      swap1\n    tag_116:\n      dup2\n      sload\n      dup2\n      mstore\n      swap1\n      0x01\n      add\n      swap1\n      0x20\n      add\n      dup1\n      dup4\n      gt\n      tag_116\n      jumpi\n      dup3\n      swap1\n      sub\n      0x1f\n      and\n      dup3\n      add\n      swap2\n    tag_114:\n      pop\n      pop\n      pop\n      pop\n      pop\n      dup2\n      mstore\n      0x20\n      add\n      0x02\n      dup3\n      add\n      sload\n      dup2\n      mstore\n      0x20\n      add\n      0x03\n      dup3\n      add\n      sload\n      dup2\n      mstore\n      0x20\n      add\n      0x04\n      dup3\n      add\n      sload\n      dup2\n      mstore\n      pop\n      pop\n        /* \"contracts/shop.sol\":2873:2879  result */\n      dup5\n        /* \"contracts/shop.sol\":2880:2885  index */\n      dup4\n        /* \"contracts/shop.sol\":2873:2886  result[index] */\n      dup2\n      mload\n      dup2\n      lt\n      tag_117\n      jumpi\n      tag_118\n      tag_50\n      jump\t// in\n    tag_118:\n    tag_117:\n      0x20\n      mul\n      0x20\n      add\n      add\n        /* \"contracts/shop.sol\":2873:2900  result[index] = products[i] */\n      dup2\n      swap1\n      mstore\n      pop\n        /* \"contracts/shop.sol\":2919:2926  index++ */\n      dup2\n      dup1\n      tag_119\n      swap1\n      tag_56\n      jump\t// in\n    tag_119:\n      swap3\n      pop\n      pop\n        /* \"contracts/shop.sol\":2808:2942  if(products[i].category == uint(idCategory)){... */\n    tag_108:\n        /* \"contracts/shop.sol\":2789:2792  i++ */\n      dup1\n      dup1\n      tag_120\n      swap1\n      tag_56\n      jump\t// in\n    tag_120:\n      swap2\n      pop\n      pop\n        /* \"contracts/shop.sol\":2752:2953  for(uint i = 0; i < products.length; i++){... */\n      jump(tag_102)\n    tag_103:\n      pop\n        /* \"contracts/shop.sol\":2970:2976  result */\n      dup3\n        /* \"contracts/shop.sol\":2963:2976  return result */\n      swap4\n      pop\n      pop\n      pop\n      pop\n        /* \"contracts/shop.sol\":2048:2984  function getProducts(string memory category) external view returns(Product[] memory){... */\n    tag_71:\n      swap2\n      swap1\n      pop\n      jump\t// out\n        /* \"contracts/shop.sol\":1865:1961  function getProducts() external view returns(Product[] memory){... */\n    tag_31:\n        /* \"contracts/shop.sol\":1910:1926  Product[] memory */\n      0x60\n        /* \"contracts/shop.sol\":1945:1953  products */\n      0x01\n        /* \"contracts/shop.sol\":1938:1953  return products */\n      dup1\n      sload\n      dup1\n      0x20\n      mul\n      0x20\n      add\n      mload(0x40)\n      swap1\n      dup2\n      add\n      0x40\n      mstore\n      dup1\n      swap3\n      swap2\n      swap1\n      dup2\n      dup2\n      mstore\n      0x20\n      add\n      0x00\n      swap1\n    tag_122:\n      dup3\n      dup3\n      lt\n      iszero\n      tag_123\n      jumpi\n      dup4\n      dup3\n      swap1\n      0x00\n      mstore\n      keccak256(0x00, 0x20)\n      swap1\n      0x05\n      mul\n      add\n      mload(0x40)\n      dup1\n      0xa0\n      add\n      0x40\n      mstore\n      swap1\n      dup2\n      0x00\n      dup3\n      add\n      sload\n      dup2\n      mstore\n      0x20\n      add\n      0x01\n      dup3\n      add\n      dup1\n      sload\n      tag_125\n      swap1\n      tag_66\n      jump\t// in\n    tag_125:\n      dup1\n      0x1f\n      add\n      0x20\n      dup1\n      swap2\n      div\n      mul\n      0x20\n      add\n      mload(0x40)\n      swap1\n      dup2\n      add\n      0x40\n      mstore\n      dup1\n      swap3\n      swap2\n      swap1\n      dup2\n      dup2\n      mstore\n      0x20\n      add\n      dup3\n      dup1\n      sload\n      tag_126\n      swap1\n      tag_66\n      jump\t// in\n    tag_126:\n      dup1\n      iszero\n      tag_127\n      jumpi\n      dup1\n      0x1f\n      lt\n      tag_128\n      jumpi\n      0x0100\n      dup1\n      dup4\n      sload\n      div\n      mul\n      dup4\n      mstore\n      swap2\n      0x20\n      add\n      swap2\n      jump(tag_127)\n    tag_128:\n      dup3\n      add\n      swap2\n      swap1\n      0x00\n      mstore\n      keccak256(0x00, 0x20)\n      swap1\n    tag_129:\n      dup2\n      sload\n      dup2\n      mstore\n      swap1\n      0x01\n      add\n      swap1\n      0x20\n      add\n      dup1\n      dup4\n      gt\n      tag_129\n      jumpi\n      dup3\n      swap1\n      sub\n      0x1f\n      and\n      dup3\n      add\n      swap2\n    tag_127:\n      pop\n      pop\n      pop\n      pop\n      pop\n      dup2\n      mstore\n      0x20\n      add\n      0x02\n      dup3\n      add\n      sload\n      dup2\n      mstore\n      0x20\n      add\n      0x03\n      dup3\n      add\n      sload\n      dup2\n      mstore\n      0x20\n      add\n      0x04\n      dup3\n      add\n      sload\n      dup2\n      mstore\n      pop\n      pop\n      dup2\n      mstore\n      0x20\n      add\n      swap1\n      0x01\n      add\n      swap1\n      jump(tag_122)\n    tag_123:\n      pop\n      pop\n      pop\n      pop\n      swap1\n      pop\n        /* \"contracts/shop.sol\":1865:1961  function getProducts() external view returns(Product[] memory){... */\n      swap1\n      jump\t// out\n    tag_90:\n      mload(0x40)\n      dup1\n      0xa0\n      add\n      0x40\n      mstore\n      dup1\n      0x00\n      dup2\n      mstore\n      0x20\n      add\n      0x60\n      dup2\n      mstore\n      0x20\n      add\n      0x00\n      dup2\n      mstore\n      0x20\n      add\n      0x00\n      dup2\n      mstore\n      0x20\n      add\n      0x00\n      dup2\n      mstore\n      pop\n      swap1\n      jump\t// out\n        /* \"#utility.yul\":7:82   */\n    tag_130:\n        /* \"#utility.yul\":40:46   */\n      0x00\n        /* \"#utility.yul\":73:75   */\n      0x40\n        /* \"#utility.yul\":67:76   */\n      mload\n        /* \"#utility.yul\":57:76   */\n      swap1\n      pop\n        /* \"#utility.yul\":7:82   */\n      swap1\n      jump\t// out\n        /* \"#utility.yul\":88:205   */\n    tag_131:\n        /* \"#utility.yul\":197:198   */\n      0x00\n        /* \"#utility.yul\":194:195   */\n      dup1\n        /* \"#utility.yul\":187:199   */\n      revert\n        /* \"#utility.yul\":211:328   */\n    tag_132:\n        /* \"#utility.yul\":320:321   */\n      0x00\n        /* \"#utility.yul\":317:318   */\n      dup1\n        /* \"#utility.yul\":310:322   */\n      revert\n        /* \"#utility.yul\":334:451   */\n    tag_133:\n        /* \"#utility.yul\":443:444   */\n      0x00\n        /* \"#utility.yul\":440:441   */\n      dup1\n        /* \"#utility.yul\":433:445   */\n      revert\n        /* \"#utility.yul\":457:574   */\n    tag_134:\n        /* \"#utility.yul\":566:567   */\n      0x00\n        /* \"#utility.yul\":563:564   */\n      dup1\n        /* \"#utility.yul\":556:568   */\n      revert\n        /* \"#utility.yul\":580:682   */\n    tag_135:\n        /* \"#utility.yul\":621:627   */\n      0x00\n        /* \"#utility.yul\":672:674   */\n      0x1f\n        /* \"#utility.yul\":668:675   */\n      not\n        /* \"#utility.yul\":663:665   */\n      0x1f\n        /* \"#utility.yul\":656:661   */\n      dup4\n        /* \"#utility.yul\":652:666   */\n      add\n        /* \"#utility.yul\":648:676   */\n      and\n        /* \"#utility.yul\":638:676   */\n      swap1\n      pop\n        /* \"#utility.yul\":580:682   */\n      swap2\n      swap1\n      pop\n      jump\t// out\n        /* \"#utility.yul\":688:868   */\n    tag_86:\n        /* \"#utility.yul\":736:813   */\n      0x4e487b7100000000000000000000000000000000000000000000000000000000\n        /* \"#utility.yul\":733:734   */\n      0x00\n        /* \"#utility.yul\":726:814   */\n      mstore\n        /* \"#utility.yul\":833:837   */\n      0x41\n        /* \"#utility.yul\":830:831   */\n      0x04\n        /* \"#utility.yul\":823:838   */\n      mstore\n        /* \"#utility.yul\":857:861   */\n      0x24\n        /* \"#utility.yul\":854:855   */\n      0x00\n        /* \"#utility.yul\":847:862   */\n      revert\n        /* \"#utility.yul\":874:1155   */\n    tag_136:\n        /* \"#utility.yul\":957:984   */\n      tag_194\n        /* \"#utility.yul\":979:983   */\n      dup3\n        /* \"#utility.yul\":957:984   */\n      tag_135\n      jump\t// in\n    tag_194:\n        /* \"#utility.yul\":949:955   */\n      dup2\n        /* \"#utility.yul\":945:985   */\n      add\n        /* \"#utility.yul\":1087:1093   */\n      dup2\n        /* \"#utility.yul\":1075:1085   */\n      dup2\n        /* \"#utility.yul\":1072:1094   */\n      lt\n        /* \"#utility.yul\":1051:1069   */\n      0xffffffffffffffff\n        /* \"#utility.yul\":1039:1049   */\n      dup3\n        /* \"#utility.yul\":1036:1070   */\n      gt\n        /* \"#utility.yul\":1033:1095   */\n      or\n        /* \"#utility.yul\":1030:1118   */\n      iszero\n      tag_195\n      jumpi\n        /* \"#utility.yul\":1098:1116   */\n      tag_196\n      tag_86\n      jump\t// in\n    tag_196:\n        /* \"#utility.yul\":1030:1118   */\n    tag_195:\n        /* \"#utility.yul\":1138:1148   */\n      dup1\n        /* \"#utility.yul\":1134:1136   */\n      0x40\n        /* \"#utility.yul\":1127:1149   */\n      mstore\n        /* \"#utility.yul\":917:1155   */\n      pop\n        /* \"#utility.yul\":874:1155   */\n      pop\n      pop\n      jump\t// out\n        /* \"#utility.yul\":1161:1290   */\n    tag_137:\n        /* \"#utility.yul\":1195:1201   */\n      0x00\n        /* \"#utility.yul\":1222:1242   */\n      tag_198\n      tag_130\n      jump\t// in\n    tag_198:\n        /* \"#utility.yul\":1212:1242   */\n      swap1\n      pop\n        /* \"#utility.yul\":1251:1284   */\n      tag_199\n        /* \"#utility.yul\":1279:1283   */\n      dup3\n        /* \"#utility.yul\":1271:1277   */\n      dup3\n        /* \"#utility.yul\":1251:1284   */\n      tag_136\n      jump\t// in\n    tag_199:\n        /* \"#utility.yul\":1161:1290   */\n      swap2\n      swap1\n      pop\n      jump\t// out\n        /* \"#utility.yul\":1296:1604   */\n    tag_138:\n        /* \"#utility.yul\":1358:1362   */\n      0x00\n        /* \"#utility.yul\":1448:1466   */\n      0xffffffffffffffff\n        /* \"#utility.yul\":1440:1446   */\n      dup3\n        /* \"#utility.yul\":1437:1467   */\n      gt\n        /* \"#utility.yul\":1434:1490   */\n      iszero\n      tag_201\n      jumpi\n        /* \"#utility.yul\":1470:1488   */\n      tag_202\n      tag_86\n      jump\t// in\n    tag_202:\n        /* \"#utility.yul\":1434:1490   */\n    tag_201:\n        /* \"#utility.yul\":1508:1537   */\n      tag_203\n        /* \"#utility.yul\":1530:1536   */\n      dup3\n        /* \"#utility.yul\":1508:1537   */\n      tag_135\n      jump\t// in\n    tag_203:\n        /* \"#utility.yul\":1500:1537   */\n      swap1\n      pop\n        /* \"#utility.yul\":1592:1596   */\n      0x20\n        /* \"#utility.yul\":1586:1590   */\n      dup2\n        /* \"#utility.yul\":1582:1597   */\n      add\n        /* \"#utility.yul\":1574:1597   */\n      swap1\n      pop\n        /* \"#utility.yul\":1296:1604   */\n      swap2\n      swap1\n      pop\n      jump\t// out\n        /* \"#utility.yul\":1610:1756   */\n    tag_139:\n        /* \"#utility.yul\":1707:1713   */\n      dup3\n        /* \"#utility.yul\":1702:1705   */\n      dup2\n        /* \"#utility.yul\":1697:1700   */\n      dup4\n        /* \"#utility.yul\":1684:1714   */\n      calldatacopy\n        /* \"#utility.yul\":1748:1749   */\n      0x00\n        /* \"#utility.yul\":1739:1745   */\n      dup4\n        /* \"#utility.yul\":1734:1737   */\n      dup4\n        /* \"#utility.yul\":1730:1746   */\n      add\n        /* \"#utility.yul\":1723:1750   */\n      mstore\n        /* \"#utility.yul\":1610:1756   */\n      pop\n      pop\n      pop\n      jump\t// out\n        /* \"#utility.yul\":1762:2187   */\n    tag_140:\n        /* \"#utility.yul\":1840:1845   */\n      0x00\n        /* \"#utility.yul\":1865:1931   */\n      tag_206\n        /* \"#utility.yul\":1881:1930   */\n      tag_207\n        /* \"#utility.yul\":1923:1929   */\n      dup5\n        /* \"#utility.yul\":1881:1930   */\n      tag_138\n      jump\t// in\n    tag_207:\n        /* \"#utility.yul\":1865:1931   */\n      tag_137\n      jump\t// in\n    tag_206:\n        /* \"#utility.yul\":1856:1931   */\n      swap1\n      pop\n        /* \"#utility.yul\":1954:1960   */\n      dup3\n        /* \"#utility.yul\":1947:1952   */\n      dup2\n        /* \"#utility.yul\":1940:1961   */\n      mstore\n        /* \"#utility.yul\":1992:1996   */\n      0x20\n        /* \"#utility.yul\":1985:1990   */\n      dup2\n        /* \"#utility.yul\":1981:1997   */\n      add\n        /* \"#utility.yul\":2030:2033   */\n      dup5\n        /* \"#utility.yul\":2021:2027   */\n      dup5\n        /* \"#utility.yul\":2016:2019   */\n      dup5\n        /* \"#utility.yul\":2012:2028   */\n      add\n        /* \"#utility.yul\":2009:2034   */\n      gt\n        /* \"#utility.yul\":2006:2118   */\n      iszero\n      tag_208\n      jumpi\n        /* \"#utility.yul\":2037:2116   */\n      tag_209\n      tag_134\n      jump\t// in\n    tag_209:\n        /* \"#utility.yul\":2006:2118   */\n    tag_208:\n        /* \"#utility.yul\":2127:2181   */\n      tag_210\n        /* \"#utility.yul\":2174:2180   */\n      dup5\n        /* \"#utility.yul\":2169:2172   */\n      dup3\n        /* \"#utility.yul\":2164:2167   */\n      dup6\n        /* \"#utility.yul\":2127:2181   */\n      tag_139\n      jump\t// in\n    tag_210:\n        /* \"#utility.yul\":1846:2187   */\n      pop\n        /* \"#utility.yul\":1762:2187   */\n      swap4\n      swap3\n      pop\n      pop\n      pop\n      jump\t// out\n        /* \"#utility.yul\":2207:2547   */\n    tag_141:\n        /* \"#utility.yul\":2263:2268   */\n      0x00\n        /* \"#utility.yul\":2312:2315   */\n      dup3\n        /* \"#utility.yul\":2305:2309   */\n      0x1f\n        /* \"#utility.yul\":2297:2303   */\n      dup4\n        /* \"#utility.yul\":2293:2310   */\n      add\n        /* \"#utility.yul\":2289:2316   */\n      slt\n        /* \"#utility.yul\":2279:2401   */\n      tag_212\n      jumpi\n        /* \"#utility.yul\":2320:2399   */\n      tag_213\n      tag_133\n      jump\t// in\n    tag_213:\n        /* \"#utility.yul\":2279:2401   */\n    tag_212:\n        /* \"#utility.yul\":2437:2443   */\n      dup2\n        /* \"#utility.yul\":2424:2444   */\n      calldataload\n        /* \"#utility.yul\":2462:2541   */\n      tag_214\n        /* \"#utility.yul\":2537:2540   */\n      dup5\n        /* \"#utility.yul\":2529:2535   */\n      dup3\n        /* \"#utility.yul\":2522:2526   */\n      0x20\n        /* \"#utility.yul\":2514:2520   */\n      dup7\n        /* \"#utility.yul\":2510:2527   */\n      add\n        /* \"#utility.yul\":2462:2541   */\n      tag_140\n      jump\t// in\n    tag_214:\n        /* \"#utility.yul\":2453:2541   */\n      swap2\n      pop\n        /* \"#utility.yul\":2269:2547   */\n      pop\n        /* \"#utility.yul\":2207:2547   */\n      swap3\n      swap2\n      pop\n      pop\n      jump\t// out\n        /* \"#utility.yul\":2553:2630   */\n    tag_142:\n        /* \"#utility.yul\":2590:2597   */\n      0x00\n        /* \"#utility.yul\":2619:2624   */\n      dup2\n        /* \"#utility.yul\":2608:2624   */\n      swap1\n      pop\n        /* \"#utility.yul\":2553:2630   */\n      swap2\n      swap1\n      pop\n      jump\t// out\n        /* \"#utility.yul\":2636:2758   */\n    tag_143:\n        /* \"#utility.yul\":2709:2733   */\n      tag_217\n        /* \"#utility.yul\":2727:2732   */\n      dup2\n        /* \"#utility.yul\":2709:2733   */\n      tag_142\n      jump\t// in\n    tag_217:\n        /* \"#utility.yul\":2702:2707   */\n      dup2\n        /* \"#utility.yul\":2699:2734   */\n      eq\n        /* \"#utility.yul\":2689:2752   */\n      tag_218\n      jumpi\n        /* \"#utility.yul\":2748:2749   */\n      0x00\n        /* \"#utility.yul\":2745:2746   */\n      dup1\n        /* \"#utility.yul\":2738:2750   */\n      revert\n        /* \"#utility.yul\":2689:2752   */\n    tag_218:\n        /* \"#utility.yul\":2636:2758   */\n      pop\n      jump\t// out\n        /* \"#utility.yul\":2764:2903   */\n    tag_144:\n        /* \"#utility.yul\":2810:2815   */\n      0x00\n        /* \"#utility.yul\":2848:2854   */\n      dup2\n        /* \"#utility.yul\":2835:2855   */\n      calldataload\n        /* \"#utility.yul\":2826:2855   */\n      swap1\n      pop\n        /* \"#utility.yul\":2864:2897   */\n      tag_220\n        /* \"#utility.yul\":2891:2896   */\n      dup2\n        /* \"#utility.yul\":2864:2897   */\n      tag_143\n      jump\t// in\n    tag_220:\n        /* \"#utility.yul\":2764:2903   */\n      swap3\n      swap2\n      pop\n      pop\n      jump\t// out\n        /* \"#utility.yul\":2909:3854   */\n    tag_11:\n        /* \"#utility.yul\":3005:3011   */\n      0x00\n        /* \"#utility.yul\":3013:3019   */\n      dup1\n        /* \"#utility.yul\":3021:3027   */\n      0x00\n        /* \"#utility.yul\":3029:3035   */\n      dup1\n        /* \"#utility.yul\":3078:3081   */\n      0x80\n        /* \"#utility.yul\":3066:3075   */\n      dup6\n        /* \"#utility.yul\":3057:3064   */\n      dup8\n        /* \"#utility.yul\":3053:3076   */\n      sub\n        /* \"#utility.yul\":3049:3082   */\n      slt\n        /* \"#utility.yul\":3046:3166   */\n      iszero\n      tag_222\n      jumpi\n        /* \"#utility.yul\":3085:3164   */\n      tag_223\n      tag_131\n      jump\t// in\n    tag_223:\n        /* \"#utility.yul\":3046:3166   */\n    tag_222:\n        /* \"#utility.yul\":3233:3234   */\n      0x00\n        /* \"#utility.yul\":3222:3231   */\n      dup6\n        /* \"#utility.yul\":3218:3235   */\n      add\n        /* \"#utility.yul\":3205:3236   */\n      calldataload\n        /* \"#utility.yul\":3263:3281   */\n      0xffffffffffffffff\n        /* \"#utility.yul\":3255:3261   */\n      dup2\n        /* \"#utility.yul\":3252:3282   */\n      gt\n        /* \"#utility.yul\":3249:3366   */\n      iszero\n      tag_224\n      jumpi\n        /* \"#utility.yul\":3285:3364   */\n      tag_225\n      tag_132\n      jump\t// in\n    tag_225:\n        /* \"#utility.yul\":3249:3366   */\n    tag_224:\n        /* \"#utility.yul\":3390:3453   */\n      tag_226\n        /* \"#utility.yul\":3445:3452   */\n      dup8\n        /* \"#utility.yul\":3436:3442   */\n      dup3\n        /* \"#utility.yul\":3425:3434   */\n      dup9\n        /* \"#utility.yul\":3421:3443   */\n      add\n        /* \"#utility.yul\":3390:3453   */\n      tag_141\n      jump\t// in\n    tag_226:\n        /* \"#utility.yul\":3380:3453   */\n      swap5\n      pop\n        /* \"#utility.yul\":3176:3463   */\n      pop\n        /* \"#utility.yul\":3502:3504   */\n      0x20\n        /* \"#utility.yul\":3528:3581   */\n      tag_227\n        /* \"#utility.yul\":3573:3580   */\n      dup8\n        /* \"#utility.yul\":3564:3570   */\n      dup3\n        /* \"#utility.yul\":3553:3562   */\n      dup9\n        /* \"#utility.yul\":3549:3571   */\n      add\n        /* \"#utility.yul\":3528:3581   */\n      tag_144\n      jump\t// in\n    tag_227:\n        /* \"#utility.yul\":3518:3581   */\n      swap4\n      pop\n        /* \"#utility.yul\":3473:3591   */\n      pop\n        /* \"#utility.yul\":3630:3632   */\n      0x40\n        /* \"#utility.yul\":3656:3709   */\n      tag_228\n        /* \"#utility.yul\":3701:3708   */\n      dup8\n        /* \"#utility.yul\":3692:3698   */\n      dup3\n        /* \"#utility.yul\":3681:3690   */\n      dup9\n        /* \"#utility.yul\":3677:3699   */\n      add\n        /* \"#utility.yul\":3656:3709   */\n      tag_144\n      jump\t// in\n    tag_228:\n        /* \"#utility.yul\":3646:3709   */\n      swap3\n      pop\n        /* \"#utility.yul\":3601:3719   */\n      pop\n        /* \"#utility.yul\":3758:3760   */\n      0x60\n        /* \"#utility.yul\":3784:3837   */\n      tag_229\n        /* \"#utility.yul\":3829:3836   */\n      dup8\n        /* \"#utility.yul\":3820:3826   */\n      dup3\n        /* \"#utility.yul\":3809:3818   */\n      dup9\n        /* \"#utility.yul\":3805:3827   */\n      add\n        /* \"#utility.yul\":3784:3837   */\n      tag_144\n      jump\t// in\n    tag_229:\n        /* \"#utility.yul\":3774:3837   */\n      swap2\n      pop\n        /* \"#utility.yul\":3729:3847   */\n      pop\n        /* \"#utility.yul\":2909:3854   */\n      swap3\n      swap6\n      swap2\n      swap5\n      pop\n      swap3\n      pop\n      jump\t// out\n        /* \"#utility.yul\":3860:4369   */\n    tag_15:\n        /* \"#utility.yul\":3929:3935   */\n      0x00\n        /* \"#utility.yul\":3978:3980   */\n      0x20\n        /* \"#utility.yul\":3966:3975   */\n      dup3\n        /* \"#utility.yul\":3957:3964   */\n      dup5\n        /* \"#utility.yul\":3953:3976   */\n      sub\n        /* \"#utility.yul\":3949:3981   */\n      slt\n        /* \"#utility.yul\":3946:4065   */\n      iszero\n      tag_231\n      jumpi\n        /* \"#utility.yul\":3984:4063   */\n      tag_232\n      tag_131\n      jump\t// in\n    tag_232:\n        /* \"#utility.yul\":3946:4065   */\n    tag_231:\n        /* \"#utility.yul\":4132:4133   */\n      0x00\n        /* \"#utility.yul\":4121:4130   */\n      dup3\n        /* \"#utility.yul\":4117:4134   */\n      add\n        /* \"#utility.yul\":4104:4135   */\n      calldataload\n        /* \"#utility.yul\":4162:4180   */\n      0xffffffffffffffff\n        /* \"#utility.yul\":4154:4160   */\n      dup2\n        /* \"#utility.yul\":4151:4181   */\n      gt\n        /* \"#utility.yul\":4148:4265   */\n      iszero\n      tag_233\n      jumpi\n        /* \"#utility.yul\":4184:4263   */\n      tag_234\n      tag_132\n      jump\t// in\n    tag_234:\n        /* \"#utility.yul\":4148:4265   */\n    tag_233:\n        /* \"#utility.yul\":4289:4352   */\n      tag_235\n        /* \"#utility.yul\":4344:4351   */\n      dup5\n        /* \"#utility.yul\":4335:4341   */\n      dup3\n        /* \"#utility.yul\":4324:4333   */\n      dup6\n        /* \"#utility.yul\":4320:4342   */\n      add\n        /* \"#utility.yul\":4289:4352   */\n      tag_141\n      jump\t// in\n    tag_235:\n        /* \"#utility.yul\":4279:4352   */\n      swap2\n      pop\n        /* \"#utility.yul\":4075:4362   */\n      pop\n        /* \"#utility.yul\":3860:4369   */\n      swap3\n      swap2\n      pop\n      pop\n      jump\t// out\n        /* \"#utility.yul\":4375:5500   */\n    tag_19:\n        /* \"#utility.yul\":4481:4487   */\n      0x00\n        /* \"#utility.yul\":4489:4495   */\n      dup1\n        /* \"#utility.yul\":4497:4503   */\n      0x00\n        /* \"#utility.yul\":4505:4511   */\n      dup1\n        /* \"#utility.yul\":4554:4557   */\n      0x80\n        /* \"#utility.yul\":4542:4551   */\n      dup6\n        /* \"#utility.yul\":4533:4540   */\n      dup8\n        /* \"#utility.yul\":4529:4552   */\n      sub\n        /* \"#utility.yul\":4525:4558   */\n      slt\n        /* \"#utility.yul\":4522:4642   */\n      iszero\n      tag_237\n      jumpi\n        /* \"#utility.yul\":4561:4640   */\n      tag_238\n      tag_131\n      jump\t// in\n    tag_238:\n        /* \"#utility.yul\":4522:4642   */\n    tag_237:\n        /* \"#utility.yul\":4709:4710   */\n      0x00\n        /* \"#utility.yul\":4698:4707   */\n      dup6\n        /* \"#utility.yul\":4694:4711   */\n      add\n        /* \"#utility.yul\":4681:4712   */\n      calldataload\n        /* \"#utility.yul\":4739:4757   */\n      0xffffffffffffffff\n        /* \"#utility.yul\":4731:4737   */\n      dup2\n        /* \"#utility.yul\":4728:4758   */\n      gt\n        /* \"#utility.yul\":4725:4842   */\n      iszero\n      tag_239\n      jumpi\n        /* \"#utility.yul\":4761:4840   */\n      tag_240\n      tag_132\n      jump\t// in\n    tag_240:\n        /* \"#utility.yul\":4725:4842   */\n    tag_239:\n        /* \"#utility.yul\":4866:4929   */\n      tag_241\n        /* \"#utility.yul\":4921:4928   */\n      dup8\n        /* \"#utility.yul\":4912:4918   */\n      dup3\n        /* \"#utility.yul\":4901:4910   */\n      dup9\n        /* \"#utility.yul\":4897:4919   */\n      add\n        /* \"#utility.yul\":4866:4929   */\n      tag_141\n      jump\t// in\n    tag_241:\n        /* \"#utility.yul\":4856:4929   */\n      swap5\n      pop\n        /* \"#utility.yul\":4652:4939   */\n      pop\n        /* \"#utility.yul\":4978:4980   */\n      0x20\n        /* \"#utility.yul\":5004:5057   */\n      tag_242\n        /* \"#utility.yul\":5049:5056   */\n      dup8\n        /* \"#utility.yul\":5040:5046   */\n      dup3\n        /* \"#utility.yul\":5029:5038   */\n      dup9\n        /* \"#utility.yul\":5025:5047   */\n      add\n        /* \"#utility.yul\":5004:5057   */\n      tag_144\n      jump\t// in\n    tag_242:\n        /* \"#utility.yul\":4994:5057   */\n      swap4\n      pop\n        /* \"#utility.yul\":4949:5067   */\n      pop\n        /* \"#utility.yul\":5106:5108   */\n      0x40\n        /* \"#utility.yul\":5132:5185   */\n      tag_243\n        /* \"#utility.yul\":5177:5184   */\n      dup8\n        /* \"#utility.yul\":5168:5174   */\n      dup3\n        /* \"#utility.yul\":5157:5166   */\n      dup9\n        /* \"#utility.yul\":5153:5175   */\n      add\n        /* \"#utility.yul\":5132:5185   */\n      tag_144\n      jump\t// in\n    tag_243:\n        /* \"#utility.yul\":5122:5185   */\n      swap3\n      pop\n        /* \"#utility.yul\":5077:5195   */\n      pop\n        /* \"#utility.yul\":5262:5264   */\n      0x60\n        /* \"#utility.yul\":5251:5260   */\n      dup6\n        /* \"#utility.yul\":5247:5265   */\n      add\n        /* \"#utility.yul\":5234:5266   */\n      calldataload\n        /* \"#utility.yul\":5293:5311   */\n      0xffffffffffffffff\n        /* \"#utility.yul\":5285:5291   */\n      dup2\n        /* \"#utility.yul\":5282:5312   */\n      gt\n        /* \"#utility.yul\":5279:5396   */\n      iszero\n      tag_244\n      jumpi\n        /* \"#utility.yul\":5315:5394   */\n      tag_245\n      tag_132\n      jump\t// in\n    tag_245:\n        /* \"#utility.yul\":5279:5396   */\n    tag_244:\n        /* \"#utility.yul\":5420:5483   */\n      tag_246\n        /* \"#utility.yul\":5475:5482   */\n      dup8\n        /* \"#utility.yul\":5466:5472   */\n      dup3\n        /* \"#utility.yul\":5455:5464   */\n      dup9\n        /* \"#utility.yul\":5451:5473   */\n      add\n        /* \"#utility.yul\":5420:5483   */\n      tag_141\n      jump\t// in\n    tag_246:\n        /* \"#utility.yul\":5410:5483   */\n      swap2\n      pop\n        /* \"#utility.yul\":5205:5493   */\n      pop\n        /* \"#utility.yul\":4375:5500   */\n      swap3\n      swap6\n      swap2\n      swap5\n      pop\n      swap3\n      pop\n      jump\t// out\n        /* \"#utility.yul\":5506:5630   */\n    tag_145:\n        /* \"#utility.yul\":5583:5589   */\n      0x00\n        /* \"#utility.yul\":5617:5622   */\n      dup2\n        /* \"#utility.yul\":5611:5623   */\n      mload\n        /* \"#utility.yul\":5601:5623   */\n      swap1\n      pop\n        /* \"#utility.yul\":5506:5630   */\n      swap2\n      swap1\n      pop\n      jump\t// out\n        /* \"#utility.yul\":5636:5830   */\n    tag_146:\n        /* \"#utility.yul\":5745:5756   */\n      0x00\n        /* \"#utility.yul\":5779:5785   */\n      dup3\n        /* \"#utility.yul\":5774:5777   */\n      dup3\n        /* \"#utility.yul\":5767:5786   */\n      mstore\n        /* \"#utility.yul\":5819:5823   */\n      0x20\n        /* \"#utility.yul\":5814:5817   */\n      dup3\n        /* \"#utility.yul\":5810:5824   */\n      add\n        /* \"#utility.yul\":5795:5824   */\n      swap1\n      pop\n        /* \"#utility.yul\":5636:5830   */\n      swap3\n      swap2\n      pop\n      pop\n      jump\t// out\n        /* \"#utility.yul\":5836:5978   */\n    tag_147:\n        /* \"#utility.yul\":5913:5917   */\n      0x00\n        /* \"#utility.yul\":5936:5939   */\n      dup2\n        /* \"#utility.yul\":5928:5939   */\n      swap1\n      pop\n        /* \"#utility.yul\":5966:5970   */\n      0x20\n        /* \"#utility.yul\":5961:5964   */\n      dup3\n        /* \"#utility.yul\":5957:5971   */\n      add\n        /* \"#utility.yul\":5949:5971   */\n      swap1\n      pop\n        /* \"#utility.yul\":5836:5978   */\n      swap2\n      swap1\n      pop\n      jump\t// out\n        /* \"#utility.yul\":5984:6083   */\n    tag_148:\n        /* \"#utility.yul\":6036:6042   */\n      0x00\n        /* \"#utility.yul\":6070:6075   */\n      dup2\n        /* \"#utility.yul\":6064:6076   */\n      mload\n        /* \"#utility.yul\":6054:6076   */\n      swap1\n      pop\n        /* \"#utility.yul\":5984:6083   */\n      swap2\n      swap1\n      pop\n      jump\t// out\n        /* \"#utility.yul\":6089:6248   */\n    tag_149:\n        /* \"#utility.yul\":6163:6174   */\n      0x00\n        /* \"#utility.yul\":6197:6203   */\n      dup3\n        /* \"#utility.yul\":6192:6195   */\n      dup3\n        /* \"#utility.yul\":6185:6204   */\n      mstore\n        /* \"#utility.yul\":6237:6241   */\n      0x20\n        /* \"#utility.yul\":6232:6235   */\n      dup3\n        /* \"#utility.yul\":6228:6242   */\n      add\n        /* \"#utility.yul\":6213:6242   */\n      swap1\n      pop\n        /* \"#utility.yul\":6089:6248   */\n      swap3\n      swap2\n      pop\n      pop\n      jump\t// out\n        /* \"#utility.yul\":6254:6500   */\n    tag_150:\n        /* \"#utility.yul\":6335:6336   */\n      0x00\n        /* \"#utility.yul\":6345:6458   */\n    tag_253:\n        /* \"#utility.yul\":6359:6365   */\n      dup4\n        /* \"#utility.yul\":6356:6357   */\n      dup2\n        /* \"#utility.yul\":6353:6366   */\n      lt\n        /* \"#utility.yul\":6345:6458   */\n      iszero\n      tag_255\n      jumpi\n        /* \"#utility.yul\":6444:6445   */\n      dup1\n        /* \"#utility.yul\":6439:6442   */\n      dup3\n        /* \"#utility.yul\":6435:6446   */\n      add\n        /* \"#utility.yul\":6429:6447   */\n      mload\n        /* \"#utility.yul\":6425:6426   */\n      dup2\n        /* \"#utility.yul\":6420:6423   */\n      dup5\n        /* \"#utility.yul\":6416:6427   */\n      add\n        /* \"#utility.yul\":6409:6448   */\n      mstore\n        /* \"#utility.yul\":6381:6383   */\n      0x20\n        /* \"#utility.yul\":6378:6379   */\n      dup2\n        /* \"#utility.yul\":6374:6384   */\n      add\n        /* \"#utility.yul\":6369:6384   */\n      swap1\n      pop\n        /* \"#utility.yul\":6345:6458   */\n      jump(tag_253)\n    tag_255:\n        /* \"#utility.yul\":6492:6493   */\n      0x00\n        /* \"#utility.yul\":6483:6489   */\n      dup5\n        /* \"#utility.yul\":6478:6481   */\n      dup5\n        /* \"#utility.yul\":6474:6490   */\n      add\n        /* \"#utility.yul\":6467:6494   */\n      mstore\n        /* \"#utility.yul\":6316:6500   */\n      pop\n        /* \"#utility.yul\":6254:6500   */\n      pop\n      pop\n      pop\n      jump\t// out\n        /* \"#utility.yul\":6506:6863   */\n    tag_151:\n        /* \"#utility.yul\":6584:6587   */\n      0x00\n        /* \"#utility.yul\":6612:6651   */\n      tag_257\n        /* \"#utility.yul\":6645:6650   */\n      dup3\n        /* \"#utility.yul\":6612:6651   */\n      tag_148\n      jump\t// in\n    tag_257:\n        /* \"#utility.yul\":6667:6728   */\n      tag_258\n        /* \"#utility.yul\":6721:6727   */\n      dup2\n        /* \"#utility.yul\":6716:6719   */\n      dup6\n        /* \"#utility.yul\":6667:6728   */\n      tag_149\n      jump\t// in\n    tag_258:\n        /* \"#utility.yul\":6660:6728   */\n      swap4\n      pop\n        /* \"#utility.yul\":6737:6802   */\n      tag_259\n        /* \"#utility.yul\":6795:6801   */\n      dup2\n        /* \"#utility.yul\":6790:6793   */\n      dup6\n        /* \"#utility.yul\":6783:6787   */\n      0x20\n        /* \"#utility.yul\":6776:6781   */\n      dup7\n        /* \"#utility.yul\":6772:6788   */\n      add\n        /* \"#utility.yul\":6737:6802   */\n      tag_150\n      jump\t// in\n    tag_259:\n        /* \"#utility.yul\":6827:6856   */\n      tag_260\n        /* \"#utility.yul\":6849:6855   */\n      dup2\n        /* \"#utility.yul\":6827:6856   */\n      tag_135\n      jump\t// in\n    tag_260:\n        /* \"#utility.yul\":6822:6825   */\n      dup5\n        /* \"#utility.yul\":6818:6857   */\n      add\n        /* \"#utility.yul\":6811:6857   */\n      swap2\n      pop\n        /* \"#utility.yul\":6588:6863   */\n      pop\n        /* \"#utility.yul\":6506:6863   */\n      swap3\n      swap2\n      pop\n      pop\n      jump\t// out\n        /* \"#utility.yul\":6869:7065   */\n    tag_152:\n        /* \"#utility.yul\":6958:6968   */\n      0x00\n        /* \"#utility.yul\":6993:7059   */\n      tag_262\n        /* \"#utility.yul\":7055:7058   */\n      dup4\n        /* \"#utility.yul\":7047:7053   */\n      dup4\n        /* \"#utility.yul\":6993:7059   */\n      tag_151\n      jump\t// in\n    tag_262:\n        /* \"#utility.yul\":6979:7059   */\n      swap1\n      pop\n        /* \"#utility.yul\":6869:7065   */\n      swap3\n      swap2\n      pop\n      pop\n      jump\t// out\n        /* \"#utility.yul\":7071:7194   */\n    tag_153:\n        /* \"#utility.yul\":7151:7155   */\n      0x00\n        /* \"#utility.yul\":7183:7187   */\n      0x20\n        /* \"#utility.yul\":7178:7181   */\n      dup3\n        /* \"#utility.yul\":7174:7188   */\n      add\n        /* \"#utility.yul\":7166:7188   */\n      swap1\n      pop\n        /* \"#utility.yul\":7071:7194   */\n      swap2\n      swap1\n      pop\n      jump\t// out\n        /* \"#utility.yul\":7228:8219   */\n    tag_154:\n        /* \"#utility.yul\":7367:7370   */\n      0x00\n        /* \"#utility.yul\":7396:7460   */\n      tag_265\n        /* \"#utility.yul\":7454:7459   */\n      dup3\n        /* \"#utility.yul\":7396:7460   */\n      tag_145\n      jump\t// in\n    tag_265:\n        /* \"#utility.yul\":7476:7572   */\n      tag_266\n        /* \"#utility.yul\":7565:7571   */\n      dup2\n        /* \"#utility.yul\":7560:7563   */\n      dup6\n        /* \"#utility.yul\":7476:7572   */\n      tag_146\n      jump\t// in\n    tag_266:\n        /* \"#utility.yul\":7469:7572   */\n      swap4\n      pop\n        /* \"#utility.yul\":7598:7601   */\n      dup4\n        /* \"#utility.yul\":7643:7647   */\n      0x20\n        /* \"#utility.yul\":7635:7641   */\n      dup3\n        /* \"#utility.yul\":7631:7648   */\n      mul\n        /* \"#utility.yul\":7626:7629   */\n      dup6\n        /* \"#utility.yul\":7622:7649   */\n      add\n        /* \"#utility.yul\":7673:7739   */\n      tag_267\n        /* \"#utility.yul\":7733:7738   */\n      dup6\n        /* \"#utility.yul\":7673:7739   */\n      tag_147\n      jump\t// in\n    tag_267:\n        /* \"#utility.yul\":7762:7769   */\n      dup1\n        /* \"#utility.yul\":7793:7794   */\n      0x00\n        /* \"#utility.yul\":7778:8174   */\n    tag_268:\n        /* \"#utility.yul\":7803:7809   */\n      dup6\n        /* \"#utility.yul\":7800:7801   */\n      dup2\n        /* \"#utility.yul\":7797:7810   */\n      lt\n        /* \"#utility.yul\":7778:8174   */\n      iszero\n      tag_270\n      jumpi\n        /* \"#utility.yul\":7874:7883   */\n      dup5\n        /* \"#utility.yul\":7868:7872   */\n      dup5\n        /* \"#utility.yul\":7864:7884   */\n      sub\n        /* \"#utility.yul\":7859:7862   */\n      dup10\n        /* \"#utility.yul\":7852:7885   */\n      mstore\n        /* \"#utility.yul\":7925:7931   */\n      dup2\n        /* \"#utility.yul\":7919:7932   */\n      mload\n        /* \"#utility.yul\":7953:8037   */\n      tag_271\n        /* \"#utility.yul\":8032:8036   */\n      dup6\n        /* \"#utility.yul\":8017:8030   */\n      dup3\n        /* \"#utility.yul\":7953:8037   */\n      tag_152\n      jump\t// in\n    tag_271:\n        /* \"#utility.yul\":7945:8037   */\n      swap5\n      pop\n        /* \"#utility.yul\":8060:8130   */\n      tag_272\n        /* \"#utility.yul\":8123:8129   */\n      dup4\n        /* \"#utility.yul\":8060:8130   */\n      tag_153\n      jump\t// in\n    tag_272:\n        /* \"#utility.yul\":8050:8130   */\n      swap3\n      pop\n        /* \"#utility.yul\":8159:8163   */\n      0x20\n        /* \"#utility.yul\":8154:8157   */\n      dup11\n        /* \"#utility.yul\":8150:8164   */\n      add\n        /* \"#utility.yul\":8143:8164   */\n      swap10\n      pop\n        /* \"#utility.yul\":7838:8174   */\n      pop\n        /* \"#utility.yul\":7825:7826   */\n      0x01\n        /* \"#utility.yul\":7822:7823   */\n      dup2\n        /* \"#utility.yul\":7818:7827   */\n      add\n        /* \"#utility.yul\":7813:7827   */\n      swap1\n      pop\n        /* \"#utility.yul\":7778:8174   */\n      jump(tag_268)\n    tag_270:\n        /* \"#utility.yul\":7782:7796   */\n      pop\n        /* \"#utility.yul\":8190:8194   */\n      dup3\n        /* \"#utility.yul\":8183:8194   */\n      swap8\n      pop\n        /* \"#utility.yul\":8210:8213   */\n      dup8\n        /* \"#utility.yul\":8203:8213   */\n      swap6\n      pop\n        /* \"#utility.yul\":7372:8219   */\n      pop\n      pop\n      pop\n      pop\n      pop\n        /* \"#utility.yul\":7228:8219   */\n      swap3\n      swap2\n      pop\n      pop\n      jump\t// out\n        /* \"#utility.yul\":8225:8638   */\n    tag_24:\n        /* \"#utility.yul\":8388:8392   */\n      0x00\n        /* \"#utility.yul\":8426:8428   */\n      0x20\n        /* \"#utility.yul\":8415:8424   */\n      dup3\n        /* \"#utility.yul\":8411:8429   */\n      add\n        /* \"#utility.yul\":8403:8429   */\n      swap1\n      pop\n        /* \"#utility.yul\":8475:8484   */\n      dup2\n        /* \"#utility.yul\":8469:8473   */\n      dup2\n        /* \"#utility.yul\":8465:8485   */\n      sub\n        /* \"#utility.yul\":8461:8462   */\n      0x00\n        /* \"#utility.yul\":8450:8459   */\n      dup4\n        /* \"#utility.yul\":8446:8463   */\n      add\n        /* \"#utility.yul\":8439:8486   */\n      mstore\n        /* \"#utility.yul\":8503:8631   */\n      tag_274\n        /* \"#utility.yul\":8626:8630   */\n      dup2\n        /* \"#utility.yul\":8617:8623   */\n      dup5\n        /* \"#utility.yul\":8503:8631   */\n      tag_154\n      jump\t// in\n    tag_274:\n        /* \"#utility.yul\":8495:8631   */\n      swap1\n      pop\n        /* \"#utility.yul\":8225:8638   */\n      swap3\n      swap2\n      pop\n      pop\n      jump\t// out\n        /* \"#utility.yul\":8644:8781   */\n    tag_155:\n        /* \"#utility.yul\":8734:8740   */\n      0x00\n        /* \"#utility.yul\":8768:8773   */\n      dup2\n        /* \"#utility.yul\":8762:8774   */\n      mload\n        /* \"#utility.yul\":8752:8774   */\n      swap1\n      pop\n        /* \"#utility.yul\":8644:8781   */\n      swap2\n      swap1\n      pop\n      jump\t// out\n        /* \"#utility.yul\":8787:8994   */\n    tag_156:\n        /* \"#utility.yul\":8909:8920   */\n      0x00\n        /* \"#utility.yul\":8943:8949   */\n      dup3\n        /* \"#utility.yul\":8938:8941   */\n      dup3\n        /* \"#utility.yul\":8931:8950   */\n      mstore\n        /* \"#utility.yul\":8983:8987   */\n      0x20\n        /* \"#utility.yul\":8978:8981   */\n      dup3\n        /* \"#utility.yul\":8974:8988   */\n      add\n        /* \"#utility.yul\":8959:8988   */\n      swap1\n      pop\n        /* \"#utility.yul\":8787:8994   */\n      swap3\n      swap2\n      pop\n      pop\n      jump\t// out\n        /* \"#utility.yul\":9000:9155   */\n    tag_157:\n        /* \"#utility.yul\":9090:9094   */\n      0x00\n        /* \"#utility.yul\":9113:9116   */\n      dup2\n        /* \"#utility.yul\":9105:9116   */\n      swap1\n      pop\n        /* \"#utility.yul\":9143:9147   */\n      0x20\n        /* \"#utility.yul\":9138:9141   */\n      dup3\n        /* \"#utility.yul\":9134:9148   */\n      add\n        /* \"#utility.yul\":9126:9148   */\n      swap1\n      pop\n        /* \"#utility.yul\":9000:9155   */\n      swap2\n      swap1\n      pop\n      jump\t// out\n        /* \"#utility.yul\":9161:9269   */\n    tag_158:\n        /* \"#utility.yul\":9238:9262   */\n      tag_279\n        /* \"#utility.yul\":9256:9261   */\n      dup2\n        /* \"#utility.yul\":9238:9262   */\n      tag_142\n      jump\t// in\n    tag_279:\n        /* \"#utility.yul\":9233:9236   */\n      dup3\n        /* \"#utility.yul\":9226:9263   */\n      mstore\n        /* \"#utility.yul\":9161:9269   */\n      pop\n      pop\n      jump\t// out\n        /* \"#utility.yul\":9325:10454   */\n    tag_159:\n        /* \"#utility.yul\":9430:9433   */\n      0x00\n        /* \"#utility.yul\":9466:9470   */\n      0xa0\n        /* \"#utility.yul\":9461:9464   */\n      dup4\n        /* \"#utility.yul\":9457:9471   */\n      add\n        /* \"#utility.yul\":9559:9563   */\n      0x00\n        /* \"#utility.yul\":9552:9557   */\n      dup4\n        /* \"#utility.yul\":9548:9564   */\n      add\n        /* \"#utility.yul\":9542:9565   */\n      mload\n        /* \"#utility.yul\":9578:9641   */\n      tag_281\n        /* \"#utility.yul\":9635:9639   */\n      0x00\n        /* \"#utility.yul\":9630:9633   */\n      dup7\n        /* \"#utility.yul\":9626:9640   */\n      add\n        /* \"#utility.yul\":9612:9624   */\n      dup3\n        /* \"#utility.yul\":9578:9641   */\n      tag_158\n      jump\t// in\n    tag_281:\n        /* \"#utility.yul\":9481:9651   */\n      pop\n        /* \"#utility.yul\":9733:9737   */\n      0x20\n        /* \"#utility.yul\":9726:9731   */\n      dup4\n        /* \"#utility.yul\":9722:9738   */\n      add\n        /* \"#utility.yul\":9716:9739   */\n      mload\n        /* \"#utility.yul\":9786:9789   */\n      dup5\n        /* \"#utility.yul\":9780:9784   */\n      dup3\n        /* \"#utility.yul\":9776:9790   */\n      sub\n        /* \"#utility.yul\":9769:9773   */\n      0x20\n        /* \"#utility.yul\":9764:9767   */\n      dup7\n        /* \"#utility.yul\":9760:9774   */\n      add\n        /* \"#utility.yul\":9753:9791   */\n      mstore\n        /* \"#utility.yul\":9812:9885   */\n      tag_282\n        /* \"#utility.yul\":9880:9884   */\n      dup3\n        /* \"#utility.yul\":9866:9878   */\n      dup3\n        /* \"#utility.yul\":9812:9885   */\n      tag_151\n      jump\t// in\n    tag_282:\n        /* \"#utility.yul\":9804:9885   */\n      swap2\n      pop\n        /* \"#utility.yul\":9661:9896   */\n      pop\n        /* \"#utility.yul\":9979:9983   */\n      0x40\n        /* \"#utility.yul\":9972:9977   */\n      dup4\n        /* \"#utility.yul\":9968:9984   */\n      add\n        /* \"#utility.yul\":9962:9985   */\n      mload\n        /* \"#utility.yul\":9998:10061   */\n      tag_283\n        /* \"#utility.yul\":10055:10059   */\n      0x40\n        /* \"#utility.yul\":10050:10053   */\n      dup7\n        /* \"#utility.yul\":10046:10060   */\n      add\n        /* \"#utility.yul\":10032:10044   */\n      dup3\n        /* \"#utility.yul\":9998:10061   */\n      tag_158\n      jump\t// in\n    tag_283:\n        /* \"#utility.yul\":9906:10071   */\n      pop\n        /* \"#utility.yul\":10157:10161   */\n      0x60\n        /* \"#utility.yul\":10150:10155   */\n      dup4\n        /* \"#utility.yul\":10146:10162   */\n      add\n        /* \"#utility.yul\":10140:10163   */\n      mload\n        /* \"#utility.yul\":10176:10239   */\n      tag_284\n        /* \"#utility.yul\":10233:10237   */\n      0x60\n        /* \"#utility.yul\":10228:10231   */\n      dup7\n        /* \"#utility.yul\":10224:10238   */\n      add\n        /* \"#utility.yul\":10210:10222   */\n      dup3\n        /* \"#utility.yul\":10176:10239   */\n      tag_158\n      jump\t// in\n    tag_284:\n        /* \"#utility.yul\":10081:10249   */\n      pop\n        /* \"#utility.yul\":10335:10339   */\n      0x80\n        /* \"#utility.yul\":10328:10333   */\n      dup4\n        /* \"#utility.yul\":10324:10340   */\n      add\n        /* \"#utility.yul\":10318:10341   */\n      mload\n        /* \"#utility.yul\":10354:10417   */\n      tag_285\n        /* \"#utility.yul\":10411:10415   */\n      0x80\n        /* \"#utility.yul\":10406:10409   */\n      dup7\n        /* \"#utility.yul\":10402:10416   */\n      add\n        /* \"#utility.yul\":10388:10400   */\n      dup3\n        /* \"#utility.yul\":10354:10417   */\n      tag_158\n      jump\t// in\n    tag_285:\n        /* \"#utility.yul\":10259:10427   */\n      pop\n        /* \"#utility.yul\":10444:10448   */\n      dup1\n        /* \"#utility.yul\":10437:10448   */\n      swap2\n      pop\n        /* \"#utility.yul\":9435:10454   */\n      pop\n        /* \"#utility.yul\":9325:10454   */\n      swap3\n      swap2\n      pop\n      pop\n      jump\t// out\n        /* \"#utility.yul\":10460:10708   */\n    tag_160:\n        /* \"#utility.yul\":10575:10585   */\n      0x00\n        /* \"#utility.yul\":10610:10702   */\n      tag_287\n        /* \"#utility.yul\":10698:10701   */\n      dup4\n        /* \"#utility.yul\":10690:10696   */\n      dup4\n        /* \"#utility.yul\":10610:10702   */\n      tag_159\n      jump\t// in\n    tag_287:\n        /* \"#utility.yul\":10596:10702   */\n      swap1\n      pop\n        /* \"#utility.yul\":10460:10708   */\n      swap3\n      swap2\n      pop\n      pop\n      jump\t// out\n        /* \"#utility.yul\":10714:10850   */\n    tag_161:\n        /* \"#utility.yul\":10807:10811   */\n      0x00\n        /* \"#utility.yul\":10839:10843   */\n      0x20\n        /* \"#utility.yul\":10834:10837   */\n      dup3\n        /* \"#utility.yul\":10830:10844   */\n      add\n        /* \"#utility.yul\":10822:10844   */\n      swap1\n      pop\n        /* \"#utility.yul\":10714:10850   */\n      swap2\n      swap1\n      pop\n      jump\t// out\n        /* \"#utility.yul\":10910:12005   */\n    tag_162:\n        /* \"#utility.yul\":11075:11078   */\n      0x00\n        /* \"#utility.yul\":11104:11181   */\n      tag_290\n        /* \"#utility.yul\":11175:11180   */\n      dup3\n        /* \"#utility.yul\":11104:11181   */\n      tag_155\n      jump\t// in\n    tag_290:\n        /* \"#utility.yul\":11197:11306   */\n      tag_291\n        /* \"#utility.yul\":11299:11305   */\n      dup2\n        /* \"#utility.yul\":11294:11297   */\n      dup6\n        /* \"#utility.yul\":11197:11306   */\n      tag_156\n      jump\t// in\n    tag_291:\n        /* \"#utility.yul\":11190:11306   */\n      swap4\n      pop\n        /* \"#utility.yul\":11332:11335   */\n      dup4\n        /* \"#utility.yul\":11377:11381   */\n      0x20\n        /* \"#utility.yul\":11369:11375   */\n      dup3\n        /* \"#utility.yul\":11365:11382   */\n      mul\n        /* \"#utility.yul\":11360:11363   */\n      dup6\n        /* \"#utility.yul\":11356:11383   */\n      add\n        /* \"#utility.yul\":11407:11486   */\n      tag_292\n        /* \"#utility.yul\":11480:11485   */\n      dup6\n        /* \"#utility.yul\":11407:11486   */\n      tag_157\n      jump\t// in\n    tag_292:\n        /* \"#utility.yul\":11509:11516   */\n      dup1\n        /* \"#utility.yul\":11540:11541   */\n      0x00\n        /* \"#utility.yul\":11525:11960   */\n    tag_293:\n        /* \"#utility.yul\":11550:11556   */\n      dup6\n        /* \"#utility.yul\":11547:11548   */\n      dup2\n        /* \"#utility.yul\":11544:11557   */\n      lt\n        /* \"#utility.yul\":11525:11960   */\n      iszero\n      tag_295\n      jumpi\n        /* \"#utility.yul\":11621:11630   */\n      dup5\n        /* \"#utility.yul\":11615:11619   */\n      dup5\n        /* \"#utility.yul\":11611:11631   */\n      sub\n        /* \"#utility.yul\":11606:11609   */\n      dup10\n        /* \"#utility.yul\":11599:11632   */\n      mstore\n        /* \"#utility.yul\":11672:11678   */\n      dup2\n        /* \"#utility.yul\":11666:11679   */\n      mload\n        /* \"#utility.yul\":11700:11810   */\n      tag_296\n        /* \"#utility.yul\":11805:11809   */\n      dup6\n        /* \"#utility.yul\":11790:11803   */\n      dup3\n        /* \"#utility.yul\":11700:11810   */\n      tag_160\n      jump\t// in\n    tag_296:\n        /* \"#utility.yul\":11692:11810   */\n      swap5\n      pop\n        /* \"#utility.yul\":11833:11916   */\n      tag_297\n        /* \"#utility.yul\":11909:11915   */\n      dup4\n        /* \"#utility.yul\":11833:11916   */\n      tag_161\n      jump\t// in\n    tag_297:\n        /* \"#utility.yul\":11823:11916   */\n      swap3\n      pop\n        /* \"#utility.yul\":11945:11949   */\n      0x20\n        /* \"#utility.yul\":11940:11943   */\n      dup11\n        /* \"#utility.yul\":11936:11950   */\n      add\n        /* \"#utility.yul\":11929:11950   */\n      swap10\n      pop\n        /* \"#utility.yul\":11585:11960   */\n      pop\n        /* \"#utility.yul\":11572:11573   */\n      0x01\n        /* \"#utility.yul\":11569:11570   */\n      dup2\n        /* \"#utility.yul\":11565:11574   */\n      add\n        /* \"#utility.yul\":11560:11574   */\n      swap1\n      pop\n        /* \"#utility.yul\":11525:11960   */\n      jump(tag_293)\n    tag_295:\n        /* \"#utility.yul\":11529:11543   */\n      pop\n        /* \"#utility.yul\":11976:11980   */\n      dup3\n        /* \"#utility.yul\":11969:11980   */\n      swap8\n      pop\n        /* \"#utility.yul\":11996:11999   */\n      dup8\n        /* \"#utility.yul\":11989:11999   */\n      swap6\n      pop\n        /* \"#utility.yul\":11080:12005   */\n      pop\n      pop\n      pop\n      pop\n      pop\n        /* \"#utility.yul\":10910:12005   */\n      swap3\n      swap2\n      pop\n      pop\n      jump\t// out\n        /* \"#utility.yul\":12011:12476   */\n    tag_29:\n        /* \"#utility.yul\":12200:12204   */\n      0x00\n        /* \"#utility.yul\":12238:12240   */\n      0x20\n        /* \"#utility.yul\":12227:12236   */\n      dup3\n        /* \"#utility.yul\":12223:12241   */\n      add\n        /* \"#utility.yul\":12215:12241   */\n      swap1\n      pop\n        /* \"#utility.yul\":12287:12296   */\n      dup2\n        /* \"#utility.yul\":12281:12285   */\n      dup2\n        /* \"#utility.yul\":12277:12297   */\n      sub\n        /* \"#utility.yul\":12273:12274   */\n      0x00\n        /* \"#utility.yul\":12262:12271   */\n      dup4\n        /* \"#utility.yul\":12258:12275   */\n      add\n        /* \"#utility.yul\":12251:12298   */\n      mstore\n        /* \"#utility.yul\":12315:12469   */\n      tag_299\n        /* \"#utility.yul\":12464:12468   */\n      dup2\n        /* \"#utility.yul\":12455:12461   */\n      dup5\n        /* \"#utility.yul\":12315:12469   */\n      tag_162\n      jump\t// in\n    tag_299:\n        /* \"#utility.yul\":12307:12469   */\n      swap1\n      pop\n        /* \"#utility.yul\":12011:12476   */\n      swap3\n      swap2\n      pop\n      pop\n      jump\t// out\n        /* \"#utility.yul\":12482:12662   */\n    tag_163:\n        /* \"#utility.yul\":12530:12607   */\n      0x4e487b7100000000000000000000000000000000000000000000000000000000\n        /* \"#utility.yul\":12527:12528   */\n      0x00\n        /* \"#utility.yul\":12520:12608   */\n      mstore\n        /* \"#utility.yul\":12627:12631   */\n      0x11\n        /* \"#utility.yul\":12624:12625   */\n      0x04\n        /* \"#utility.yul\":12617:12632   */\n      mstore\n        /* \"#utility.yul\":12651:12655   */\n      0x24\n        /* \"#utility.yul\":12648:12649   */\n      0x00\n        /* \"#utility.yul\":12641:12656   */\n      revert\n        /* \"#utility.yul\":12668:12859   */\n    tag_35:\n        /* \"#utility.yul\":12708:12711   */\n      0x00\n        /* \"#utility.yul\":12727:12747   */\n      tag_302\n        /* \"#utility.yul\":12745:12746   */\n      dup3\n        /* \"#utility.yul\":12727:12747   */\n      tag_142\n      jump\t// in\n    tag_302:\n        /* \"#utility.yul\":12722:12747   */\n      swap2\n      pop\n        /* \"#utility.yul\":12761:12781   */\n      tag_303\n        /* \"#utility.yul\":12779:12780   */\n      dup4\n        /* \"#utility.yul\":12761:12781   */\n      tag_142\n      jump\t// in\n    tag_303:\n        /* \"#utility.yul\":12756:12781   */\n      swap3\n      pop\n        /* \"#utility.yul\":12804:12805   */\n      dup3\n        /* \"#utility.yul\":12801:12802   */\n      dup3\n        /* \"#utility.yul\":12797:12806   */\n      add\n        /* \"#utility.yul\":12790:12806   */\n      swap1\n      pop\n        /* \"#utility.yul\":12825:12828   */\n      dup1\n        /* \"#utility.yul\":12822:12823   */\n      dup3\n        /* \"#utility.yul\":12819:12829   */\n      gt\n        /* \"#utility.yul\":12816:12852   */\n      iszero\n      tag_304\n      jumpi\n        /* \"#utility.yul\":12832:12850   */\n      tag_305\n      tag_163\n      jump\t// in\n    tag_305:\n        /* \"#utility.yul\":12816:12852   */\n    tag_304:\n        /* \"#utility.yul\":12668:12859   */\n      swap3\n      swap2\n      pop\n      pop\n      jump\t// out\n        /* \"#utility.yul\":12865:13045   */\n    tag_164:\n        /* \"#utility.yul\":12913:12990   */\n      0x4e487b7100000000000000000000000000000000000000000000000000000000\n        /* \"#utility.yul\":12910:12911   */\n      0x00\n        /* \"#utility.yul\":12903:12991   */\n      mstore\n        /* \"#utility.yul\":13010:13014   */\n      0x22\n        /* \"#utility.yul\":13007:13008   */\n      0x04\n        /* \"#utility.yul\":13000:13015   */\n      mstore\n        /* \"#utility.yul\":13034:13038   */\n      0x24\n        /* \"#utility.yul\":13031:13032   */\n      0x00\n        /* \"#utility.yul\":13024:13039   */\n      revert\n        /* \"#utility.yul\":13051:13371   */\n    tag_66:\n        /* \"#utility.yul\":13095:13101   */\n      0x00\n        /* \"#utility.yul\":13132:13133   */\n      0x02\n        /* \"#utility.yul\":13126:13130   */\n      dup3\n        /* \"#utility.yul\":13122:13134   */\n      div\n        /* \"#utility.yul\":13112:13134   */\n      swap1\n      pop\n        /* \"#utility.yul\":13179:13180   */\n      0x01\n        /* \"#utility.yul\":13173:13177   */\n      dup3\n        /* \"#utility.yul\":13169:13181   */\n      and\n        /* \"#utility.yul\":13200:13218   */\n      dup1\n        /* \"#utility.yul\":13190:13271   */\n      tag_308\n      jumpi\n        /* \"#utility.yul\":13256:13260   */\n      0x7f\n        /* \"#utility.yul\":13248:13254   */\n      dup3\n        /* \"#utility.yul\":13244:13261   */\n      and\n        /* \"#utility.yul\":13234:13261   */\n      swap2\n      pop\n        /* \"#utility.yul\":13190:13271   */\n    tag_308:\n        /* \"#utility.yul\":13318:13320   */\n      0x20\n        /* \"#utility.yul\":13310:13316   */\n      dup3\n        /* \"#utility.yul\":13307:13321   */\n      lt\n        /* \"#utility.yul\":13287:13305   */\n      dup2\n        /* \"#utility.yul\":13284:13322   */\n      sub\n        /* \"#utility.yul\":13281:13365   */\n      tag_309\n      jumpi\n        /* \"#utility.yul\":13337:13355   */\n      tag_310\n      tag_164\n      jump\t// in\n    tag_310:\n        /* \"#utility.yul\":13281:13365   */\n    tag_309:\n        /* \"#utility.yul\":13102:13371   */\n      pop\n        /* \"#utility.yul\":13051:13371   */\n      swap2\n      swap1\n      pop\n      jump\t// out\n        /* \"#utility.yul\":13377:13518   */\n    tag_165:\n        /* \"#utility.yul\":13426:13430   */\n      0x00\n        /* \"#utility.yul\":13449:13452   */\n      dup2\n        /* \"#utility.yul\":13441:13452   */\n      swap1\n      pop\n        /* \"#utility.yul\":13472:13475   */\n      dup2\n        /* \"#utility.yul\":13469:13470   */\n      0x00\n        /* \"#utility.yul\":13462:13476   */\n      mstore\n        /* \"#utility.yul\":13506:13510   */\n      0x20\n        /* \"#utility.yul\":13503:13504   */\n      0x00\n        /* \"#utility.yul\":13493:13511   */\n      keccak256\n        /* \"#utility.yul\":13485:13511   */\n      swap1\n      pop\n        /* \"#utility.yul\":13377:13518   */\n      swap2\n      swap1\n      pop\n      jump\t// out\n        /* \"#utility.yul\":13524:13617   */\n    tag_166:\n        /* \"#utility.yul\":13561:13567   */\n      0x00\n        /* \"#utility.yul\":13608:13610   */\n      0x20\n        /* \"#utility.yul\":13603:13605   */\n      0x1f\n        /* \"#utility.yul\":13596:13601   */\n      dup4\n        /* \"#utility.yul\":13592:13606   */\n      add\n        /* \"#utility.yul\":13588:13611   */\n      div\n        /* \"#utility.yul\":13578:13611   */\n      swap1\n      pop\n        /* \"#utility.yul\":13524:13617   */\n      swap2\n      swap1\n      pop\n      jump\t// out\n        /* \"#utility.yul\":13623:13730   */\n    tag_167:\n        /* \"#utility.yul\":13667:13675   */\n      0x00\n        /* \"#utility.yul\":13717:13722   */\n      dup3\n        /* \"#utility.yul\":13711:13715   */\n      dup3\n        /* \"#utility.yul\":13707:13723   */\n      shl\n        /* \"#utility.yul\":13686:13723   */\n      swap1\n      pop\n        /* \"#utility.yul\":13623:13730   */\n      swap3\n      swap2\n      pop\n      pop\n      jump\t// out\n        /* \"#utility.yul\":13736:14129   */\n    tag_168:\n        /* \"#utility.yul\":13805:13811   */\n      0x00\n        /* \"#utility.yul\":13855:13856   */\n      0x08\n        /* \"#utility.yul\":13843:13853   */\n      dup4\n        /* \"#utility.yul\":13839:13857   */\n      mul\n        /* \"#utility.yul\":13878:13975   */\n      tag_315\n        /* \"#utility.yul\":13908:13974   */\n      0xffffffffffffffffffffffffffffffffffffffffffffffffffffffffffffffff\n        /* \"#utility.yul\":13897:13906   */\n      dup3\n        /* \"#utility.yul\":13878:13975   */\n      tag_167\n      jump\t// in\n    tag_315:\n        /* \"#utility.yul\":13996:14035   */\n      tag_316\n        /* \"#utility.yul\":14026:14034   */\n      dup7\n        /* \"#utility.yul\":14015:14024   */\n      dup4\n        /* \"#utility.yul\":13996:14035   */\n      tag_167\n      jump\t// in\n    tag_316:\n        /* \"#utility.yul\":13984:14035   */\n      swap6\n      pop\n        /* \"#utility.yul\":14068:14072   */\n      dup1\n        /* \"#utility.yul\":14064:14073   */\n      not\n        /* \"#utility.yul\":14057:14062   */\n      dup5\n        /* \"#utility.yul\":14053:14074   */\n      and\n        /* \"#utility.yul\":14044:14074   */\n      swap4\n      pop\n        /* \"#utility.yul\":14117:14121   */\n      dup1\n        /* \"#utility.yul\":14107:14115   */\n      dup7\n        /* \"#utility.yul\":14103:14122   */\n      and\n        /* \"#utility.yul\":14096:14101   */\n      dup5\n        /* \"#utility.yul\":14093:14123   */\n      or\n        /* \"#utility.yul\":14083:14123   */\n      swap3\n      pop\n        /* \"#utility.yul\":13812:14129   */\n      pop\n      pop\n        /* \"#utility.yul\":13736:14129   */\n      swap4\n      swap3\n      pop\n      pop\n      pop\n      jump\t// out\n        /* \"#utility.yul\":14135:14195   */\n    tag_169:\n        /* \"#utility.yul\":14163:14166   */\n      0x00\n        /* \"#utility.yul\":14184:14189   */\n      dup2\n        /* \"#utility.yul\":14177:14189   */\n      swap1\n      pop\n        /* \"#utility.yul\":14135:14195   */\n      swap2\n      swap1\n      pop\n      jump\t// out\n        /* \"#utility.yul\":14201:14343   */\n    tag_170:\n        /* \"#utility.yul\":14251:14260   */\n      0x00\n        /* \"#utility.yul\":14284:14337   */\n      tag_319\n        /* \"#utility.yul\":14302:14336   */\n      tag_320\n        /* \"#utility.yul\":14311:14335   */\n      tag_321\n        /* \"#utility.yul\":14329:14334   */\n      dup5\n        /* \"#utility.yul\":14311:14335   */\n      tag_142\n      jump\t// in\n    tag_321:\n        /* \"#utility.yul\":14302:14336   */\n      tag_169\n      jump\t// in\n    tag_320:\n        /* \"#utility.yul\":14284:14337   */\n      tag_142\n      jump\t// in\n    tag_319:\n        /* \"#utility.yul\":14271:14337   */\n      swap1\n      pop\n        /* \"#utility.yul\":14201:14343   */\n      swap2\n      swap1\n      pop\n      jump\t// out\n        /* \"#utility.yul\":14349:14424   */\n    tag_171:\n        /* \"#utility.yul\":14392:14395   */\n      0x00\n        /* \"#utility.yul\":14413:14418   */\n      dup2\n        /* \"#utility.yul\":14406:14418   */\n      swap1\n      pop\n        /* \"#utility.yul\":14349:14424   */\n      swap2\n      swap1\n      pop\n      jump\t// out\n        /* \"#utility.yul\":14430:14699   */\n    tag_172:\n        /* \"#utility.yul\":14540:14579   */\n      tag_324\n        /* \"#utility.yul\":14571:14578   */\n      dup4\n        /* \"#utility.yul\":14540:14579   */\n      tag_170\n      jump\t// in\n    tag_324:\n        /* \"#utility.yul\":14601:14692   */\n      tag_325\n        /* \"#utility.yul\":14650:14691   */\n      tag_326\n        /* \"#utility.yul\":14674:14690   */\n      dup3\n        /* \"#utility.yul\":14650:14691   */\n      tag_171\n      jump\t// in\n    tag_326:\n        /* \"#utility.yul\":14642:14648   */\n      dup5\n        /* \"#utility.yul\":14635:14639   */\n      dup5\n        /* \"#utility.yul\":14629:14640   */\n      sload\n        /* \"#utility.yul\":14601:14692   */\n      tag_168\n      jump\t// in\n    tag_325:\n        /* \"#utility.yul\":14595:14599   */\n      dup3\n        /* \"#utility.yul\":14588:14693   */\n      sstore\n        /* \"#utility.yul\":14506:14699   */\n      pop\n        /* \"#utility.yul\":14430:14699   */\n      pop\n      pop\n      pop\n      jump\t// out\n        /* \"#utility.yul\":14705:14778   */\n    tag_173:\n        /* \"#utility.yul\":14750:14753   */\n      0x00\n        /* \"#utility.yul\":14705:14778   */\n      swap1\n      jump\t// out\n        /* \"#utility.yul\":14784:14973   */\n    tag_174:\n        /* \"#utility.yul\":14861:14893   */\n      tag_329\n      tag_173\n      jump\t// in\n    tag_329:\n        /* \"#utility.yul\":14902:14967   */\n      tag_330\n        /* \"#utility.yul\":14960:14966   */\n      dup2\n        /* \"#utility.yul\":14952:14958   */\n      dup5\n        /* \"#utility.yul\":14946:14950   */\n      dup5\n        /* \"#utility.yul\":14902:14967   */\n      tag_172\n      jump\t// in\n    tag_330:\n        /* \"#utility.yul\":14837:14973   */\n      pop\n        /* \"#utility.yul\":14784:14973   */\n      pop\n      pop\n      jump\t// out\n        /* \"#utility.yul\":14979:15165   */\n    tag_175:\n        /* \"#utility.yul\":15039:15159   */\n    tag_332:\n        /* \"#utility.yul\":15056:15059   */\n      dup2\n        /* \"#utility.yul\":15049:15054   */\n      dup2\n        /* \"#utility.yul\":15046:15060   */\n      lt\n        /* \"#utility.yul\":15039:15159   */\n      iszero\n      tag_334\n      jumpi\n        /* \"#utility.yul\":15110:15149   */\n      tag_335\n        /* \"#utility.yul\":15147:15148   */\n      0x00\n        /* \"#utility.yul\":15140:15145   */\n      dup3\n        /* \"#utility.yul\":15110:15149   */\n      tag_174\n      jump\t// in\n    tag_335:\n        /* \"#utility.yul\":15083:15084   */\n      0x01\n        /* \"#utility.yul\":15076:15081   */\n      dup2\n        /* \"#utility.yul\":15072:15085   */\n      add\n        /* \"#utility.yul\":15063:15085   */\n      swap1\n      pop\n        /* \"#utility.yul\":15039:15159   */\n      jump(tag_332)\n    tag_334:\n        /* \"#utility.yul\":14979:15165   */\n      pop\n      pop\n      jump\t// out\n        /* \"#utility.yul\":15171:15714   */\n    tag_176:\n        /* \"#utility.yul\":15272:15274   */\n      0x1f\n        /* \"#utility.yul\":15267:15270   */\n      dup3\n        /* \"#utility.yul\":15264:15275   */\n      gt\n        /* \"#utility.yul\":15261:15707   */\n      iszero\n      tag_337\n      jumpi\n        /* \"#utility.yul\":15306:15344   */\n      tag_338\n        /* \"#utility.yul\":15338:15343   */\n      dup2\n        /* \"#utility.yul\":15306:15344   */\n      tag_165\n      jump\t// in\n    tag_338:\n        /* \"#utility.yul\":15390:15419   */\n      tag_339\n        /* \"#utility.yul\":15408:15418   */\n      dup5\n        /* \"#utility.yul\":15390:15419   */\n      tag_166\n      jump\t// in\n    tag_339:\n        /* \"#utility.yul\":15380:15388   */\n      dup2\n        /* \"#utility.yul\":15376:15420   */\n      add\n        /* \"#utility.yul\":15573:15575   */\n      0x20\n        /* \"#utility.yul\":15561:15571   */\n      dup6\n        /* \"#utility.yul\":15558:15576   */\n      lt\n        /* \"#utility.yul\":15555:15604   */\n      iszero\n      tag_340\n      jumpi\n        /* \"#utility.yul\":15594:15602   */\n      dup2\n        /* \"#utility.yul\":15579:15602   */\n      swap1\n      pop\n        /* \"#utility.yul\":15555:15604   */\n    tag_340:\n        /* \"#utility.yul\":15617:15697   */\n      tag_341\n        /* \"#utility.yul\":15673:15695   */\n      tag_342\n        /* \"#utility.yul\":15691:15694   */\n      dup6\n        /* \"#utility.yul\":15673:15695   */\n      tag_166\n      jump\t// in\n    tag_342:\n        /* \"#utility.yul\":15663:15671   */\n      dup4\n        /* \"#utility.yul\":15659:15696   */\n      add\n        /* \"#utility.yul\":15646:15657   */\n      dup3\n        /* \"#utility.yul\":15617:15697   */\n      tag_175\n      jump\t// in\n    tag_341:\n        /* \"#utility.yul\":15276:15707   */\n      pop\n      pop\n        /* \"#utility.yul\":15261:15707   */\n    tag_337:\n        /* \"#utility.yul\":15171:15714   */\n      pop\n      pop\n      pop\n      jump\t// out\n        /* \"#utility.yul\":15720:15837   */\n    tag_177:\n        /* \"#utility.yul\":15774:15782   */\n      0x00\n        /* \"#utility.yul\":15824:15829   */\n      dup3\n        /* \"#utility.yul\":15818:15822   */\n      dup3\n        /* \"#utility.yul\":15814:15830   */\n      shr\n        /* \"#utility.yul\":15793:15830   */\n      swap1\n      pop\n        /* \"#utility.yul\":15720:15837   */\n      swap3\n      swap2\n      pop\n      pop\n      jump\t// out\n        /* \"#utility.yul\":15843:16012   */\n    tag_178:\n        /* \"#utility.yul\":15887:15893   */\n      0x00\n        /* \"#utility.yul\":15920:15971   */\n      tag_345\n        /* \"#utility.yul\":15968:15969   */\n      0x00\n        /* \"#utility.yul\":15964:15970   */\n      not\n        /* \"#utility.yul\":15956:15961   */\n      dup5\n        /* \"#utility.yul\":15953:15954   */\n      0x08\n        /* \"#utility.yul\":15949:15962   */\n      mul\n        /* \"#utility.yul\":15920:15971   */\n      tag_177\n      jump\t// in\n    tag_345:\n        /* \"#utility.yul\":15916:15972   */\n      not\n        /* \"#utility.yul\":16001:16005   */\n      dup1\n        /* \"#utility.yul\":15995:15999   */\n      dup4\n        /* \"#utility.yul\":15991:16006   */\n      and\n        /* \"#utility.yul\":15981:16006   */\n      swap2\n      pop\n        /* \"#utility.yul\":15894:16012   */\n      pop\n        /* \"#utility.yul\":15843:16012   */\n      swap3\n      swap2\n      pop\n      pop\n      jump\t// out\n        /* \"#utility.yul\":16017:16312   */\n    tag_179:\n        /* \"#utility.yul\":16093:16097   */\n      0x00\n        /* \"#utility.yul\":16239:16268   */\n      tag_347\n        /* \"#utility.yul\":16264:16267   */\n      dup4\n        /* \"#utility.yul\":16258:16262   */\n      dup4\n        /* \"#utility.yul\":16239:16268   */\n      tag_178\n      jump\t// in\n    tag_347:\n        /* \"#utility.yul\":16231:16268   */\n      swap2\n      pop\n        /* \"#utility.yul\":16301:16304   */\n      dup3\n        /* \"#utility.yul\":16298:16299   */\n      0x02\n        /* \"#utility.yul\":16294:16305   */\n      mul\n        /* \"#utility.yul\":16288:16292   */\n      dup3\n        /* \"#utility.yul\":16285:16306   */\n      or\n        /* \"#utility.yul\":16277:16306   */\n      swap1\n      pop\n        /* \"#utility.yul\":16017:16312   */\n      swap3\n      swap2\n      pop\n      pop\n      jump\t// out\n        /* \"#utility.yul\":16317:17712   */\n    tag_38:\n        /* \"#utility.yul\":16434:16471   */\n      tag_349\n        /* \"#utility.yul\":16467:16470   */\n      dup3\n        /* \"#utility.yul\":16434:16471   */\n      tag_148\n      jump\t// in\n    tag_349:\n        /* \"#utility.yul\":16536:16554   */\n      0xffffffffffffffff\n        /* \"#utility.yul\":16528:16534   */\n      dup2\n        /* \"#utility.yul\":16525:16555   */\n      gt\n        /* \"#utility.yul\":16522:16578   */\n      iszero\n      tag_350\n      jumpi\n        /* \"#utility.yul\":16558:16576   */\n      tag_351\n      tag_86\n      jump\t// in\n    tag_351:\n        /* \"#utility.yul\":16522:16578   */\n    tag_350:\n        /* \"#utility.yul\":16602:16640   */\n      tag_352\n        /* \"#utility.yul\":16634:16638   */\n      dup3\n        /* \"#utility.yul\":16628:16639   */\n      sload\n        /* \"#utility.yul\":16602:16640   */\n      tag_66\n      jump\t// in\n    tag_352:\n        /* \"#utility.yul\":16687:16754   */\n      tag_353\n        /* \"#utility.yul\":16747:16753   */\n      dup3\n        /* \"#utility.yul\":16739:16745   */\n      dup3\n        /* \"#utility.yul\":16733:16737   */\n      dup6\n        /* \"#utility.yul\":16687:16754   */\n      tag_176\n      jump\t// in\n    tag_353:\n        /* \"#utility.yul\":16781:16782   */\n      0x00\n        /* \"#utility.yul\":16805:16809   */\n      0x20\n        /* \"#utility.yul\":16792:16809   */\n      swap1\n      pop\n        /* \"#utility.yul\":16837:16839   */\n      0x1f\n        /* \"#utility.yul\":16829:16835   */\n      dup4\n        /* \"#utility.yul\":16826:16840   */\n      gt\n        /* \"#utility.yul\":16854:16855   */\n      0x01\n        /* \"#utility.yul\":16849:17467   */\n      dup2\n      eq\n      tag_355\n      jumpi\n        /* \"#utility.yul\":17511:17512   */\n      0x00\n        /* \"#utility.yul\":17528:17534   */\n      dup5\n        /* \"#utility.yul\":17525:17602   */\n      iszero\n      tag_356\n      jumpi\n        /* \"#utility.yul\":17577:17586   */\n      dup3\n        /* \"#utility.yul\":17572:17575   */\n      dup8\n        /* \"#utility.yul\":17568:17587   */\n      add\n        /* \"#utility.yul\":17562:17588   */\n      mload\n        /* \"#utility.yul\":17553:17588   */\n      swap1\n      pop\n        /* \"#utility.yul\":17525:17602   */\n    tag_356:\n        /* \"#utility.yul\":17628:17695   */\n      tag_357\n        /* \"#utility.yul\":17688:17694   */\n      dup6\n        /* \"#utility.yul\":17681:17686   */\n      dup3\n        /* \"#utility.yul\":17628:17695   */\n      tag_179\n      jump\t// in\n    tag_357:\n        /* \"#utility.yul\":17622:17626   */\n      dup7\n        /* \"#utility.yul\":17615:17696   */\n      sstore\n        /* \"#utility.yul\":17484:17706   */\n      pop\n        /* \"#utility.yul\":16819:17706   */\n      jump(tag_354)\n        /* \"#utility.yul\":16849:17467   */\n    tag_355:\n        /* \"#utility.yul\":16901:16905   */\n      0x1f\n        /* \"#utility.yul\":16897:16906   */\n      not\n        /* \"#utility.yul\":16889:16895   */\n      dup5\n        /* \"#utility.yul\":16885:16907   */\n      and\n        /* \"#utility.yul\":16935:16972   */\n      tag_358\n        /* \"#utility.yul\":16967:16971   */\n      dup7\n        /* \"#utility.yul\":16935:16972   */\n      tag_165\n      jump\t// in\n    tag_358:\n        /* \"#utility.yul\":16994:16995   */\n      0x00\n        /* \"#utility.yul\":17008:17216   */\n    tag_359:\n        /* \"#utility.yul\":17022:17029   */\n      dup3\n        /* \"#utility.yul\":17019:17020   */\n      dup2\n        /* \"#utility.yul\":17016:17030   */\n      lt\n        /* \"#utility.yul\":17008:17216   */\n      iszero\n      tag_361\n      jumpi\n        /* \"#utility.yul\":17101:17110   */\n      dup5\n        /* \"#utility.yul\":17096:17099   */\n      dup10\n        /* \"#utility.yul\":17092:17111   */\n      add\n        /* \"#utility.yul\":17086:17112   */\n      mload\n        /* \"#utility.yul\":17078:17084   */\n      dup3\n        /* \"#utility.yul\":17071:17113   */\n      sstore\n        /* \"#utility.yul\":17152:17153   */\n      0x01\n        /* \"#utility.yul\":17144:17150   */\n      dup3\n        /* \"#utility.yul\":17140:17154   */\n      add\n        /* \"#utility.yul\":17130:17154   */\n      swap2\n      pop\n        /* \"#utility.yul\":17199:17201   */\n      0x20\n        /* \"#utility.yul\":17188:17197   */\n      dup6\n        /* \"#utility.yul\":17184:17202   */\n      add\n        /* \"#utility.yul\":17171:17202   */\n      swap5\n      pop\n        /* \"#utility.yul\":17045:17049   */\n      0x20\n        /* \"#utility.yul\":17042:17043   */\n      dup2\n        /* \"#utility.yul\":17038:17050   */\n      add\n        /* \"#utility.yul\":17033:17050   */\n      swap1\n      pop\n        /* \"#utility.yul\":17008:17216   */\n      jump(tag_359)\n    tag_361:\n        /* \"#utility.yul\":17244:17250   */\n      dup7\n        /* \"#utility.yul\":17235:17242   */\n      dup4\n        /* \"#utility.yul\":17232:17251   */\n      lt\n        /* \"#utility.yul\":17229:17408   */\n      iszero\n      tag_362\n      jumpi\n        /* \"#utility.yul\":17302:17311   */\n      dup5\n        /* \"#utility.yul\":17297:17300   */\n      dup10\n        /* \"#utility.yul\":17293:17312   */\n      add\n        /* \"#utility.yul\":17287:17313   */\n      mload\n        /* \"#utility.yul\":17345:17393   */\n      tag_363\n        /* \"#utility.yul\":17387:17391   */\n      0x1f\n        /* \"#utility.yul\":17379:17385   */\n      dup10\n        /* \"#utility.yul\":17375:17392   */\n      and\n        /* \"#utility.yul\":17364:17373   */\n      dup3\n        /* \"#utility.yul\":17345:17393   */\n      tag_178\n      jump\t// in\n    tag_363:\n        /* \"#utility.yul\":17337:17343   */\n      dup4\n        /* \"#utility.yul\":17330:17394   */\n      sstore\n        /* \"#utility.yul\":17252:17408   */\n      pop\n        /* \"#utility.yul\":17229:17408   */\n    tag_362:\n        /* \"#utility.yul\":17454:17455   */\n      0x01\n        /* \"#utility.yul\":17450:17451   */\n      0x02\n        /* \"#utility.yul\":17442:17448   */\n      dup9\n        /* \"#utility.yul\":17438:17452   */\n      mul\n        /* \"#utility.yul\":17434:17456   */\n      add\n        /* \"#utility.yul\":17428:17432   */\n      dup9\n        /* \"#utility.yul\":17421:17457   */\n      sstore\n        /* \"#utility.yul\":16856:17467   */\n      pop\n      pop\n      pop\n        /* \"#utility.yul\":16819:17706   */\n    tag_354:\n      pop\n        /* \"#utility.yul\":16409:17712   */\n      pop\n      pop\n      pop\n        /* \"#utility.yul\":16317:17712   */\n      pop\n      pop\n      jump\t// out\n        /* \"#utility.yul\":17718:17866   */\n    tag_180:\n        /* \"#utility.yul\":17820:17831   */\n      0x00\n        /* \"#utility.yul\":17857:17860   */\n      dup2\n        /* \"#utility.yul\":17842:17860   */\n      swap1\n      pop\n        /* \"#utility.yul\":17718:17866   */\n      swap3\n      swap2\n      pop\n      pop\n      jump\t// out\n        /* \"#utility.yul\":17872:18262   */\n    tag_181:\n        /* \"#utility.yul\":17978:17981   */\n      0x00\n        /* \"#utility.yul\":18006:18045   */\n      tag_366\n        /* \"#utility.yul\":18039:18044   */\n      dup3\n        /* \"#utility.yul\":18006:18045   */\n      tag_148\n      jump\t// in\n    tag_366:\n        /* \"#utility.yul\":18061:18150   */\n      tag_367\n        /* \"#utility.yul\":18143:18149   */\n      dup2\n        /* \"#utility.yul\":18138:18141   */\n      dup6\n        /* \"#utility.yul\":18061:18150   */\n      tag_180\n      jump\t// in\n    tag_367:\n        /* \"#utility.yul\":18054:18150   */\n      swap4\n      pop\n        /* \"#utility.yul\":18159:18224   */\n      tag_368\n        /* \"#utility.yul\":18217:18223   */\n      dup2\n        /* \"#utility.yul\":18212:18215   */\n      dup6\n        /* \"#utility.yul\":18205:18209   */\n      0x20\n        /* \"#utility.yul\":18198:18203   */\n      dup7\n        /* \"#utility.yul\":18194:18210   */\n      add\n        /* \"#utility.yul\":18159:18224   */\n      tag_150\n      jump\t// in\n    tag_368:\n        /* \"#utility.yul\":18249:18255   */\n      dup1\n        /* \"#utility.yul\":18244:18247   */\n      dup5\n        /* \"#utility.yul\":18240:18256   */\n      add\n        /* \"#utility.yul\":18233:18256   */\n      swap2\n      pop\n        /* \"#utility.yul\":17982:18262   */\n      pop\n        /* \"#utility.yul\":17872:18262   */\n      swap3\n      swap2\n      pop\n      pop\n      jump\t// out\n        /* \"#utility.yul\":18268:18543   */\n    tag_47:\n        /* \"#utility.yul\":18400:18403   */\n      0x00\n        /* \"#utility.yul\":18422:18517   */\n      tag_370\n        /* \"#utility.yul\":18513:18516   */\n      dup3\n        /* \"#utility.yul\":18504:18510   */\n      dup5\n        /* \"#utility.yul\":18422:18517   */\n      tag_181\n      jump\t// in\n    tag_370:\n        /* \"#utility.yul\":18415:18517   */\n      swap2\n      pop\n        /* \"#utility.yul\":18534:18537   */\n      dup2\n        /* \"#utility.yul\":18527:18537   */\n      swap1\n      pop\n        /* \"#utility.yul\":18268:18543   */\n      swap3\n      swap2\n      pop\n      pop\n      jump\t// out\n        /* \"#utility.yul\":18549:18729   */\n    tag_50:\n        /* \"#utility.yul\":18597:18674   */\n      0x4e487b7100000000000000000000000000000000000000000000000000000000\n        /* \"#utility.yul\":18594:18595   */\n      0x00\n        /* \"#utility.yul\":18587:18675   */\n      mstore\n        /* \"#utility.yul\":18694:18698   */\n      0x32\n        /* \"#utility.yul\":18691:18692   */\n      0x04\n        /* \"#utility.yul\":18684:18699   */\n      mstore\n        /* \"#utility.yul\":18718:18722   */\n      0x24\n        /* \"#utility.yul\":18715:18716   */\n      0x00\n        /* \"#utility.yul\":18708:18723   */\n      revert\n        /* \"#utility.yul\":18759:19633   */\n    tag_182:\n        /* \"#utility.yul\":18862:18865   */\n      0x00\n        /* \"#utility.yul\":18899:18904   */\n      dup2\n        /* \"#utility.yul\":18893:18905   */\n      sload\n        /* \"#utility.yul\":18928:18964   */\n      tag_373\n        /* \"#utility.yul\":18954:18963   */\n      dup2\n        /* \"#utility.yul\":18928:18964   */\n      tag_66\n      jump\t// in\n    tag_373:\n        /* \"#utility.yul\":18980:19069   */\n      tag_374\n        /* \"#utility.yul\":19062:19068   */\n      dup2\n        /* \"#utility.yul\":19057:19060   */\n      dup7\n        /* \"#utility.yul\":18980:19069   */\n      tag_180\n      jump\t// in\n    tag_374:\n        /* \"#utility.yul\":18973:19069   */\n      swap5\n      pop\n        /* \"#utility.yul\":19100:19101   */\n      0x01\n        /* \"#utility.yul\":19089:19098   */\n      dup3\n        /* \"#utility.yul\":19085:19102   */\n      and\n        /* \"#utility.yul\":19116:19117   */\n      0x00\n        /* \"#utility.yul\":19111:19277   */\n      dup2\n      eq\n      tag_376\n      jumpi\n        /* \"#utility.yul\":19291:19292   */\n      0x01\n        /* \"#utility.yul\":19286:19627   */\n      dup2\n      eq\n      tag_377\n      jumpi\n        /* \"#utility.yul\":19078:19627   */\n      jump(tag_375)\n        /* \"#utility.yul\":19111:19277   */\n    tag_376:\n        /* \"#utility.yul\":19195:19199   */\n      0xff\n        /* \"#utility.yul\":19191:19200   */\n      not\n        /* \"#utility.yul\":19180:19189   */\n      dup4\n        /* \"#utility.yul\":19176:19201   */\n      and\n        /* \"#utility.yul\":19171:19174   */\n      dup7\n        /* \"#utility.yul\":19164:19202   */\n      mstore\n        /* \"#utility.yul\":19257:19263   */\n      dup2\n        /* \"#utility.yul\":19250:19264   */\n      iszero\n        /* \"#utility.yul\":19243:19265   */\n      iszero\n        /* \"#utility.yul\":19235:19241   */\n      dup3\n        /* \"#utility.yul\":19231:19266   */\n      mul\n        /* \"#utility.yul\":19226:19229   */\n      dup7\n        /* \"#utility.yul\":19222:19267   */\n      add\n        /* \"#utility.yul\":19215:19267   */\n      swap4\n      pop\n        /* \"#utility.yul\":19111:19277   */\n      jump(tag_375)\n        /* \"#utility.yul\":19286:19627   */\n    tag_377:\n        /* \"#utility.yul\":19353:19391   */\n      tag_378\n        /* \"#utility.yul\":19385:19390   */\n      dup6\n        /* \"#utility.yul\":19353:19391   */\n      tag_165\n      jump\t// in\n    tag_378:\n        /* \"#utility.yul\":19413:19414   */\n      0x00\n        /* \"#utility.yul\":19427:19581   */\n    tag_379:\n        /* \"#utility.yul\":19441:19447   */\n      dup4\n        /* \"#utility.yul\":19438:19439   */\n      dup2\n        /* \"#utility.yul\":19435:19448   */\n      lt\n        /* \"#utility.yul\":19427:19581   */\n      iszero\n      tag_381\n      jumpi\n        /* \"#utility.yul\":19515:19522   */\n      dup2\n        /* \"#utility.yul\":19509:19523   */\n      sload\n        /* \"#utility.yul\":19505:19506   */\n      dup2\n        /* \"#utility.yul\":19500:19503   */\n      dup10\n        /* \"#utility.yul\":19496:19507   */\n      add\n        /* \"#utility.yul\":19489:19524   */\n      mstore\n        /* \"#utility.yul\":19565:19566   */\n      0x01\n        /* \"#utility.yul\":19556:19563   */\n      dup3\n        /* \"#utility.yul\":19552:19567   */\n      add\n        /* \"#utility.yul\":19541:19567   */\n      swap2\n      pop\n        /* \"#utility.yul\":19463:19467   */\n      0x20\n        /* \"#utility.yul\":19460:19461   */\n      dup2\n        /* \"#utility.yul\":19456:19468   */\n      add\n        /* \"#utility.yul\":19451:19468   */\n      swap1\n      pop\n        /* \"#utility.yul\":19427:19581   */\n      jump(tag_379)\n    tag_381:\n        /* \"#utility.yul\":19610:19616   */\n      dup4\n        /* \"#utility.yul\":19605:19608   */\n      dup9\n        /* \"#utility.yul\":19601:19617   */\n      add\n        /* \"#utility.yul\":19594:19617   */\n      swap6\n      pop\n        /* \"#utility.yul\":19293:19627   */\n      pop\n      pop\n        /* \"#utility.yul\":19078:19627   */\n    tag_375:\n      pop\n        /* \"#utility.yul\":18866:19633   */\n      pop\n      pop\n        /* \"#utility.yul\":18759:19633   */\n      swap3\n      swap2\n      pop\n      pop\n      jump\t// out\n        /* \"#utility.yul\":19639:19908   */\n    tag_53:\n        /* \"#utility.yul\":19768:19771   */\n      0x00\n        /* \"#utility.yul\":19790:19882   */\n      tag_383\n        /* \"#utility.yul\":19878:19881   */\n      dup3\n        /* \"#utility.yul\":19869:19875   */\n      dup5\n        /* \"#utility.yul\":19790:19882   */\n      tag_182\n      jump\t// in\n    tag_383:\n        /* \"#utility.yul\":19783:19882   */\n      swap2\n      pop\n        /* \"#utility.yul\":19899:19902   */\n      dup2\n        /* \"#utility.yul\":19892:19902   */\n      swap1\n      pop\n        /* \"#utility.yul\":19639:19908   */\n      swap3\n      swap2\n      pop\n      pop\n      jump\t// out\n        /* \"#utility.yul\":19914:20147   */\n    tag_56:\n        /* \"#utility.yul\":19953:19956   */\n      0x00\n        /* \"#utility.yul\":19976:20000   */\n      tag_385\n        /* \"#utility.yul\":19994:19999   */\n      dup3\n        /* \"#utility.yul\":19976:20000   */\n      tag_142\n      jump\t// in\n    tag_385:\n        /* \"#utility.yul\":19967:20000   */\n      swap2\n      pop\n        /* \"#utility.yul\":20022:20088   */\n      0xffffffffffffffffffffffffffffffffffffffffffffffffffffffffffffffff\n        /* \"#utility.yul\":20015:20020   */\n      dup3\n        /* \"#utility.yul\":20012:20089   */\n      sub\n        /* \"#utility.yul\":20009:20112   */\n      tag_386\n      jumpi\n        /* \"#utility.yul\":20092:20110   */\n      tag_387\n      tag_163\n      jump\t// in\n    tag_387:\n        /* \"#utility.yul\":20009:20112   */\n    tag_386:\n        /* \"#utility.yul\":20139:20140   */\n      0x01\n        /* \"#utility.yul\":20132:20137   */\n      dup3\n        /* \"#utility.yul\":20128:20141   */\n      add\n        /* \"#utility.yul\":20121:20141   */\n      swap1\n      pop\n        /* \"#utility.yul\":19914:20147   */\n      swap2\n      swap1\n      pop\n      jump\t// out\n        /* \"#utility.yul\":20153:20267   */\n    tag_183:\n      pop\n      jump\t// out\n        /* \"#utility.yul\":20273:20673   */\n    tag_184:\n        /* \"#utility.yul\":20433:20436   */\n      0x00\n        /* \"#utility.yul\":20454:20538   */\n      tag_390\n        /* \"#utility.yul\":20536:20537   */\n      0x00\n        /* \"#utility.yul\":20531:20534   */\n      dup4\n        /* \"#utility.yul\":20454:20538   */\n      tag_180\n      jump\t// in\n    tag_390:\n        /* \"#utility.yul\":20447:20538   */\n      swap2\n      pop\n        /* \"#utility.yul\":20547:20640   */\n      tag_391\n        /* \"#utility.yul\":20636:20639   */\n      dup3\n        /* \"#utility.yul\":20547:20640   */\n      tag_183\n      jump\t// in\n    tag_391:\n        /* \"#utility.yul\":20665:20666   */\n      0x00\n        /* \"#utility.yul\":20660:20663   */\n      dup3\n        /* \"#utility.yul\":20656:20667   */\n      add\n        /* \"#utility.yul\":20649:20667   */\n      swap1\n      pop\n        /* \"#utility.yul\":20273:20673   */\n      swap2\n      swap1\n      pop\n      jump\t// out\n        /* \"#utility.yul\":20679:21060   */\n    tag_73:\n        /* \"#utility.yul\":20864:20867   */\n      0x00\n        /* \"#utility.yul\":20886:21034   */\n      tag_393\n        /* \"#utility.yul\":21030:21033   */\n      dup3\n        /* \"#utility.yul\":20886:21034   */\n      tag_184\n      jump\t// in\n    tag_393:\n        /* \"#utility.yul\":20879:21034   */\n      swap2\n      pop\n        /* \"#utility.yul\":21051:21054   */\n      dup2\n        /* \"#utility.yul\":21044:21054   */\n      swap1\n      pop\n        /* \"#utility.yul\":20679:21060   */\n      swap2\n      swap1\n      pop\n      jump\t// out\n\n    auxdata: 0xa26469706673582212201013dca2d25b146a6e3c467ecd0b62fa0476ed2014ef880950e614592ab377c564736f6c63430008110033\n}\n",
				"bytecode": {
					"linkReferences": {},
					"object": "608060405260405180608001604052806040518060400160405280600981526020017f536d617270686f6e65000000000000000000000000000000000000000000000081525081526020016040518060400160405280600481526020017f47616d650000000000000000000000000000000000000000000000000000000081525081526020016040518060400160405280600681526020017f4c6170746f70000000000000000000000000000000000000000000000000000081525081526020016040518060400160405280600a81526020017f54656c65766973696f6e0000000000000000000000000000000000000000000081525081525060009060046200010b92919062000120565b503480156200011957600080fd5b506200056e565b8280548282559060005260206000209081019282156200016d579160200282015b828111156200016c5782518290816200015b919062000487565b509160200191906001019062000141565b5b5090506200017c919062000180565b5090565b5b80821115620001a457600081816200019a9190620001a8565b5060010162000181565b5090565b508054620001b69062000276565b6000825580601f10620001ca5750620001eb565b601f016020900490600052602060002090810190620001ea9190620001ee565b5b50565b5b8082111562000209576000816000905550600101620001ef565b5090565b600081519050919050565b7f4e487b7100000000000000000000000000000000000000000000000000000000600052604160045260246000fd5b7f4e487b7100000000000000000000000000000000000000000000000000000000600052602260045260246000fd5b600060028204905060018216806200028f57607f821691505b602082108103620002a557620002a462000247565b5b50919050565b60008190508160005260206000209050919050565b60006020601f8301049050919050565b600082821b905092915050565b6000600883026200030f7fffffffffffffffffffffffffffffffffffffffffffffffffffffffffffffffff82620002d0565b6200031b8683620002d0565b95508019841693508086168417925050509392505050565b6000819050919050565b6000819050919050565b600062000368620003626200035c8462000333565b6200033d565b62000333565b9050919050565b6000819050919050565b620003848362000347565b6200039c62000393826200036f565b848454620002dd565b825550505050565b600090565b620003b3620003a4565b620003c081848462000379565b505050565b5b81811015620003e857620003dc600082620003a9565b600181019050620003c6565b5050565b601f82111562000437576200040181620002ab565b6200040c84620002c0565b810160208510156200041c578190505b620004346200042b85620002c0565b830182620003c5565b50505b505050565b600082821c905092915050565b60006200045c600019846008026200043c565b1980831691505092915050565b600062000477838362000449565b9150826002028217905092915050565b62000492826200020d565b67ffffffffffffffff811115620004ae57620004ad62000218565b5b620004ba825462000276565b620004c7828285620003ec565b600060209050601f831160018114620004ff5760008415620004ea578287015190505b620004f6858262000469565b86555062000566565b601f1984166200050f86620002ab565b60005b82811015620005395784890151825560018201915060208501945060208101905062000512565b8683101562000559578489015162000555601f89168262000449565b8355505b6001600288020188555050505b505050505050565b6114a4806200057e6000396000f3fe608060405234801561001057600080fd5b50600436106100625760003560e01c8063094455c4146100675780632e0dcbf71461008357806338789d3a1461009f57806380258e47146100bb578063c2657513146100d9578063c29b2f2014610109575b600080fd5b610081600480360381019061007c9190610b57565b610127565b005b61009d60048036038101906100989190610bda565b6101cf565b005b6100b960048036038101906100b49190610c23565b610207565b005b6100c361037a565b6040516100d09190610e03565b60405180910390f35b6100f360048036038101906100ee9190610bda565b610453565b6040516101009190610f6c565b60405180910390f35b61011161087f565b60405161011e9190610f6c565b60405180910390f35b60016040518060a00160405280600180805490506101459190610fbd565b81526020018681526020018581526020018481526020018381525090806001815401808255809150506001900390600052602060002090600502016000909190919091506000820151816000015560208201518160010190816101a891906111fd565b50604082015181600201556060820151816003015560808201518160040155505050505050565b60008190806001815401808255809150506001900390600052602060002001600090919091909150908161020391906111fd565b5050565b60007fffffffffffffffffffffffffffffffffffffffffffffffffffffffffffffffff905060005b6000805490508110156102c7578260405160200161024d919061130b565b604051602081830303815290604052805190602001206000828154811061027757610276611322565b5b9060005260206000200160405160200161029191906113d4565b60405160208183030381529060405280519060200120036102b4578091506102c7565b80806102bf906113eb565b91505061022f565b50600181146103735760016040518060a00160405280600180805490506102ee9190610fbd565b815260200187815260200186815260200185815260200183815250908060018154018082558091505060019003906000526020600020906005020160009091909190915060008201518160000155602082015181600101908161035191906111fd565b5060408201518160020155606082015181600301556080820151816004015550505b5050505050565b60606000805480602002602001604051908101604052809291908181526020016000905b8282101561044a5783829060005260206000200180546103bd90611020565b80601f01602080910402602001604051908101604052809291908181526020018280546103e990611020565b80156104365780601f1061040b57610100808354040283529160200191610436565b820191906000526020600020905b81548152906001019060200180831161041957829003601f168201915b50505050508152602001906001019061039e565b50505050905090565b606060405160200161046490611459565b604051602081830303815290604052805190602001208260405160200161048b919061130b565b60405160208183030381529060405280519060200120036105bf576001805480602002602001604051908101604052809291908181526020016000905b828210156105b457838290600052602060002090600502016040518060a00160405290816000820154815260200160018201805461050590611020565b80601f016020809104026020016040519081016040528092919081815260200182805461053190611020565b801561057e5780601f106105535761010080835404028352916020019161057e565b820191906000526020600020905b81548152906001019060200180831161056157829003601f168201915b505050505081526020016002820154815260200160038201548152602001600482015481525050815260200190600101906104c8565b50505050905061087a565b600060018054905067ffffffffffffffff8111156105e0576105df6109f6565b5b60405190808252806020026020018201604052801561061957816020015b610606610998565b8152602001906001900390816105fe5790505b50905060007fffffffffffffffffffffffffffffffffffffffffffffffffffffffffffffffff905060005b6000805490508110156106dc5784604051602001610662919061130b565b604051602081830303815290604052805190602001206000828154811061068c5761068b611322565b5b906000526020600020016040516020016106a691906113d4565b60405160208183030381529060405280519060200120036106c9578091506106dc565b80806106d4906113eb565b915050610644565b507fffffffffffffffffffffffffffffffffffffffffffffffffffffffffffffffff810361070e57819250505061087a565b6000805b60018054905081101561087257826001828154811061073457610733611322565b5b9060005260206000209060050201600401540361085f576001818154811061075f5761075e611322565b5b90600052602060002090600502016040518060a00160405290816000820154815260200160018201805461079290611020565b80601f01602080910402602001604051908101604052809291908181526020018280546107be90611020565b801561080b5780601f106107e05761010080835404028352916020019161080b565b820191906000526020600020905b8154815290600101906020018083116107ee57829003601f168201915b50505050508152602001600282015481526020016003820154815260200160048201548152505084838151811061084557610844611322565b5b6020026020010181905250818061085b906113eb565b9250505b808061086a906113eb565b915050610712565b508293505050505b919050565b60606001805480602002602001604051908101604052809291908181526020016000905b8282101561098f57838290600052602060002090600502016040518060a0016040529081600082015481526020016001820180546108e090611020565b80601f016020809104026020016040519081016040528092919081815260200182805461090c90611020565b80156109595780601f1061092e57610100808354040283529160200191610959565b820191906000526020600020905b81548152906001019060200180831161093c57829003601f168201915b505050505081526020016002820154815260200160038201548152602001600482015481525050815260200190600101906108a3565b50505050905090565b6040518060a0016040528060008152602001606081526020016000815260200160008152602001600081525090565b6000604051905090565b600080fd5b600080fd5b600080fd5b600080fd5b6000601f19601f8301169050919050565b7f4e487b7100000000000000000000000000000000000000000000000000000000600052604160045260246000fd5b610a2e826109e5565b810181811067ffffffffffffffff82111715610a4d57610a4c6109f6565b5b80604052505050565b6000610a606109c7565b9050610a6c8282610a25565b919050565b600067ffffffffffffffff821115610a8c57610a8b6109f6565b5b610a95826109e5565b9050602081019050919050565b82818337600083830152505050565b6000610ac4610abf84610a71565b610a56565b905082815260208101848484011115610ae057610adf6109e0565b5b610aeb848285610aa2565b509392505050565b600082601f830112610b0857610b076109db565b5b8135610b18848260208601610ab1565b91505092915050565b6000819050919050565b610b3481610b21565b8114610b3f57600080fd5b50565b600081359050610b5181610b2b565b92915050565b60008060008060808587031215610b7157610b706109d1565b5b600085013567ffffffffffffffff811115610b8f57610b8e6109d6565b5b610b9b87828801610af3565b9450506020610bac87828801610b42565b9350506040610bbd87828801610b42565b9250506060610bce87828801610b42565b91505092959194509250565b600060208284031215610bf057610bef6109d1565b5b600082013567ffffffffffffffff811115610c0e57610c0d6109d6565b5b610c1a84828501610af3565b91505092915050565b60008060008060808587031215610c3d57610c3c6109d1565b5b600085013567ffffffffffffffff811115610c5b57610c5a6109d6565b5b610c6787828801610af3565b9450506020610c7887828801610b42565b9350506040610c8987828801610b42565b925050606085013567ffffffffffffffff811115610caa57610ca96109d6565b5b610cb687828801610af3565b91505092959194509250565b600081519050919050565b600082825260208201905092915050565b6000819050602082019050919050565b600081519050919050565b600082825260208201905092915050565b60005b83811015610d28578082015181840152602081019050610d0d565b60008484015250505050565b6000610d3f82610cee565b610d498185610cf9565b9350610d59818560208601610d0a565b610d62816109e5565b840191505092915050565b6000610d798383610d34565b905092915050565b6000602082019050919050565b6000610d9982610cc2565b610da38185610ccd565b935083602082028501610db585610cde565b8060005b85811015610df15784840389528151610dd28582610d6d565b9450610ddd83610d81565b925060208a01995050600181019050610db9565b50829750879550505050505092915050565b60006020820190508181036000830152610e1d8184610d8e565b905092915050565b600081519050919050565b600082825260208201905092915050565b6000819050602082019050919050565b610e5a81610b21565b82525050565b600060a083016000830151610e786000860182610e51565b5060208301518482036020860152610e908282610d34565b9150506040830151610ea56040860182610e51565b506060830151610eb86060860182610e51565b506080830151610ecb6080860182610e51565b508091505092915050565b6000610ee28383610e60565b905092915050565b6000602082019050919050565b6000610f0282610e25565b610f0c8185610e30565b935083602082028501610f1e85610e41565b8060005b85811015610f5a5784840389528151610f3b8582610ed6565b9450610f4683610eea565b925060208a01995050600181019050610f22565b50829750879550505050505092915050565b60006020820190508181036000830152610f868184610ef7565b905092915050565b7f4e487b7100000000000000000000000000000000000000000000000000000000600052601160045260246000fd5b6000610fc882610b21565b9150610fd383610b21565b9250828201905080821115610feb57610fea610f8e565b5b92915050565b7f4e487b7100000000000000000000000000000000000000000000000000000000600052602260045260246000fd5b6000600282049050600182168061103857607f821691505b60208210810361104b5761104a610ff1565b5b50919050565b60008190508160005260206000209050919050565b60006020601f8301049050919050565b600082821b905092915050565b6000600883026110b37fffffffffffffffffffffffffffffffffffffffffffffffffffffffffffffffff82611076565b6110bd8683611076565b95508019841693508086168417925050509392505050565b6000819050919050565b60006110fa6110f56110f084610b21565b6110d5565b610b21565b9050919050565b6000819050919050565b611114836110df565b61112861112082611101565b848454611083565b825550505050565b600090565b61113d611130565b61114881848461110b565b505050565b5b8181101561116c57611161600082611135565b60018101905061114e565b5050565b601f8211156111b15761118281611051565b61118b84611066565b8101602085101561119a578190505b6111ae6111a685611066565b83018261114d565b50505b505050565b600082821c905092915050565b60006111d4600019846008026111b6565b1980831691505092915050565b60006111ed83836111c3565b9150826002028217905092915050565b61120682610cee565b67ffffffffffffffff81111561121f5761121e6109f6565b5b6112298254611020565b611234828285611170565b600060209050601f8311600181146112675760008415611255578287015190505b61125f85826111e1565b8655506112c7565b601f19841661127586611051565b60005b8281101561129d57848901518255600182019150602085019450602081019050611278565b868310156112ba57848901516112b6601f8916826111c3565b8355505b6001600288020188555050505b505050505050565b600081905092915050565b60006112e582610cee565b6112ef81856112cf565b93506112ff818560208601610d0a565b80840191505092915050565b600061131782846112da565b915081905092915050565b7f4e487b7100000000000000000000000000000000000000000000000000000000600052603260045260246000fd5b6000815461135e81611020565b61136881866112cf565b945060018216600081146113835760018114611398576113cb565b60ff19831686528115158202860193506113cb565b6113a185611051565b60005b838110156113c3578154818901526001820191506020810190506113a4565b838801955050505b50505092915050565b60006113e08284611351565b915081905092915050565b60006113f682610b21565b91507fffffffffffffffffffffffffffffffffffffffffffffffffffffffffffffffff820361142857611427610f8e565b5b600182019050919050565b50565b60006114436000836112cf565b915061144e82611433565b600082019050919050565b600061146482611436565b915081905091905056fea26469706673582212201013dca2d25b146a6e3c467ecd0b62fa0476ed2014ef880950e614592ab377c564736f6c63430008110033",
					"opcodes": "PUSH1 0x80 PUSH1 0x40 MSTORE PUSH1 0x40 MLOAD DUP1 PUSH1 0x80 ADD PUSH1 0x40 MSTORE DUP1 PUSH1 0x40 MLOAD DUP1 PUSH1 0x40 ADD PUSH1 0x40 MSTORE DUP1 PUSH1 0x9 DUP2 MSTORE PUSH1 0x20 ADD PUSH32 0x536D617270686F6E650000000000000000000000000000000000000000000000 DUP2 MSTORE POP DUP2 MSTORE PUSH1 0x20 ADD PUSH1 0x40 MLOAD DUP1 PUSH1 0x40 ADD PUSH1 0x40 MSTORE DUP1 PUSH1 0x4 DUP2 MSTORE PUSH1 0x20 ADD PUSH32 0x47616D6500000000000000000000000000000000000000000000000000000000 DUP2 MSTORE POP DUP2 MSTORE PUSH1 0x20 ADD PUSH1 0x40 MLOAD DUP1 PUSH1 0x40 ADD PUSH1 0x40 MSTORE DUP1 PUSH1 0x6 DUP2 MSTORE PUSH1 0x20 ADD PUSH32 0x4C6170746F700000000000000000000000000000000000000000000000000000 DUP2 MSTORE POP DUP2 MSTORE PUSH1 0x20 ADD PUSH1 0x40 MLOAD DUP1 PUSH1 0x40 ADD PUSH1 0x40 MSTORE DUP1 PUSH1 0xA DUP2 MSTORE PUSH1 0x20 ADD PUSH32 0x54656C65766973696F6E00000000000000000000000000000000000000000000 DUP2 MSTORE POP DUP2 MSTORE POP PUSH1 0x0 SWAP1 PUSH1 0x4 PUSH3 0x10B SWAP3 SWAP2 SWAP1 PUSH3 0x120 JUMP JUMPDEST POP CALLVALUE DUP1 ISZERO PUSH3 0x119 JUMPI PUSH1 0x0 DUP1 REVERT JUMPDEST POP PUSH3 0x56E JUMP JUMPDEST DUP3 DUP1 SLOAD DUP3 DUP3 SSTORE SWAP1 PUSH1 0x0 MSTORE PUSH1 0x20 PUSH1 0x0 KECCAK256 SWAP1 DUP2 ADD SWAP3 DUP3 ISZERO PUSH3 0x16D JUMPI SWAP2 PUSH1 0x20 MUL DUP3 ADD JUMPDEST DUP3 DUP2 GT ISZERO PUSH3 0x16C JUMPI DUP3 MLOAD DUP3 SWAP1 DUP2 PUSH3 0x15B SWAP2 SWAP1 PUSH3 0x487 JUMP JUMPDEST POP SWAP2 PUSH1 0x20 ADD SWAP2 SWAP1 PUSH1 0x1 ADD SWAP1 PUSH3 0x141 JUMP JUMPDEST JUMPDEST POP SWAP1 POP PUSH3 0x17C SWAP2 SWAP1 PUSH3 0x180 JUMP JUMPDEST POP SWAP1 JUMP JUMPDEST JUMPDEST DUP1 DUP3 GT ISZERO PUSH3 0x1A4 JUMPI PUSH1 0x0 DUP2 DUP2 PUSH3 0x19A SWAP2 SWAP1 PUSH3 0x1A8 JUMP JUMPDEST POP PUSH1 0x1 ADD PUSH3 0x181 JUMP JUMPDEST POP SWAP1 JUMP JUMPDEST POP DUP1 SLOAD PUSH3 0x1B6 SWAP1 PUSH3 0x276 JUMP JUMPDEST PUSH1 0x0 DUP3 SSTORE DUP1 PUSH1 0x1F LT PUSH3 0x1CA JUMPI POP PUSH3 0x1EB JUMP JUMPDEST PUSH1 0x1F ADD PUSH1 0x20 SWAP1 DIV SWAP1 PUSH1 0x0 MSTORE PUSH1 0x20 PUSH1 0x0 KECCAK256 SWAP1 DUP2 ADD SWAP1 PUSH3 0x1EA SWAP2 SWAP1 PUSH3 0x1EE JUMP JUMPDEST JUMPDEST POP JUMP JUMPDEST JUMPDEST DUP1 DUP3 GT ISZERO PUSH3 0x209 JUMPI PUSH1 0x0 DUP2 PUSH1 0x0 SWAP1 SSTORE POP PUSH1 0x1 ADD PUSH3 0x1EF JUMP JUMPDEST POP SWAP1 JUMP JUMPDEST PUSH1 0x0 DUP2 MLOAD SWAP1 POP SWAP2 SWAP1 POP JUMP JUMPDEST PUSH32 0x4E487B7100000000000000000000000000000000000000000000000000000000 PUSH1 0x0 MSTORE PUSH1 0x41 PUSH1 0x4 MSTORE PUSH1 0x24 PUSH1 0x0 REVERT JUMPDEST PUSH32 0x4E487B7100000000000000000000000000000000000000000000000000000000 PUSH1 0x0 MSTORE PUSH1 0x22 PUSH1 0x4 MSTORE PUSH1 0x24 PUSH1 0x0 REVERT JUMPDEST PUSH1 0x0 PUSH1 0x2 DUP3 DIV SWAP1 POP PUSH1 0x1 DUP3 AND DUP1 PUSH3 0x28F JUMPI PUSH1 0x7F DUP3 AND SWAP2 POP JUMPDEST PUSH1 0x20 DUP3 LT DUP2 SUB PUSH3 0x2A5 JUMPI PUSH3 0x2A4 PUSH3 0x247 JUMP JUMPDEST JUMPDEST POP SWAP2 SWAP1 POP JUMP JUMPDEST PUSH1 0x0 DUP2 SWAP1 POP DUP2 PUSH1 0x0 MSTORE PUSH1 0x20 PUSH1 0x0 KECCAK256 SWAP1 POP SWAP2 SWAP1 POP JUMP JUMPDEST PUSH1 0x0 PUSH1 0x20 PUSH1 0x1F DUP4 ADD DIV SWAP1 POP SWAP2 SWAP1 POP JUMP JUMPDEST PUSH1 0x0 DUP3 DUP3 SHL SWAP1 POP SWAP3 SWAP2 POP POP JUMP JUMPDEST PUSH1 0x0 PUSH1 0x8 DUP4 MUL PUSH3 0x30F PUSH32 0xFFFFFFFFFFFFFFFFFFFFFFFFFFFFFFFFFFFFFFFFFFFFFFFFFFFFFFFFFFFFFFFF DUP3 PUSH3 0x2D0 JUMP JUMPDEST PUSH3 0x31B DUP7 DUP4 PUSH3 0x2D0 JUMP JUMPDEST SWAP6 POP DUP1 NOT DUP5 AND SWAP4 POP DUP1 DUP7 AND DUP5 OR SWAP3 POP POP POP SWAP4 SWAP3 POP POP POP JUMP JUMPDEST PUSH1 0x0 DUP2 SWAP1 POP SWAP2 SWAP1 POP JUMP JUMPDEST PUSH1 0x0 DUP2 SWAP1 POP SWAP2 SWAP1 POP JUMP JUMPDEST PUSH1 0x0 PUSH3 0x368 PUSH3 0x362 PUSH3 0x35C DUP5 PUSH3 0x333 JUMP JUMPDEST PUSH3 0x33D JUMP JUMPDEST PUSH3 0x333 JUMP JUMPDEST SWAP1 POP SWAP2 SWAP1 POP JUMP JUMPDEST PUSH1 0x0 DUP2 SWAP1 POP SWAP2 SWAP1 POP JUMP JUMPDEST PUSH3 0x384 DUP4 PUSH3 0x347 JUMP JUMPDEST PUSH3 0x39C PUSH3 0x393 DUP3 PUSH3 0x36F JUMP JUMPDEST DUP5 DUP5 SLOAD PUSH3 0x2DD JUMP JUMPDEST DUP3 SSTORE POP POP POP POP JUMP JUMPDEST PUSH1 0x0 SWAP1 JUMP JUMPDEST PUSH3 0x3B3 PUSH3 0x3A4 JUMP JUMPDEST PUSH3 0x3C0 DUP2 DUP5 DUP5 PUSH3 0x379 JUMP JUMPDEST POP POP POP JUMP JUMPDEST JUMPDEST DUP2 DUP2 LT ISZERO PUSH3 0x3E8 JUMPI PUSH3 0x3DC PUSH1 0x0 DUP3 PUSH3 0x3A9 JUMP JUMPDEST PUSH1 0x1 DUP2 ADD SWAP1 POP PUSH3 0x3C6 JUMP JUMPDEST POP POP JUMP JUMPDEST PUSH1 0x1F DUP3 GT ISZERO PUSH3 0x437 JUMPI PUSH3 0x401 DUP2 PUSH3 0x2AB JUMP JUMPDEST PUSH3 0x40C DUP5 PUSH3 0x2C0 JUMP JUMPDEST DUP2 ADD PUSH1 0x20 DUP6 LT ISZERO PUSH3 0x41C JUMPI DUP2 SWAP1 POP JUMPDEST PUSH3 0x434 PUSH3 0x42B DUP6 PUSH3 0x2C0 JUMP JUMPDEST DUP4 ADD DUP3 PUSH3 0x3C5 JUMP JUMPDEST POP POP JUMPDEST POP POP POP JUMP JUMPDEST PUSH1 0x0 DUP3 DUP3 SHR SWAP1 POP SWAP3 SWAP2 POP POP JUMP JUMPDEST PUSH1 0x0 PUSH3 0x45C PUSH1 0x0 NOT DUP5 PUSH1 0x8 MUL PUSH3 0x43C JUMP JUMPDEST NOT DUP1 DUP4 AND SWAP2 POP POP SWAP3 SWAP2 POP POP JUMP JUMPDEST PUSH1 0x0 PUSH3 0x477 DUP4 DUP4 PUSH3 0x449 JUMP JUMPDEST SWAP2 POP DUP3 PUSH1 0x2 MUL DUP3 OR SWAP1 POP SWAP3 SWAP2 POP POP JUMP JUMPDEST PUSH3 0x492 DUP3 PUSH3 0x20D JUMP JUMPDEST PUSH8 0xFFFFFFFFFFFFFFFF DUP2 GT ISZERO PUSH3 0x4AE JUMPI PUSH3 0x4AD PUSH3 0x218 JUMP JUMPDEST JUMPDEST PUSH3 0x4BA DUP3 SLOAD PUSH3 0x276 JUMP JUMPDEST PUSH3 0x4C7 DUP3 DUP3 DUP6 PUSH3 0x3EC JUMP JUMPDEST PUSH1 0x0 PUSH1 0x20 SWAP1 POP PUSH1 0x1F DUP4 GT PUSH1 0x1 DUP2 EQ PUSH3 0x4FF JUMPI PUSH1 0x0 DUP5 ISZERO PUSH3 0x4EA JUMPI DUP3 DUP8 ADD MLOAD SWAP1 POP JUMPDEST PUSH3 0x4F6 DUP6 DUP3 PUSH3 0x469 JUMP JUMPDEST DUP7 SSTORE POP PUSH3 0x566 JUMP JUMPDEST PUSH1 0x1F NOT DUP5 AND PUSH3 0x50F DUP7 PUSH3 0x2AB JUMP JUMPDEST PUSH1 0x0 JUMPDEST DUP3 DUP2 LT ISZERO PUSH3 0x539 JUMPI DUP5 DUP10 ADD MLOAD DUP3 SSTORE PUSH1 0x1 DUP3 ADD SWAP2 POP PUSH1 0x20 DUP6 ADD SWAP5 POP PUSH1 0x20 DUP2 ADD SWAP1 POP PUSH3 0x512 JUMP JUMPDEST DUP7 DUP4 LT ISZERO PUSH3 0x559 JUMPI DUP5 DUP10 ADD MLOAD PUSH3 0x555 PUSH1 0x1F DUP10 AND DUP3 PUSH3 0x449 JUMP JUMPDEST DUP4 SSTORE POP JUMPDEST PUSH1 0x1 PUSH1 0x2 DUP9 MUL ADD DUP9 SSTORE POP POP POP JUMPDEST POP POP POP POP POP POP JUMP JUMPDEST PUSH2 0x14A4 DUP1 PUSH3 0x57E PUSH1 0x0 CODECOPY PUSH1 0x0 RETURN INVALID PUSH1 0x80 PUSH1 0x40 MSTORE CALLVALUE DUP1 ISZERO PUSH2 0x10 JUMPI PUSH1 0x0 DUP1 REVERT JUMPDEST POP PUSH1 0x4 CALLDATASIZE LT PUSH2 0x62 JUMPI PUSH1 0x0 CALLDATALOAD PUSH1 0xE0 SHR DUP1 PUSH4 0x94455C4 EQ PUSH2 0x67 JUMPI DUP1 PUSH4 0x2E0DCBF7 EQ PUSH2 0x83 JUMPI DUP1 PUSH4 0x38789D3A EQ PUSH2 0x9F JUMPI DUP1 PUSH4 0x80258E47 EQ PUSH2 0xBB JUMPI DUP1 PUSH4 0xC2657513 EQ PUSH2 0xD9 JUMPI DUP1 PUSH4 0xC29B2F20 EQ PUSH2 0x109 JUMPI JUMPDEST PUSH1 0x0 DUP1 REVERT JUMPDEST PUSH2 0x81 PUSH1 0x4 DUP1 CALLDATASIZE SUB DUP2 ADD SWAP1 PUSH2 0x7C SWAP2 SWAP1 PUSH2 0xB57 JUMP JUMPDEST PUSH2 0x127 JUMP JUMPDEST STOP JUMPDEST PUSH2 0x9D PUSH1 0x4 DUP1 CALLDATASIZE SUB DUP2 ADD SWAP1 PUSH2 0x98 SWAP2 SWAP1 PUSH2 0xBDA JUMP JUMPDEST PUSH2 0x1CF JUMP JUMPDEST STOP JUMPDEST PUSH2 0xB9 PUSH1 0x4 DUP1 CALLDATASIZE SUB DUP2 ADD SWAP1 PUSH2 0xB4 SWAP2 SWAP1 PUSH2 0xC23 JUMP JUMPDEST PUSH2 0x207 JUMP JUMPDEST STOP JUMPDEST PUSH2 0xC3 PUSH2 0x37A JUMP JUMPDEST PUSH1 0x40 MLOAD PUSH2 0xD0 SWAP2 SWAP1 PUSH2 0xE03 JUMP JUMPDEST PUSH1 0x40 MLOAD DUP1 SWAP2 SUB SWAP1 RETURN JUMPDEST PUSH2 0xF3 PUSH1 0x4 DUP1 CALLDATASIZE SUB DUP2 ADD SWAP1 PUSH2 0xEE SWAP2 SWAP1 PUSH2 0xBDA JUMP JUMPDEST PUSH2 0x453 JUMP JUMPDEST PUSH1 0x40 MLOAD PUSH2 0x100 SWAP2 SWAP1 PUSH2 0xF6C JUMP JUMPDEST PUSH1 0x40 MLOAD DUP1 SWAP2 SUB SWAP1 RETURN JUMPDEST PUSH2 0x111 PUSH2 0x87F JUMP JUMPDEST PUSH1 0x40 MLOAD PUSH2 0x11E SWAP2 SWAP1 PUSH2 0xF6C JUMP JUMPDEST PUSH1 0x40 MLOAD DUP1 SWAP2 SUB SWAP1 RETURN JUMPDEST PUSH1 0x1 PUSH1 0x40 MLOAD DUP1 PUSH1 0xA0 ADD PUSH1 0x40 MSTORE DUP1 PUSH1 0x1 DUP1 DUP1 SLOAD SWAP1 POP PUSH2 0x145 SWAP2 SWAP1 PUSH2 0xFBD JUMP JUMPDEST DUP2 MSTORE PUSH1 0x20 ADD DUP7 DUP2 MSTORE PUSH1 0x20 ADD DUP6 DUP2 MSTORE PUSH1 0x20 ADD DUP5 DUP2 MSTORE PUSH1 0x20 ADD DUP4 DUP2 MSTORE POP SWAP1 DUP1 PUSH1 0x1 DUP2 SLOAD ADD DUP1 DUP3 SSTORE DUP1 SWAP2 POP POP PUSH1 0x1 SWAP1 SUB SWAP1 PUSH1 0x0 MSTORE PUSH1 0x20 PUSH1 0x0 KECCAK256 SWAP1 PUSH1 0x5 MUL ADD PUSH1 0x0 SWAP1 SWAP2 SWAP1 SWAP2 SWAP1 SWAP2 POP PUSH1 0x0 DUP3 ADD MLOAD DUP2 PUSH1 0x0 ADD SSTORE PUSH1 0x20 DUP3 ADD MLOAD DUP2 PUSH1 0x1 ADD SWAP1 DUP2 PUSH2 0x1A8 SWAP2 SWAP1 PUSH2 0x11FD JUMP JUMPDEST POP PUSH1 0x40 DUP3 ADD MLOAD DUP2 PUSH1 0x2 ADD SSTORE PUSH1 0x60 DUP3 ADD MLOAD DUP2 PUSH1 0x3 ADD SSTORE PUSH1 0x80 DUP3 ADD MLOAD DUP2 PUSH1 0x4 ADD SSTORE POP POP POP POP POP POP JUMP JUMPDEST PUSH1 0x0 DUP2 SWAP1 DUP1 PUSH1 0x1 DUP2 SLOAD ADD DUP1 DUP3 SSTORE DUP1 SWAP2 POP POP PUSH1 0x1 SWAP1 SUB SWAP1 PUSH1 0x0 MSTORE PUSH1 0x20 PUSH1 0x0 KECCAK256 ADD PUSH1 0x0 SWAP1 SWAP2 SWAP1 SWAP2 SWAP1 SWAP2 POP SWAP1 DUP2 PUSH2 0x203 SWAP2 SWAP1 PUSH2 0x11FD JUMP JUMPDEST POP POP JUMP JUMPDEST PUSH1 0x0 PUSH32 0xFFFFFFFFFFFFFFFFFFFFFFFFFFFFFFFFFFFFFFFFFFFFFFFFFFFFFFFFFFFFFFFF SWAP1 POP PUSH1 0x0 JUMPDEST PUSH1 0x0 DUP1 SLOAD SWAP1 POP DUP2 LT ISZERO PUSH2 0x2C7 JUMPI DUP3 PUSH1 0x40 MLOAD PUSH1 0x20 ADD PUSH2 0x24D SWAP2 SWAP1 PUSH2 0x130B JUMP JUMPDEST PUSH1 0x40 MLOAD PUSH1 0x20 DUP2 DUP4 SUB SUB DUP2 MSTORE SWAP1 PUSH1 0x40 MSTORE DUP1 MLOAD SWAP1 PUSH1 0x20 ADD KECCAK256 PUSH1 0x0 DUP3 DUP2 SLOAD DUP2 LT PUSH2 0x277 JUMPI PUSH2 0x276 PUSH2 0x1322 JUMP JUMPDEST JUMPDEST SWAP1 PUSH1 0x0 MSTORE PUSH1 0x20 PUSH1 0x0 KECCAK256 ADD PUSH1 0x40 MLOAD PUSH1 0x20 ADD PUSH2 0x291 SWAP2 SWAP1 PUSH2 0x13D4 JUMP JUMPDEST PUSH1 0x40 MLOAD PUSH1 0x20 DUP2 DUP4 SUB SUB DUP2 MSTORE SWAP1 PUSH1 0x40 MSTORE DUP1 MLOAD SWAP1 PUSH1 0x20 ADD KECCAK256 SUB PUSH2 0x2B4 JUMPI DUP1 SWAP2 POP PUSH2 0x2C7 JUMP JUMPDEST DUP1 DUP1 PUSH2 0x2BF SWAP1 PUSH2 0x13EB JUMP JUMPDEST SWAP2 POP POP PUSH2 0x22F JUMP JUMPDEST POP PUSH1 0x1 DUP2 EQ PUSH2 0x373 JUMPI PUSH1 0x1 PUSH1 0x40 MLOAD DUP1 PUSH1 0xA0 ADD PUSH1 0x40 MSTORE DUP1 PUSH1 0x1 DUP1 DUP1 SLOAD SWAP1 POP PUSH2 0x2EE SWAP2 SWAP1 PUSH2 0xFBD JUMP JUMPDEST DUP2 MSTORE PUSH1 0x20 ADD DUP8 DUP2 MSTORE PUSH1 0x20 ADD DUP7 DUP2 MSTORE PUSH1 0x20 ADD DUP6 DUP2 MSTORE PUSH1 0x20 ADD DUP4 DUP2 MSTORE POP SWAP1 DUP1 PUSH1 0x1 DUP2 SLOAD ADD DUP1 DUP3 SSTORE DUP1 SWAP2 POP POP PUSH1 0x1 SWAP1 SUB SWAP1 PUSH1 0x0 MSTORE PUSH1 0x20 PUSH1 0x0 KECCAK256 SWAP1 PUSH1 0x5 MUL ADD PUSH1 0x0 SWAP1 SWAP2 SWAP1 SWAP2 SWAP1 SWAP2 POP PUSH1 0x0 DUP3 ADD MLOAD DUP2 PUSH1 0x0 ADD SSTORE PUSH1 0x20 DUP3 ADD MLOAD DUP2 PUSH1 0x1 ADD SWAP1 DUP2 PUSH2 0x351 SWAP2 SWAP1 PUSH2 0x11FD JUMP JUMPDEST POP PUSH1 0x40 DUP3 ADD MLOAD DUP2 PUSH1 0x2 ADD SSTORE PUSH1 0x60 DUP3 ADD MLOAD DUP2 PUSH1 0x3 ADD SSTORE PUSH1 0x80 DUP3 ADD MLOAD DUP2 PUSH1 0x4 ADD SSTORE POP POP JUMPDEST POP POP POP POP POP JUMP JUMPDEST PUSH1 0x60 PUSH1 0x0 DUP1 SLOAD DUP1 PUSH1 0x20 MUL PUSH1 0x20 ADD PUSH1 0x40 MLOAD SWAP1 DUP2 ADD PUSH1 0x40 MSTORE DUP1 SWAP3 SWAP2 SWAP1 DUP2 DUP2 MSTORE PUSH1 0x20 ADD PUSH1 0x0 SWAP1 JUMPDEST DUP3 DUP3 LT ISZERO PUSH2 0x44A JUMPI DUP4 DUP3 SWAP1 PUSH1 0x0 MSTORE PUSH1 0x20 PUSH1 0x0 KECCAK256 ADD DUP1 SLOAD PUSH2 0x3BD SWAP1 PUSH2 0x1020 JUMP JUMPDEST DUP1 PUSH1 0x1F ADD PUSH1 0x20 DUP1 SWAP2 DIV MUL PUSH1 0x20 ADD PUSH1 0x40 MLOAD SWAP1 DUP2 ADD PUSH1 0x40 MSTORE DUP1 SWAP3 SWAP2 SWAP1 DUP2 DUP2 MSTORE PUSH1 0x20 ADD DUP3 DUP1 SLOAD PUSH2 0x3E9 SWAP1 PUSH2 0x1020 JUMP JUMPDEST DUP1 ISZERO PUSH2 0x436 JUMPI DUP1 PUSH1 0x1F LT PUSH2 0x40B JUMPI PUSH2 0x100 DUP1 DUP4 SLOAD DIV MUL DUP4 MSTORE SWAP2 PUSH1 0x20 ADD SWAP2 PUSH2 0x436 JUMP JUMPDEST DUP3 ADD SWAP2 SWAP1 PUSH1 0x0 MSTORE PUSH1 0x20 PUSH1 0x0 KECCAK256 SWAP1 JUMPDEST DUP2 SLOAD DUP2 MSTORE SWAP1 PUSH1 0x1 ADD SWAP1 PUSH1 0x20 ADD DUP1 DUP4 GT PUSH2 0x419 JUMPI DUP3 SWAP1 SUB PUSH1 0x1F AND DUP3 ADD SWAP2 JUMPDEST POP POP POP POP POP DUP2 MSTORE PUSH1 0x20 ADD SWAP1 PUSH1 0x1 ADD SWAP1 PUSH2 0x39E JUMP JUMPDEST POP POP POP POP SWAP1 POP SWAP1 JUMP JUMPDEST PUSH1 0x60 PUSH1 0x40 MLOAD PUSH1 0x20 ADD PUSH2 0x464 SWAP1 PUSH2 0x1459 JUMP JUMPDEST PUSH1 0x40 MLOAD PUSH1 0x20 DUP2 DUP4 SUB SUB DUP2 MSTORE SWAP1 PUSH1 0x40 MSTORE DUP1 MLOAD SWAP1 PUSH1 0x20 ADD KECCAK256 DUP3 PUSH1 0x40 MLOAD PUSH1 0x20 ADD PUSH2 0x48B SWAP2 SWAP1 PUSH2 0x130B JUMP JUMPDEST PUSH1 0x40 MLOAD PUSH1 0x20 DUP2 DUP4 SUB SUB DUP2 MSTORE SWAP1 PUSH1 0x40 MSTORE DUP1 MLOAD SWAP1 PUSH1 0x20 ADD KECCAK256 SUB PUSH2 0x5BF JUMPI PUSH1 0x1 DUP1 SLOAD DUP1 PUSH1 0x20 MUL PUSH1 0x20 ADD PUSH1 0x40 MLOAD SWAP1 DUP2 ADD PUSH1 0x40 MSTORE DUP1 SWAP3 SWAP2 SWAP1 DUP2 DUP2 MSTORE PUSH1 0x20 ADD PUSH1 0x0 SWAP1 JUMPDEST DUP3 DUP3 LT ISZERO PUSH2 0x5B4 JUMPI DUP4 DUP3 SWAP1 PUSH1 0x0 MSTORE PUSH1 0x20 PUSH1 0x0 KECCAK256 SWAP1 PUSH1 0x5 MUL ADD PUSH1 0x40 MLOAD DUP1 PUSH1 0xA0 ADD PUSH1 0x40 MSTORE SWAP1 DUP2 PUSH1 0x0 DUP3 ADD SLOAD DUP2 MSTORE PUSH1 0x20 ADD PUSH1 0x1 DUP3 ADD DUP1 SLOAD PUSH2 0x505 SWAP1 PUSH2 0x1020 JUMP JUMPDEST DUP1 PUSH1 0x1F ADD PUSH1 0x20 DUP1 SWAP2 DIV MUL PUSH1 0x20 ADD PUSH1 0x40 MLOAD SWAP1 DUP2 ADD PUSH1 0x40 MSTORE DUP1 SWAP3 SWAP2 SWAP1 DUP2 DUP2 MSTORE PUSH1 0x20 ADD DUP3 DUP1 SLOAD PUSH2 0x531 SWAP1 PUSH2 0x1020 JUMP JUMPDEST DUP1 ISZERO PUSH2 0x57E JUMPI DUP1 PUSH1 0x1F LT PUSH2 0x553 JUMPI PUSH2 0x100 DUP1 DUP4 SLOAD DIV MUL DUP4 MSTORE SWAP2 PUSH1 0x20 ADD SWAP2 PUSH2 0x57E JUMP JUMPDEST DUP3 ADD SWAP2 SWAP1 PUSH1 0x0 MSTORE PUSH1 0x20 PUSH1 0x0 KECCAK256 SWAP1 JUMPDEST DUP2 SLOAD DUP2 MSTORE SWAP1 PUSH1 0x1 ADD SWAP1 PUSH1 0x20 ADD DUP1 DUP4 GT PUSH2 0x561 JUMPI DUP3 SWAP1 SUB PUSH1 0x1F AND DUP3 ADD SWAP2 JUMPDEST POP POP POP POP POP DUP2 MSTORE PUSH1 0x20 ADD PUSH1 0x2 DUP3 ADD SLOAD DUP2 MSTORE PUSH1 0x20 ADD PUSH1 0x3 DUP3 ADD SLOAD DUP2 MSTORE PUSH1 0x20 ADD PUSH1 0x4 DUP3 ADD SLOAD DUP2 MSTORE POP POP DUP2 MSTORE PUSH1 0x20 ADD SWAP1 PUSH1 0x1 ADD SWAP1 PUSH2 0x4C8 JUMP JUMPDEST POP POP POP POP SWAP1 POP PUSH2 0x87A JUMP JUMPDEST PUSH1 0x0 PUSH1 0x1 DUP1 SLOAD SWAP1 POP PUSH8 0xFFFFFFFFFFFFFFFF DUP2 GT ISZERO PUSH2 0x5E0 JUMPI PUSH2 0x5DF PUSH2 0x9F6 JUMP JUMPDEST JUMPDEST PUSH1 0x40 MLOAD SWAP1 DUP1 DUP3 MSTORE DUP1 PUSH1 0x20 MUL PUSH1 0x20 ADD DUP3 ADD PUSH1 0x40 MSTORE DUP1 ISZERO PUSH2 0x619 JUMPI DUP2 PUSH1 0x20 ADD JUMPDEST PUSH2 0x606 PUSH2 0x998 JUMP JUMPDEST DUP2 MSTORE PUSH1 0x20 ADD SWAP1 PUSH1 0x1 SWAP1 SUB SWAP1 DUP2 PUSH2 0x5FE JUMPI SWAP1 POP JUMPDEST POP SWAP1 POP PUSH1 0x0 PUSH32 0xFFFFFFFFFFFFFFFFFFFFFFFFFFFFFFFFFFFFFFFFFFFFFFFFFFFFFFFFFFFFFFFF SWAP1 POP PUSH1 0x0 JUMPDEST PUSH1 0x0 DUP1 SLOAD SWAP1 POP DUP2 LT ISZERO PUSH2 0x6DC JUMPI DUP5 PUSH1 0x40 MLOAD PUSH1 0x20 ADD PUSH2 0x662 SWAP2 SWAP1 PUSH2 0x130B JUMP JUMPDEST PUSH1 0x40 MLOAD PUSH1 0x20 DUP2 DUP4 SUB SUB DUP2 MSTORE SWAP1 PUSH1 0x40 MSTORE DUP1 MLOAD SWAP1 PUSH1 0x20 ADD KECCAK256 PUSH1 0x0 DUP3 DUP2 SLOAD DUP2 LT PUSH2 0x68C JUMPI PUSH2 0x68B PUSH2 0x1322 JUMP JUMPDEST JUMPDEST SWAP1 PUSH1 0x0 MSTORE PUSH1 0x20 PUSH1 0x0 KECCAK256 ADD PUSH1 0x40 MLOAD PUSH1 0x20 ADD PUSH2 0x6A6 SWAP2 SWAP1 PUSH2 0x13D4 JUMP JUMPDEST PUSH1 0x40 MLOAD PUSH1 0x20 DUP2 DUP4 SUB SUB DUP2 MSTORE SWAP1 PUSH1 0x40 MSTORE DUP1 MLOAD SWAP1 PUSH1 0x20 ADD KECCAK256 SUB PUSH2 0x6C9 JUMPI DUP1 SWAP2 POP PUSH2 0x6DC JUMP JUMPDEST DUP1 DUP1 PUSH2 0x6D4 SWAP1 PUSH2 0x13EB JUMP JUMPDEST SWAP2 POP POP PUSH2 0x644 JUMP JUMPDEST POP PUSH32 0xFFFFFFFFFFFFFFFFFFFFFFFFFFFFFFFFFFFFFFFFFFFFFFFFFFFFFFFFFFFFFFFF DUP2 SUB PUSH2 0x70E JUMPI DUP2 SWAP3 POP POP POP PUSH2 0x87A JUMP JUMPDEST PUSH1 0x0 DUP1 JUMPDEST PUSH1 0x1 DUP1 SLOAD SWAP1 POP DUP2 LT ISZERO PUSH2 0x872 JUMPI DUP3 PUSH1 0x1 DUP3 DUP2 SLOAD DUP2 LT PUSH2 0x734 JUMPI PUSH2 0x733 PUSH2 0x1322 JUMP JUMPDEST JUMPDEST SWAP1 PUSH1 0x0 MSTORE PUSH1 0x20 PUSH1 0x0 KECCAK256 SWAP1 PUSH1 0x5 MUL ADD PUSH1 0x4 ADD SLOAD SUB PUSH2 0x85F JUMPI PUSH1 0x1 DUP2 DUP2 SLOAD DUP2 LT PUSH2 0x75F JUMPI PUSH2 0x75E PUSH2 0x1322 JUMP JUMPDEST JUMPDEST SWAP1 PUSH1 0x0 MSTORE PUSH1 0x20 PUSH1 0x0 KECCAK256 SWAP1 PUSH1 0x5 MUL ADD PUSH1 0x40 MLOAD DUP1 PUSH1 0xA0 ADD PUSH1 0x40 MSTORE SWAP1 DUP2 PUSH1 0x0 DUP3 ADD SLOAD DUP2 MSTORE PUSH1 0x20 ADD PUSH1 0x1 DUP3 ADD DUP1 SLOAD PUSH2 0x792 SWAP1 PUSH2 0x1020 JUMP JUMPDEST DUP1 PUSH1 0x1F ADD PUSH1 0x20 DUP1 SWAP2 DIV MUL PUSH1 0x20 ADD PUSH1 0x40 MLOAD SWAP1 DUP2 ADD PUSH1 0x40 MSTORE DUP1 SWAP3 SWAP2 SWAP1 DUP2 DUP2 MSTORE PUSH1 0x20 ADD DUP3 DUP1 SLOAD PUSH2 0x7BE SWAP1 PUSH2 0x1020 JUMP JUMPDEST DUP1 ISZERO PUSH2 0x80B JUMPI DUP1 PUSH1 0x1F LT PUSH2 0x7E0 JUMPI PUSH2 0x100 DUP1 DUP4 SLOAD DIV MUL DUP4 MSTORE SWAP2 PUSH1 0x20 ADD SWAP2 PUSH2 0x80B JUMP JUMPDEST DUP3 ADD SWAP2 SWAP1 PUSH1 0x0 MSTORE PUSH1 0x20 PUSH1 0x0 KECCAK256 SWAP1 JUMPDEST DUP2 SLOAD DUP2 MSTORE SWAP1 PUSH1 0x1 ADD SWAP1 PUSH1 0x20 ADD DUP1 DUP4 GT PUSH2 0x7EE JUMPI DUP3 SWAP1 SUB PUSH1 0x1F AND DUP3 ADD SWAP2 JUMPDEST POP POP POP POP POP DUP2 MSTORE PUSH1 0x20 ADD PUSH1 0x2 DUP3 ADD SLOAD DUP2 MSTORE PUSH1 0x20 ADD PUSH1 0x3 DUP3 ADD SLOAD DUP2 MSTORE PUSH1 0x20 ADD PUSH1 0x4 DUP3 ADD SLOAD DUP2 MSTORE POP POP DUP5 DUP4 DUP2 MLOAD DUP2 LT PUSH2 0x845 JUMPI PUSH2 0x844 PUSH2 0x1322 JUMP JUMPDEST JUMPDEST PUSH1 0x20 MUL PUSH1 0x20 ADD ADD DUP2 SWAP1 MSTORE POP DUP2 DUP1 PUSH2 0x85B SWAP1 PUSH2 0x13EB JUMP JUMPDEST SWAP3 POP POP JUMPDEST DUP1 DUP1 PUSH2 0x86A SWAP1 PUSH2 0x13EB JUMP JUMPDEST SWAP2 POP POP PUSH2 0x712 JUMP JUMPDEST POP DUP3 SWAP4 POP POP POP POP JUMPDEST SWAP2 SWAP1 POP JUMP JUMPDEST PUSH1 0x60 PUSH1 0x1 DUP1 SLOAD DUP1 PUSH1 0x20 MUL PUSH1 0x20 ADD PUSH1 0x40 MLOAD SWAP1 DUP2 ADD PUSH1 0x40 MSTORE DUP1 SWAP3 SWAP2 SWAP1 DUP2 DUP2 MSTORE PUSH1 0x20 ADD PUSH1 0x0 SWAP1 JUMPDEST DUP3 DUP3 LT ISZERO PUSH2 0x98F JUMPI DUP4 DUP3 SWAP1 PUSH1 0x0 MSTORE PUSH1 0x20 PUSH1 0x0 KECCAK256 SWAP1 PUSH1 0x5 MUL ADD PUSH1 0x40 MLOAD DUP1 PUSH1 0xA0 ADD PUSH1 0x40 MSTORE SWAP1 DUP2 PUSH1 0x0 DUP3 ADD SLOAD DUP2 MSTORE PUSH1 0x20 ADD PUSH1 0x1 DUP3 ADD DUP1 SLOAD PUSH2 0x8E0 SWAP1 PUSH2 0x1020 JUMP JUMPDEST DUP1 PUSH1 0x1F ADD PUSH1 0x20 DUP1 SWAP2 DIV MUL PUSH1 0x20 ADD PUSH1 0x40 MLOAD SWAP1 DUP2 ADD PUSH1 0x40 MSTORE DUP1 SWAP3 SWAP2 SWAP1 DUP2 DUP2 MSTORE PUSH1 0x20 ADD DUP3 DUP1 SLOAD PUSH2 0x90C SWAP1 PUSH2 0x1020 JUMP JUMPDEST DUP1 ISZERO PUSH2 0x959 JUMPI DUP1 PUSH1 0x1F LT PUSH2 0x92E JUMPI PUSH2 0x100 DUP1 DUP4 SLOAD DIV MUL DUP4 MSTORE SWAP2 PUSH1 0x20 ADD SWAP2 PUSH2 0x959 JUMP JUMPDEST DUP3 ADD SWAP2 SWAP1 PUSH1 0x0 MSTORE PUSH1 0x20 PUSH1 0x0 KECCAK256 SWAP1 JUMPDEST DUP2 SLOAD DUP2 MSTORE SWAP1 PUSH1 0x1 ADD SWAP1 PUSH1 0x20 ADD DUP1 DUP4 GT PUSH2 0x93C JUMPI DUP3 SWAP1 SUB PUSH1 0x1F AND DUP3 ADD SWAP2 JUMPDEST POP POP POP POP POP DUP2 MSTORE PUSH1 0x20 ADD PUSH1 0x2 DUP3 ADD SLOAD DUP2 MSTORE PUSH1 0x20 ADD PUSH1 0x3 DUP3 ADD SLOAD DUP2 MSTORE PUSH1 0x20 ADD PUSH1 0x4 DUP3 ADD SLOAD DUP2 MSTORE POP POP DUP2 MSTORE PUSH1 0x20 ADD SWAP1 PUSH1 0x1 ADD SWAP1 PUSH2 0x8A3 JUMP JUMPDEST POP POP POP POP SWAP1 POP SWAP1 JUMP JUMPDEST PUSH1 0x40 MLOAD DUP1 PUSH1 0xA0 ADD PUSH1 0x40 MSTORE DUP1 PUSH1 0x0 DUP2 MSTORE PUSH1 0x20 ADD PUSH1 0x60 DUP2 MSTORE PUSH1 0x20 ADD PUSH1 0x0 DUP2 MSTORE PUSH1 0x20 ADD PUSH1 0x0 DUP2 MSTORE PUSH1 0x20 ADD PUSH1 0x0 DUP2 MSTORE POP SWAP1 JUMP JUMPDEST PUSH1 0x0 PUSH1 0x40 MLOAD SWAP1 POP SWAP1 JUMP JUMPDEST PUSH1 0x0 DUP1 REVERT JUMPDEST PUSH1 0x0 DUP1 REVERT JUMPDEST PUSH1 0x0 DUP1 REVERT JUMPDEST PUSH1 0x0 DUP1 REVERT JUMPDEST PUSH1 0x0 PUSH1 0x1F NOT PUSH1 0x1F DUP4 ADD AND SWAP1 POP SWAP2 SWAP1 POP JUMP JUMPDEST PUSH32 0x4E487B7100000000000000000000000000000000000000000000000000000000 PUSH1 0x0 MSTORE PUSH1 0x41 PUSH1 0x4 MSTORE PUSH1 0x24 PUSH1 0x0 REVERT JUMPDEST PUSH2 0xA2E DUP3 PUSH2 0x9E5 JUMP JUMPDEST DUP2 ADD DUP2 DUP2 LT PUSH8 0xFFFFFFFFFFFFFFFF DUP3 GT OR ISZERO PUSH2 0xA4D JUMPI PUSH2 0xA4C PUSH2 0x9F6 JUMP JUMPDEST JUMPDEST DUP1 PUSH1 0x40 MSTORE POP POP POP JUMP JUMPDEST PUSH1 0x0 PUSH2 0xA60 PUSH2 0x9C7 JUMP JUMPDEST SWAP1 POP PUSH2 0xA6C DUP3 DUP3 PUSH2 0xA25 JUMP JUMPDEST SWAP2 SWAP1 POP JUMP JUMPDEST PUSH1 0x0 PUSH8 0xFFFFFFFFFFFFFFFF DUP3 GT ISZERO PUSH2 0xA8C JUMPI PUSH2 0xA8B PUSH2 0x9F6 JUMP JUMPDEST JUMPDEST PUSH2 0xA95 DUP3 PUSH2 0x9E5 JUMP JUMPDEST SWAP1 POP PUSH1 0x20 DUP2 ADD SWAP1 POP SWAP2 SWAP1 POP JUMP JUMPDEST DUP3 DUP2 DUP4 CALLDATACOPY PUSH1 0x0 DUP4 DUP4 ADD MSTORE POP POP POP JUMP JUMPDEST PUSH1 0x0 PUSH2 0xAC4 PUSH2 0xABF DUP5 PUSH2 0xA71 JUMP JUMPDEST PUSH2 0xA56 JUMP JUMPDEST SWAP1 POP DUP3 DUP2 MSTORE PUSH1 0x20 DUP2 ADD DUP5 DUP5 DUP5 ADD GT ISZERO PUSH2 0xAE0 JUMPI PUSH2 0xADF PUSH2 0x9E0 JUMP JUMPDEST JUMPDEST PUSH2 0xAEB DUP5 DUP3 DUP6 PUSH2 0xAA2 JUMP JUMPDEST POP SWAP4 SWAP3 POP POP POP JUMP JUMPDEST PUSH1 0x0 DUP3 PUSH1 0x1F DUP4 ADD SLT PUSH2 0xB08 JUMPI PUSH2 0xB07 PUSH2 0x9DB JUMP JUMPDEST JUMPDEST DUP2 CALLDATALOAD PUSH2 0xB18 DUP5 DUP3 PUSH1 0x20 DUP7 ADD PUSH2 0xAB1 JUMP JUMPDEST SWAP2 POP POP SWAP3 SWAP2 POP POP JUMP JUMPDEST PUSH1 0x0 DUP2 SWAP1 POP SWAP2 SWAP1 POP JUMP JUMPDEST PUSH2 0xB34 DUP2 PUSH2 0xB21 JUMP JUMPDEST DUP2 EQ PUSH2 0xB3F JUMPI PUSH1 0x0 DUP1 REVERT JUMPDEST POP JUMP JUMPDEST PUSH1 0x0 DUP2 CALLDATALOAD SWAP1 POP PUSH2 0xB51 DUP2 PUSH2 0xB2B JUMP JUMPDEST SWAP3 SWAP2 POP POP JUMP JUMPDEST PUSH1 0x0 DUP1 PUSH1 0x0 DUP1 PUSH1 0x80 DUP6 DUP8 SUB SLT ISZERO PUSH2 0xB71 JUMPI PUSH2 0xB70 PUSH2 0x9D1 JUMP JUMPDEST JUMPDEST PUSH1 0x0 DUP6 ADD CALLDATALOAD PUSH8 0xFFFFFFFFFFFFFFFF DUP2 GT ISZERO PUSH2 0xB8F JUMPI PUSH2 0xB8E PUSH2 0x9D6 JUMP JUMPDEST JUMPDEST PUSH2 0xB9B DUP8 DUP3 DUP9 ADD PUSH2 0xAF3 JUMP JUMPDEST SWAP5 POP POP PUSH1 0x20 PUSH2 0xBAC DUP8 DUP3 DUP9 ADD PUSH2 0xB42 JUMP JUMPDEST SWAP4 POP POP PUSH1 0x40 PUSH2 0xBBD DUP8 DUP3 DUP9 ADD PUSH2 0xB42 JUMP JUMPDEST SWAP3 POP POP PUSH1 0x60 PUSH2 0xBCE DUP8 DUP3 DUP9 ADD PUSH2 0xB42 JUMP JUMPDEST SWAP2 POP POP SWAP3 SWAP6 SWAP2 SWAP5 POP SWAP3 POP JUMP JUMPDEST PUSH1 0x0 PUSH1 0x20 DUP3 DUP5 SUB SLT ISZERO PUSH2 0xBF0 JUMPI PUSH2 0xBEF PUSH2 0x9D1 JUMP JUMPDEST JUMPDEST PUSH1 0x0 DUP3 ADD CALLDATALOAD PUSH8 0xFFFFFFFFFFFFFFFF DUP2 GT ISZERO PUSH2 0xC0E JUMPI PUSH2 0xC0D PUSH2 0x9D6 JUMP JUMPDEST JUMPDEST PUSH2 0xC1A DUP5 DUP3 DUP6 ADD PUSH2 0xAF3 JUMP JUMPDEST SWAP2 POP POP SWAP3 SWAP2 POP POP JUMP JUMPDEST PUSH1 0x0 DUP1 PUSH1 0x0 DUP1 PUSH1 0x80 DUP6 DUP8 SUB SLT ISZERO PUSH2 0xC3D JUMPI PUSH2 0xC3C PUSH2 0x9D1 JUMP JUMPDEST JUMPDEST PUSH1 0x0 DUP6 ADD CALLDATALOAD PUSH8 0xFFFFFFFFFFFFFFFF DUP2 GT ISZERO PUSH2 0xC5B JUMPI PUSH2 0xC5A PUSH2 0x9D6 JUMP JUMPDEST JUMPDEST PUSH2 0xC67 DUP8 DUP3 DUP9 ADD PUSH2 0xAF3 JUMP JUMPDEST SWAP5 POP POP PUSH1 0x20 PUSH2 0xC78 DUP8 DUP3 DUP9 ADD PUSH2 0xB42 JUMP JUMPDEST SWAP4 POP POP PUSH1 0x40 PUSH2 0xC89 DUP8 DUP3 DUP9 ADD PUSH2 0xB42 JUMP JUMPDEST SWAP3 POP POP PUSH1 0x60 DUP6 ADD CALLDATALOAD PUSH8 0xFFFFFFFFFFFFFFFF DUP2 GT ISZERO PUSH2 0xCAA JUMPI PUSH2 0xCA9 PUSH2 0x9D6 JUMP JUMPDEST JUMPDEST PUSH2 0xCB6 DUP8 DUP3 DUP9 ADD PUSH2 0xAF3 JUMP JUMPDEST SWAP2 POP POP SWAP3 SWAP6 SWAP2 SWAP5 POP SWAP3 POP JUMP JUMPDEST PUSH1 0x0 DUP2 MLOAD SWAP1 POP SWAP2 SWAP1 POP JUMP JUMPDEST PUSH1 0x0 DUP3 DUP3 MSTORE PUSH1 0x20 DUP3 ADD SWAP1 POP SWAP3 SWAP2 POP POP JUMP JUMPDEST PUSH1 0x0 DUP2 SWAP1 POP PUSH1 0x20 DUP3 ADD SWAP1 POP SWAP2 SWAP1 POP JUMP JUMPDEST PUSH1 0x0 DUP2 MLOAD SWAP1 POP SWAP2 SWAP1 POP JUMP JUMPDEST PUSH1 0x0 DUP3 DUP3 MSTORE PUSH1 0x20 DUP3 ADD SWAP1 POP SWAP3 SWAP2 POP POP JUMP JUMPDEST PUSH1 0x0 JUMPDEST DUP4 DUP2 LT ISZERO PUSH2 0xD28 JUMPI DUP1 DUP3 ADD MLOAD DUP2 DUP5 ADD MSTORE PUSH1 0x20 DUP2 ADD SWAP1 POP PUSH2 0xD0D JUMP JUMPDEST PUSH1 0x0 DUP5 DUP5 ADD MSTORE POP POP POP POP JUMP JUMPDEST PUSH1 0x0 PUSH2 0xD3F DUP3 PUSH2 0xCEE JUMP JUMPDEST PUSH2 0xD49 DUP2 DUP6 PUSH2 0xCF9 JUMP JUMPDEST SWAP4 POP PUSH2 0xD59 DUP2 DUP6 PUSH1 0x20 DUP7 ADD PUSH2 0xD0A JUMP JUMPDEST PUSH2 0xD62 DUP2 PUSH2 0x9E5 JUMP JUMPDEST DUP5 ADD SWAP2 POP POP SWAP3 SWAP2 POP POP JUMP JUMPDEST PUSH1 0x0 PUSH2 0xD79 DUP4 DUP4 PUSH2 0xD34 JUMP JUMPDEST SWAP1 POP SWAP3 SWAP2 POP POP JUMP JUMPDEST PUSH1 0x0 PUSH1 0x20 DUP3 ADD SWAP1 POP SWAP2 SWAP1 POP JUMP JUMPDEST PUSH1 0x0 PUSH2 0xD99 DUP3 PUSH2 0xCC2 JUMP JUMPDEST PUSH2 0xDA3 DUP2 DUP6 PUSH2 0xCCD JUMP JUMPDEST SWAP4 POP DUP4 PUSH1 0x20 DUP3 MUL DUP6 ADD PUSH2 0xDB5 DUP6 PUSH2 0xCDE JUMP JUMPDEST DUP1 PUSH1 0x0 JUMPDEST DUP6 DUP2 LT ISZERO PUSH2 0xDF1 JUMPI DUP5 DUP5 SUB DUP10 MSTORE DUP2 MLOAD PUSH2 0xDD2 DUP6 DUP3 PUSH2 0xD6D JUMP JUMPDEST SWAP5 POP PUSH2 0xDDD DUP4 PUSH2 0xD81 JUMP JUMPDEST SWAP3 POP PUSH1 0x20 DUP11 ADD SWAP10 POP POP PUSH1 0x1 DUP2 ADD SWAP1 POP PUSH2 0xDB9 JUMP JUMPDEST POP DUP3 SWAP8 POP DUP8 SWAP6 POP POP POP POP POP POP SWAP3 SWAP2 POP POP JUMP JUMPDEST PUSH1 0x0 PUSH1 0x20 DUP3 ADD SWAP1 POP DUP2 DUP2 SUB PUSH1 0x0 DUP4 ADD MSTORE PUSH2 0xE1D DUP2 DUP5 PUSH2 0xD8E JUMP JUMPDEST SWAP1 POP SWAP3 SWAP2 POP POP JUMP JUMPDEST PUSH1 0x0 DUP2 MLOAD SWAP1 POP SWAP2 SWAP1 POP JUMP JUMPDEST PUSH1 0x0 DUP3 DUP3 MSTORE PUSH1 0x20 DUP3 ADD SWAP1 POP SWAP3 SWAP2 POP POP JUMP JUMPDEST PUSH1 0x0 DUP2 SWAP1 POP PUSH1 0x20 DUP3 ADD SWAP1 POP SWAP2 SWAP1 POP JUMP JUMPDEST PUSH2 0xE5A DUP2 PUSH2 0xB21 JUMP JUMPDEST DUP3 MSTORE POP POP JUMP JUMPDEST PUSH1 0x0 PUSH1 0xA0 DUP4 ADD PUSH1 0x0 DUP4 ADD MLOAD PUSH2 0xE78 PUSH1 0x0 DUP7 ADD DUP3 PUSH2 0xE51 JUMP JUMPDEST POP PUSH1 0x20 DUP4 ADD MLOAD DUP5 DUP3 SUB PUSH1 0x20 DUP7 ADD MSTORE PUSH2 0xE90 DUP3 DUP3 PUSH2 0xD34 JUMP JUMPDEST SWAP2 POP POP PUSH1 0x40 DUP4 ADD MLOAD PUSH2 0xEA5 PUSH1 0x40 DUP7 ADD DUP3 PUSH2 0xE51 JUMP JUMPDEST POP PUSH1 0x60 DUP4 ADD MLOAD PUSH2 0xEB8 PUSH1 0x60 DUP7 ADD DUP3 PUSH2 0xE51 JUMP JUMPDEST POP PUSH1 0x80 DUP4 ADD MLOAD PUSH2 0xECB PUSH1 0x80 DUP7 ADD DUP3 PUSH2 0xE51 JUMP JUMPDEST POP DUP1 SWAP2 POP POP SWAP3 SWAP2 POP POP JUMP JUMPDEST PUSH1 0x0 PUSH2 0xEE2 DUP4 DUP4 PUSH2 0xE60 JUMP JUMPDEST SWAP1 POP SWAP3 SWAP2 POP POP JUMP JUMPDEST PUSH1 0x0 PUSH1 0x20 DUP3 ADD SWAP1 POP SWAP2 SWAP1 POP JUMP JUMPDEST PUSH1 0x0 PUSH2 0xF02 DUP3 PUSH2 0xE25 JUMP JUMPDEST PUSH2 0xF0C DUP2 DUP6 PUSH2 0xE30 JUMP JUMPDEST SWAP4 POP DUP4 PUSH1 0x20 DUP3 MUL DUP6 ADD PUSH2 0xF1E DUP6 PUSH2 0xE41 JUMP JUMPDEST DUP1 PUSH1 0x0 JUMPDEST DUP6 DUP2 LT ISZERO PUSH2 0xF5A JUMPI DUP5 DUP5 SUB DUP10 MSTORE DUP2 MLOAD PUSH2 0xF3B DUP6 DUP3 PUSH2 0xED6 JUMP JUMPDEST SWAP5 POP PUSH2 0xF46 DUP4 PUSH2 0xEEA JUMP JUMPDEST SWAP3 POP PUSH1 0x20 DUP11 ADD SWAP10 POP POP PUSH1 0x1 DUP2 ADD SWAP1 POP PUSH2 0xF22 JUMP JUMPDEST POP DUP3 SWAP8 POP DUP8 SWAP6 POP POP POP POP POP POP SWAP3 SWAP2 POP POP JUMP JUMPDEST PUSH1 0x0 PUSH1 0x20 DUP3 ADD SWAP1 POP DUP2 DUP2 SUB PUSH1 0x0 DUP4 ADD MSTORE PUSH2 0xF86 DUP2 DUP5 PUSH2 0xEF7 JUMP JUMPDEST SWAP1 POP SWAP3 SWAP2 POP POP JUMP JUMPDEST PUSH32 0x4E487B7100000000000000000000000000000000000000000000000000000000 PUSH1 0x0 MSTORE PUSH1 0x11 PUSH1 0x4 MSTORE PUSH1 0x24 PUSH1 0x0 REVERT JUMPDEST PUSH1 0x0 PUSH2 0xFC8 DUP3 PUSH2 0xB21 JUMP JUMPDEST SWAP2 POP PUSH2 0xFD3 DUP4 PUSH2 0xB21 JUMP JUMPDEST SWAP3 POP DUP3 DUP3 ADD SWAP1 POP DUP1 DUP3 GT ISZERO PUSH2 0xFEB JUMPI PUSH2 0xFEA PUSH2 0xF8E JUMP JUMPDEST JUMPDEST SWAP3 SWAP2 POP POP JUMP JUMPDEST PUSH32 0x4E487B7100000000000000000000000000000000000000000000000000000000 PUSH1 0x0 MSTORE PUSH1 0x22 PUSH1 0x4 MSTORE PUSH1 0x24 PUSH1 0x0 REVERT JUMPDEST PUSH1 0x0 PUSH1 0x2 DUP3 DIV SWAP1 POP PUSH1 0x1 DUP3 AND DUP1 PUSH2 0x1038 JUMPI PUSH1 0x7F DUP3 AND SWAP2 POP JUMPDEST PUSH1 0x20 DUP3 LT DUP2 SUB PUSH2 0x104B JUMPI PUSH2 0x104A PUSH2 0xFF1 JUMP JUMPDEST JUMPDEST POP SWAP2 SWAP1 POP JUMP JUMPDEST PUSH1 0x0 DUP2 SWAP1 POP DUP2 PUSH1 0x0 MSTORE PUSH1 0x20 PUSH1 0x0 KECCAK256 SWAP1 POP SWAP2 SWAP1 POP JUMP JUMPDEST PUSH1 0x0 PUSH1 0x20 PUSH1 0x1F DUP4 ADD DIV SWAP1 POP SWAP2 SWAP1 POP JUMP JUMPDEST PUSH1 0x0 DUP3 DUP3 SHL SWAP1 POP SWAP3 SWAP2 POP POP JUMP JUMPDEST PUSH1 0x0 PUSH1 0x8 DUP4 MUL PUSH2 0x10B3 PUSH32 0xFFFFFFFFFFFFFFFFFFFFFFFFFFFFFFFFFFFFFFFFFFFFFFFFFFFFFFFFFFFFFFFF DUP3 PUSH2 0x1076 JUMP JUMPDEST PUSH2 0x10BD DUP7 DUP4 PUSH2 0x1076 JUMP JUMPDEST SWAP6 POP DUP1 NOT DUP5 AND SWAP4 POP DUP1 DUP7 AND DUP5 OR SWAP3 POP POP POP SWAP4 SWAP3 POP POP POP JUMP JUMPDEST PUSH1 0x0 DUP2 SWAP1 POP SWAP2 SWAP1 POP JUMP JUMPDEST PUSH1 0x0 PUSH2 0x10FA PUSH2 0x10F5 PUSH2 0x10F0 DUP5 PUSH2 0xB21 JUMP JUMPDEST PUSH2 0x10D5 JUMP JUMPDEST PUSH2 0xB21 JUMP JUMPDEST SWAP1 POP SWAP2 SWAP1 POP JUMP JUMPDEST PUSH1 0x0 DUP2 SWAP1 POP SWAP2 SWAP1 POP JUMP JUMPDEST PUSH2 0x1114 DUP4 PUSH2 0x10DF JUMP JUMPDEST PUSH2 0x1128 PUSH2 0x1120 DUP3 PUSH2 0x1101 JUMP JUMPDEST DUP5 DUP5 SLOAD PUSH2 0x1083 JUMP JUMPDEST DUP3 SSTORE POP POP POP POP JUMP JUMPDEST PUSH1 0x0 SWAP1 JUMP JUMPDEST PUSH2 0x113D PUSH2 0x1130 JUMP JUMPDEST PUSH2 0x1148 DUP2 DUP5 DUP5 PUSH2 0x110B JUMP JUMPDEST POP POP POP JUMP JUMPDEST JUMPDEST DUP2 DUP2 LT ISZERO PUSH2 0x116C JUMPI PUSH2 0x1161 PUSH1 0x0 DUP3 PUSH2 0x1135 JUMP JUMPDEST PUSH1 0x1 DUP2 ADD SWAP1 POP PUSH2 0x114E JUMP JUMPDEST POP POP JUMP JUMPDEST PUSH1 0x1F DUP3 GT ISZERO PUSH2 0x11B1 JUMPI PUSH2 0x1182 DUP2 PUSH2 0x1051 JUMP JUMPDEST PUSH2 0x118B DUP5 PUSH2 0x1066 JUMP JUMPDEST DUP2 ADD PUSH1 0x20 DUP6 LT ISZERO PUSH2 0x119A JUMPI DUP2 SWAP1 POP JUMPDEST PUSH2 0x11AE PUSH2 0x11A6 DUP6 PUSH2 0x1066 JUMP JUMPDEST DUP4 ADD DUP3 PUSH2 0x114D JUMP JUMPDEST POP POP JUMPDEST POP POP POP JUMP JUMPDEST PUSH1 0x0 DUP3 DUP3 SHR SWAP1 POP SWAP3 SWAP2 POP POP JUMP JUMPDEST PUSH1 0x0 PUSH2 0x11D4 PUSH1 0x0 NOT DUP5 PUSH1 0x8 MUL PUSH2 0x11B6 JUMP JUMPDEST NOT DUP1 DUP4 AND SWAP2 POP POP SWAP3 SWAP2 POP POP JUMP JUMPDEST PUSH1 0x0 PUSH2 0x11ED DUP4 DUP4 PUSH2 0x11C3 JUMP JUMPDEST SWAP2 POP DUP3 PUSH1 0x2 MUL DUP3 OR SWAP1 POP SWAP3 SWAP2 POP POP JUMP JUMPDEST PUSH2 0x1206 DUP3 PUSH2 0xCEE JUMP JUMPDEST PUSH8 0xFFFFFFFFFFFFFFFF DUP2 GT ISZERO PUSH2 0x121F JUMPI PUSH2 0x121E PUSH2 0x9F6 JUMP JUMPDEST JUMPDEST PUSH2 0x1229 DUP3 SLOAD PUSH2 0x1020 JUMP JUMPDEST PUSH2 0x1234 DUP3 DUP3 DUP6 PUSH2 0x1170 JUMP JUMPDEST PUSH1 0x0 PUSH1 0x20 SWAP1 POP PUSH1 0x1F DUP4 GT PUSH1 0x1 DUP2 EQ PUSH2 0x1267 JUMPI PUSH1 0x0 DUP5 ISZERO PUSH2 0x1255 JUMPI DUP3 DUP8 ADD MLOAD SWAP1 POP JUMPDEST PUSH2 0x125F DUP6 DUP3 PUSH2 0x11E1 JUMP JUMPDEST DUP7 SSTORE POP PUSH2 0x12C7 JUMP JUMPDEST PUSH1 0x1F NOT DUP5 AND PUSH2 0x1275 DUP7 PUSH2 0x1051 JUMP JUMPDEST PUSH1 0x0 JUMPDEST DUP3 DUP2 LT ISZERO PUSH2 0x129D JUMPI DUP5 DUP10 ADD MLOAD DUP3 SSTORE PUSH1 0x1 DUP3 ADD SWAP2 POP PUSH1 0x20 DUP6 ADD SWAP5 POP PUSH1 0x20 DUP2 ADD SWAP1 POP PUSH2 0x1278 JUMP JUMPDEST DUP7 DUP4 LT ISZERO PUSH2 0x12BA JUMPI DUP5 DUP10 ADD MLOAD PUSH2 0x12B6 PUSH1 0x1F DUP10 AND DUP3 PUSH2 0x11C3 JUMP JUMPDEST DUP4 SSTORE POP JUMPDEST PUSH1 0x1 PUSH1 0x2 DUP9 MUL ADD DUP9 SSTORE POP POP POP JUMPDEST POP POP POP POP POP POP JUMP JUMPDEST PUSH1 0x0 DUP2 SWAP1 POP SWAP3 SWAP2 POP POP JUMP JUMPDEST PUSH1 0x0 PUSH2 0x12E5 DUP3 PUSH2 0xCEE JUMP JUMPDEST PUSH2 0x12EF DUP2 DUP6 PUSH2 0x12CF JUMP JUMPDEST SWAP4 POP PUSH2 0x12FF DUP2 DUP6 PUSH1 0x20 DUP7 ADD PUSH2 0xD0A JUMP JUMPDEST DUP1 DUP5 ADD SWAP2 POP POP SWAP3 SWAP2 POP POP JUMP JUMPDEST PUSH1 0x0 PUSH2 0x1317 DUP3 DUP5 PUSH2 0x12DA JUMP JUMPDEST SWAP2 POP DUP2 SWAP1 POP SWAP3 SWAP2 POP POP JUMP JUMPDEST PUSH32 0x4E487B7100000000000000000000000000000000000000000000000000000000 PUSH1 0x0 MSTORE PUSH1 0x32 PUSH1 0x4 MSTORE PUSH1 0x24 PUSH1 0x0 REVERT JUMPDEST PUSH1 0x0 DUP2 SLOAD PUSH2 0x135E DUP2 PUSH2 0x1020 JUMP JUMPDEST PUSH2 0x1368 DUP2 DUP7 PUSH2 0x12CF JUMP JUMPDEST SWAP5 POP PUSH1 0x1 DUP3 AND PUSH1 0x0 DUP2 EQ PUSH2 0x1383 JUMPI PUSH1 0x1 DUP2 EQ PUSH2 0x1398 JUMPI PUSH2 0x13CB JUMP JUMPDEST PUSH1 0xFF NOT DUP4 AND DUP7 MSTORE DUP2 ISZERO ISZERO DUP3 MUL DUP7 ADD SWAP4 POP PUSH2 0x13CB JUMP JUMPDEST PUSH2 0x13A1 DUP6 PUSH2 0x1051 JUMP JUMPDEST PUSH1 0x0 JUMPDEST DUP4 DUP2 LT ISZERO PUSH2 0x13C3 JUMPI DUP2 SLOAD DUP2 DUP10 ADD MSTORE PUSH1 0x1 DUP3 ADD SWAP2 POP PUSH1 0x20 DUP2 ADD SWAP1 POP PUSH2 0x13A4 JUMP JUMPDEST DUP4 DUP9 ADD SWAP6 POP POP POP JUMPDEST POP POP POP SWAP3 SWAP2 POP POP JUMP JUMPDEST PUSH1 0x0 PUSH2 0x13E0 DUP3 DUP5 PUSH2 0x1351 JUMP JUMPDEST SWAP2 POP DUP2 SWAP1 POP SWAP3 SWAP2 POP POP JUMP JUMPDEST PUSH1 0x0 PUSH2 0x13F6 DUP3 PUSH2 0xB21 JUMP JUMPDEST SWAP2 POP PUSH32 0xFFFFFFFFFFFFFFFFFFFFFFFFFFFFFFFFFFFFFFFFFFFFFFFFFFFFFFFFFFFFFFFF DUP3 SUB PUSH2 0x1428 JUMPI PUSH2 0x1427 PUSH2 0xF8E JUMP JUMPDEST JUMPDEST PUSH1 0x1 DUP3 ADD SWAP1 POP SWAP2 SWAP1 POP JUMP JUMPDEST POP JUMP JUMPDEST PUSH1 0x0 PUSH2 0x1443 PUSH1 0x0 DUP4 PUSH2 0x12CF JUMP JUMPDEST SWAP2 POP PUSH2 0x144E DUP3 PUSH2 0x1433 JUMP JUMPDEST PUSH1 0x0 DUP3 ADD SWAP1 POP SWAP2 SWAP1 POP JUMP JUMPDEST PUSH1 0x0 PUSH2 0x1464 DUP3 PUSH2 0x1436 JUMP JUMPDEST SWAP2 POP DUP2 SWAP1 POP SWAP2 SWAP1 POP JUMP INVALID LOG2 PUSH5 0x6970667358 0x22 SLT KECCAK256 LT SGT 0xDC LOG2 0xD2 JUMPDEST EQ PUSH11 0x6E3C467ECD0B62FA0476ED KECCAK256 EQ 0xEF DUP9 MULMOD POP 0xE6 EQ MSIZE 0x2A 0xB3 PUSH24 0xC564736F6C63430008110033000000000000000000000000 "
				},
				"gasEstimates": {
					"creation": {
						"codeDepositCost": "1056800",
						"executionCost": "infinite",
						"totalCost": "infinite"
					},
					"external": {
						"addCategory(string)": "infinite",
						"addProduct(string,uint256,uint256,string)": "infinite",
						"addProduct(string,uint256,uint256,uint256)": "infinite",
						"getCategory()": "infinite",
						"getProducts()": "infinite",
						"getProducts(string)": "infinite"
					}
				},
				"methodIdentifiers": {
					"addCategory(string)": "2e0dcbf7",
					"addProduct(string,uint256,uint256,string)": "38789d3a",
					"addProduct(string,uint256,uint256,uint256)": "094455c4",
					"getCategory()": "80258e47",
					"getProducts()": "c29b2f20",
					"getProducts(string)": "c2657513"
				}
			},
			"storageLayout": {
				"storage": [
					{
						"astId": 20,
						"contract": "contracts/shop.sol:Shop",
						"label": "productCategory",
						"offset": 0,
						"slot": "0",
						"type": "t_array(t_string_storage)dyn_storage"
					},
					{
						"astId": 24,
						"contract": "contracts/shop.sol:Shop",
						"label": "products",
						"offset": 0,
						"slot": "1",
						"type": "t_array(t_struct(Product)12_storage)dyn_storage"
					}
				],
				"types": {
					"t_array(t_string_storage)dyn_storage": {
						"base": "t_string_storage",
						"encoding": "dynamic_array",
						"label": "string[]",
						"numberOfBytes": "32"
					},
					"t_array(t_struct(Product)12_storage)dyn_storage": {
						"base": "t_struct(Product)12_storage",
						"encoding": "dynamic_array",
						"label": "struct Shop.Product[]",
						"numberOfBytes": "32"
					},
					"t_string_storage": {
						"encoding": "bytes",
						"label": "string",
						"numberOfBytes": "32"
					},
					"t_struct(Product)12_storage": {
						"encoding": "inplace",
						"label": "struct Shop.Product",
						"members": [
							{
								"astId": 3,
								"contract": "contracts/shop.sol:Shop",
								"label": "primaryKey",
								"offset": 0,
								"slot": "0",
								"type": "t_uint256"
							},
							{
								"astId": 5,
								"contract": "contracts/shop.sol:Shop",
								"label": "name",
								"offset": 0,
								"slot": "1",
								"type": "t_string_storage"
							},
							{
								"astId": 7,
								"contract": "contracts/shop.sol:Shop",
								"label": "price",
								"offset": 0,
								"slot": "2",
								"type": "t_uint256"
							},
							{
								"astId": 9,
								"contract": "contracts/shop.sol:Shop",
								"label": "quantity",
								"offset": 0,
								"slot": "3",
								"type": "t_uint256"
							},
							{
								"astId": 11,
								"contract": "contracts/shop.sol:Shop",
								"label": "category",
								"offset": 0,
								"slot": "4",
								"type": "t_uint256"
							}
						],
						"numberOfBytes": "160"
					},
					"t_uint256": {
						"encoding": "inplace",
						"label": "uint256",
						"numberOfBytes": "32"
					}
				}
			},
			"userdoc": {
				"kind": "user",
				"methods": {},
				"version": 1
			}
		}
	}
}